{
  "_format": "hh-sol-artifact-1",
  "contractName": "YieldDistribution",
  "sourceName": "contracts/YieldDistribution.sol",
  "abi": [
    {
      "inputs": [],
      "stateMutability": "nonpayable",
      "type": "constructor"
    },
    {
      "inputs": [],
      "name": "AccessControlBadConfirmation",
      "type": "error"
    },
    {
      "inputs": [
        {
          "internalType": "address",
          "name": "account",
          "type": "address"
        },
        {
          "internalType": "bytes32",
          "name": "neededRole",
          "type": "bytes32"
        }
      ],
      "name": "AccessControlUnauthorizedAccount",
      "type": "error"
    },
    {
      "inputs": [],
      "name": "EnforcedPause",
      "type": "error"
    },
    {
      "inputs": [],
      "name": "ExpectedPause",
      "type": "error"
    },
    {
      "inputs": [],
      "name": "ReentrancyGuardReentrantCall",
      "type": "error"
    },
    {
      "anonymous": false,
      "inputs": [
        {
          "indexed": true,
          "internalType": "uint256",
          "name": "distributionId",
          "type": "uint256"
        },
        {
          "indexed": false,
          "internalType": "uint256",
          "name": "unclaimedAmount",
          "type": "uint256"
        }
      ],
      "name": "DistributionClosed",
      "type": "event"
    },
    {
      "anonymous": false,
      "inputs": [
        {
          "indexed": true,
          "internalType": "uint256",
          "name": "distributionId",
          "type": "uint256"
        },
        {
          "indexed": true,
          "internalType": "address",
          "name": "assetToken",
          "type": "address"
        },
        {
          "indexed": false,
          "internalType": "uint256",
          "name": "totalAmount",
          "type": "uint256"
        },
        {
          "indexed": false,
          "internalType": "string",
          "name": "description",
          "type": "string"
        }
      ],
      "name": "DistributionCreated",
      "type": "event"
    },
    {
      "anonymous": false,
      "inputs": [
        {
          "indexed": false,
          "internalType": "address",
          "name": "account",
          "type": "address"
        }
      ],
      "name": "Paused",
      "type": "event"
    },
    {
      "anonymous": false,
      "inputs": [
        {
          "indexed": true,
          "internalType": "bytes32",
          "name": "role",
          "type": "bytes32"
        },
        {
          "indexed": true,
          "internalType": "bytes32",
          "name": "previousAdminRole",
          "type": "bytes32"
        },
        {
          "indexed": true,
          "internalType": "bytes32",
          "name": "newAdminRole",
          "type": "bytes32"
        }
      ],
      "name": "RoleAdminChanged",
      "type": "event"
    },
    {
      "anonymous": false,
      "inputs": [
        {
          "indexed": true,
          "internalType": "bytes32",
          "name": "role",
          "type": "bytes32"
        },
        {
          "indexed": true,
          "internalType": "address",
          "name": "account",
          "type": "address"
        },
        {
          "indexed": true,
          "internalType": "address",
          "name": "sender",
          "type": "address"
        }
      ],
      "name": "RoleGranted",
      "type": "event"
    },
    {
      "anonymous": false,
      "inputs": [
        {
          "indexed": true,
          "internalType": "bytes32",
          "name": "role",
          "type": "bytes32"
        },
        {
          "indexed": true,
          "internalType": "address",
          "name": "account",
          "type": "address"
        },
        {
          "indexed": true,
          "internalType": "address",
          "name": "sender",
          "type": "address"
        }
      ],
      "name": "RoleRevoked",
      "type": "event"
    },
    {
      "anonymous": false,
      "inputs": [
        {
          "indexed": false,
          "internalType": "address",
          "name": "account",
          "type": "address"
        }
      ],
      "name": "Unpaused",
      "type": "event"
    },
    {
      "anonymous": false,
      "inputs": [
        {
          "indexed": true,
          "internalType": "uint256",
          "name": "distributionId",
          "type": "uint256"
        },
        {
          "indexed": true,
          "internalType": "address",
          "name": "user",
          "type": "address"
        },
        {
          "indexed": false,
          "internalType": "uint256",
          "name": "amount",
          "type": "uint256"
        }
      ],
      "name": "YieldClaimed",
      "type": "event"
    },
    {
      "inputs": [],
      "name": "ASSET_MANAGER_ROLE",
      "outputs": [
        {
          "internalType": "bytes32",
          "name": "",
          "type": "bytes32"
        }
      ],
      "stateMutability": "view",
      "type": "function"
    },
    {
      "inputs": [],
      "name": "DEFAULT_ADMIN_ROLE",
      "outputs": [
        {
          "internalType": "bytes32",
          "name": "",
          "type": "bytes32"
        }
      ],
      "stateMutability": "view",
      "type": "function"
    },
    {
      "inputs": [],
      "name": "DISTRIBUTOR_ROLE",
      "outputs": [
        {
          "internalType": "bytes32",
          "name": "",
          "type": "bytes32"
        }
      ],
      "stateMutability": "view",
      "type": "function"
    },
    {
      "inputs": [
        {
          "internalType": "uint256[]",
          "name": "distributionIds",
          "type": "uint256[]"
        }
      ],
      "name": "batchClaimYield",
      "outputs": [],
      "stateMutability": "nonpayable",
      "type": "function"
    },
    {
      "inputs": [
        {
          "internalType": "uint256",
          "name": "distributionId",
          "type": "uint256"
        },
        {
          "internalType": "address",
          "name": "user",
          "type": "address"
        }
      ],
      "name": "calculateUserShare",
      "outputs": [
        {
          "internalType": "uint256",
          "name": "",
          "type": "uint256"
        }
      ],
      "stateMutability": "view",
      "type": "function"
    },
    {
      "inputs": [
        {
          "internalType": "uint256",
          "name": "distributionId",
          "type": "uint256"
        }
      ],
      "name": "claimYield",
      "outputs": [],
      "stateMutability": "nonpayable",
      "type": "function"
    },
    {
      "inputs": [
        {
          "internalType": "uint256",
          "name": "distributionId",
          "type": "uint256"
        }
      ],
      "name": "closeDistribution",
      "outputs": [],
      "stateMutability": "nonpayable",
      "type": "function"
    },
    {
      "inputs": [
        {
          "internalType": "address",
          "name": "assetToken",
          "type": "address"
        },
        {
          "internalType": "uint256",
          "name": "totalAmount",
          "type": "uint256"
        },
        {
          "internalType": "string",
          "name": "description",
          "type": "string"
        },
        {
          "internalType": "uint256",
          "name": "customClaimPeriod",
          "type": "uint256"
        }
      ],
      "name": "createDistribution",
      "outputs": [],
      "stateMutability": "payable",
      "type": "function"
    },
    {
      "inputs": [],
      "name": "defaultClaimPeriod",
      "outputs": [
        {
          "internalType": "uint256",
          "name": "",
          "type": "uint256"
        }
      ],
      "stateMutability": "view",
      "type": "function"
    },
    {
      "inputs": [
        {
          "internalType": "uint256",
          "name": "",
          "type": "uint256"
        }
      ],
      "name": "distributions",
      "outputs": [
        {
          "internalType": "uint256",
          "name": "id",
          "type": "uint256"
        },
        {
          "internalType": "address",
          "name": "assetToken",
          "type": "address"
        },
        {
          "internalType": "uint256",
          "name": "totalAmount",
          "type": "uint256"
        },
        {
          "internalType": "uint256",
          "name": "totalSupply",
          "type": "uint256"
        },
        {
          "internalType": "uint256",
          "name": "distributionDate",
          "type": "uint256"
        },
        {
          "internalType": "uint256",
          "name": "claimDeadline",
          "type": "uint256"
        },
        {
          "internalType": "string",
          "name": "description",
          "type": "string"
        },
        {
          "internalType": "bool",
          "name": "isActive",
          "type": "bool"
        },
        {
          "internalType": "uint256",
          "name": "totalClaimed",
          "type": "uint256"
        }
      ],
      "stateMutability": "view",
      "type": "function"
    },
    {
      "inputs": [],
      "name": "emergencyWithdraw",
      "outputs": [],
      "stateMutability": "nonpayable",
      "type": "function"
    },
    {
      "inputs": [
        {
          "internalType": "uint256",
          "name": "distributionId",
          "type": "uint256"
        }
      ],
      "name": "getDistribution",
      "outputs": [
        {
          "components": [
            {
              "internalType": "uint256",
              "name": "id",
              "type": "uint256"
            },
            {
              "internalType": "address",
              "name": "assetToken",
              "type": "address"
            },
            {
              "internalType": "uint256",
              "name": "totalAmount",
              "type": "uint256"
            },
            {
              "internalType": "uint256",
              "name": "totalSupply",
              "type": "uint256"
            },
            {
              "internalType": "uint256",
              "name": "distributionDate",
              "type": "uint256"
            },
            {
              "internalType": "uint256",
              "name": "claimDeadline",
              "type": "uint256"
            },
            {
              "internalType": "string",
              "name": "description",
              "type": "string"
            },
            {
              "internalType": "bool",
              "name": "isActive",
              "type": "bool"
            },
            {
              "internalType": "uint256",
              "name": "totalClaimed",
              "type": "uint256"
            }
          ],
          "internalType": "struct YieldDistribution.Distribution",
          "name": "",
          "type": "tuple"
        }
      ],
      "stateMutability": "view",
      "type": "function"
    },
    {
      "inputs": [
        {
          "internalType": "bytes32",
          "name": "role",
          "type": "bytes32"
        }
      ],
      "name": "getRoleAdmin",
      "outputs": [
        {
          "internalType": "bytes32",
          "name": "",
          "type": "bytes32"
        }
      ],
      "stateMutability": "view",
      "type": "function"
    },
    {
      "inputs": [
        {
          "internalType": "uint256",
          "name": "distributionId",
          "type": "uint256"
        },
        {
          "internalType": "address",
          "name": "user",
          "type": "address"
        }
      ],
      "name": "getUserClaimStatus",
      "outputs": [
        {
          "internalType": "uint256",
          "name": "amount",
          "type": "uint256"
        },
        {
          "internalType": "bool",
          "name": "claimed",
          "type": "bool"
        }
      ],
      "stateMutability": "view",
      "type": "function"
    },
    {
      "inputs": [
        {
          "internalType": "address",
          "name": "user",
          "type": "address"
        }
      ],
      "name": "getUserDistributions",
      "outputs": [
        {
          "internalType": "uint256[]",
          "name": "",
          "type": "uint256[]"
        }
      ],
      "stateMutability": "view",
      "type": "function"
    },
    {
      "inputs": [
        {
          "internalType": "bytes32",
          "name": "role",
          "type": "bytes32"
        },
        {
          "internalType": "address",
          "name": "account",
          "type": "address"
        }
      ],
      "name": "grantRole",
      "outputs": [],
      "stateMutability": "nonpayable",
      "type": "function"
    },
    {
      "inputs": [
        {
          "internalType": "bytes32",
          "name": "role",
          "type": "bytes32"
        },
        {
          "internalType": "address",
          "name": "account",
          "type": "address"
        }
      ],
      "name": "hasRole",
      "outputs": [
        {
          "internalType": "bool",
          "name": "",
          "type": "bool"
        }
      ],
      "stateMutability": "view",
      "type": "function"
    },
    {
      "inputs": [],
      "name": "nextDistributionId",
      "outputs": [
        {
          "internalType": "uint256",
          "name": "",
          "type": "uint256"
        }
      ],
      "stateMutability": "view",
      "type": "function"
    },
    {
      "inputs": [],
      "name": "pause",
      "outputs": [],
      "stateMutability": "nonpayable",
      "type": "function"
    },
    {
      "inputs": [],
      "name": "paused",
      "outputs": [
        {
          "internalType": "bool",
          "name": "",
          "type": "bool"
        }
      ],
      "stateMutability": "view",
      "type": "function"
    },
    {
      "inputs": [
        {
          "internalType": "bytes32",
          "name": "role",
          "type": "bytes32"
        },
        {
          "internalType": "address",
          "name": "callerConfirmation",
          "type": "address"
        }
      ],
      "name": "renounceRole",
      "outputs": [],
      "stateMutability": "nonpayable",
      "type": "function"
    },
    {
      "inputs": [
        {
          "internalType": "bytes32",
          "name": "role",
          "type": "bytes32"
        },
        {
          "internalType": "address",
          "name": "account",
          "type": "address"
        }
      ],
      "name": "revokeRole",
      "outputs": [],
      "stateMutability": "nonpayable",
      "type": "function"
    },
    {
      "inputs": [
        {
          "internalType": "uint256",
          "name": "newPeriod",
          "type": "uint256"
        }
      ],
      "name": "setDefaultClaimPeriod",
      "outputs": [],
      "stateMutability": "nonpayable",
      "type": "function"
    },
    {
      "inputs": [
        {
          "internalType": "bytes4",
          "name": "interfaceId",
          "type": "bytes4"
        }
      ],
      "name": "supportsInterface",
      "outputs": [
        {
          "internalType": "bool",
          "name": "",
          "type": "bool"
        }
      ],
      "stateMutability": "view",
      "type": "function"
    },
    {
      "inputs": [],
      "name": "unpause",
      "outputs": [],
      "stateMutability": "nonpayable",
      "type": "function"
    },
    {
      "inputs": [
        {
          "internalType": "uint256",
          "name": "",
          "type": "uint256"
        },
        {
          "internalType": "address",
          "name": "",
          "type": "address"
        }
      ],
      "name": "userClaims",
      "outputs": [
        {
          "internalType": "uint256",
          "name": "amount",
          "type": "uint256"
        },
        {
          "internalType": "bool",
          "name": "claimed",
          "type": "bool"
        }
      ],
      "stateMutability": "view",
      "type": "function"
    },
    {
      "inputs": [
        {
          "internalType": "address",
          "name": "",
          "type": "address"
        },
        {
          "internalType": "uint256",
          "name": "",
          "type": "uint256"
        }
      ],
      "name": "userDistributions",
      "outputs": [
        {
          "internalType": "uint256",
          "name": "",
          "type": "uint256"
        }
      ],
      "stateMutability": "view",
      "type": "function"
    },
    {
      "stateMutability": "payable",
      "type": "receive"
    }
  ],
  "bytecode": "0x6080604052346200004f576001805560016006556301e13380600755620000263362000054565b506200003233620000d4565b506200003e3362000176565b50604051611b3e9081620002148239f35b600080fd5b6001600160a01b031660008181527fad3228b676f7d3cd4284a5443f17f1962b36e491b30a40b2405849e597ba5fb5602052604081205490919060ff16620000d057818052816020526040822081835260205260408220600160ff19825416179055339160008051602062001d528339815191528180a4600190565b5090565b6001600160a01b031660008181527f37775adb12013835ce20d78b1c52193dd1da3dc792bc1ec9a2d7427221516c8a60205260408120549091907ffbd454f36a7e1a388bd6fc3ab10d434aa4578f811acbbcf33afb1c697486313c9060ff166200017157808352826020526040832082845260205260408320600160ff1982541617905560008051602062001d52833981519152339380a4600190565b505090565b6001600160a01b031660008181527fa790c693a249880a6dd3819c4e2e8b8e0ec250d35513176d672dfb24091f467d60205260408120549091907fb1fadd3142ab2ad7f1337ea4d97112bcc8337fc11ce5b20cb04ad038adf998199060ff166200017157808352826020526040832082845260205260408320600160ff1982541617905560008051602062001d52833981519152339380a460019056fe608080604052600436101561001d575b50361561001b57600080fd5b005b60003560e01c90816301ffc9a71461147d575080630f2cba8314611425578063202a3f42146113f7578063248a9ca3146113c85780632c2aa24e146113925780632f2ff15d1461135357806336568abe1461130c5780633b345a87146111c15780633f4ba83a1461115757806340bd2e2314610f175780634487d3df14610e6f5780635c975abb14610e4c578063795be4b914610e2e5780638101922714610db85780638456cb5914610d5e57806388cded1c14610b7c57806391d1485414610b2f5780639e2dc50014610ac5578063a217fddf14610aa9578063a4b32de814610a6e578063ae9277b314610a50578063b4ca7e1c146104ac578063c95341f8146103f8578063d547741f146103b9578063d7c436d3146101d9578063db2e21bc146101935763f0bd87cc14610153573861000f565b3461018e57600036600319011261018e5760206040517ffbd454f36a7e1a388bd6fc3ab10d434aa4578f811acbbcf33afb1c697486313c8152f35b600080fd5b3461018e57600036600319011261018e576101ac6116a5565b6000808080478181156101d0575b3390f1156101c457005b6040513d6000823e3d90fd5b506108fc6101ba565b3461018e5760208060031936011261018e576004359067ffffffffffffffff9081831161018e573660238401121561018e57826004013591821161018e5760059060243684841b860182011161018e57610231611832565b610239611814565b60009460005b8581106102765760008080808a80156102588115611a14565b829061026d575b3390f1156101c45760018055005b506108fc61025f565b8281861b8301013596876000526003855260406000209060ff80600784015416159081156103ac575b811561038b575b5061037f576102b5338a611855565b918215610372578261036d949392600861033c936103298e61031c8d604051906102de826115c1565b8882528082016001918282528560005260048152604060002090336000525260406000209251835551151591019060ff801983541691151516179055565b8d8d526040600020611a6c565b01610335838254611807565b9055611807565b986040519182527f1448cb68839238fd008abe5bad73d996f9849e020313466fa9f3476d98006df2873393a36117f8565b61023f565b5097505061036d906117f8565b97505061036d906117f8565b9050600487526040600020336000528752600160406000200154168a6102a6565b838901544211915061029f565b3461018e57604036600319011261018e5761001b6004356103d86114e6565b908060005260006020526103f36001604060002001546116df565b611783565b3461018e5760208060031936011261018e576001600160a01b0361041a6114d0565b1660005260058152604060002060405190818382549182815201908192600052846000209060005b86828210610498578686610458828803836115dd565b604051928392818401908285525180915260408401929160005b82811061048157505050500390f35b835185528695509381019392810192600101610472565b835485529093019260019283019201610442565b608036600319011261018e576104c06114d0565b604480359167ffffffffffffffff831161018e573660238401121561018e57826004013567ffffffffffffffff811161088b576040519361050b601f8301601f1916602001866115dd565b818552366024838301011161018e578160009260246020930183880137850101523360009081527f37775adb12013835ce20d78b1c52193dd1da3dc792bc1ec9a2d7427221516c8a6020526040902054606435907ffbd454f36a7e1a388bd6fc3ab10d434aa4578f811acbbcf33afb1c697486313c9060ff1615610a335750610592611832565b61059a611814565b6001600160a01b038216156109de5760243515610987576024353410610932576040516318160ddd60e01b8152926020846004816001600160a01b0387165afa9384156101c4576000946108fe575b5083156108ab575080156108a157915b61061260065493610609856117f8565b60065542611807565b6040519161061f836115a4565b84835260018060a01b03841660208401526024356040840152606083015242608083015260a08201528360c0820152600160e08201526000610100820152826000526003602052604060002090805182556001820160018060a01b036020830151166bffffffffffffffffffffffff60a01b82541617905560408101516002830155606081015160038301556080810151600483015560a0810151600583015560c081015180519067ffffffffffffffff821161088b576106e3600685015461156a565b601f8111610844575b50602090601f83116001146107a8577f38c5f46d9d106bbffb522d4259c19b8c60b878a268fa711df4a61e0cc58417c495938361079496946008946101009460009261079d575b50508160011b916000199060031b1c19161760068501555b61076a60e08201511515600786019060ff801983541691151516179055565b015191015560405191829160243583526040602084015260018060a01b031695604083019061152a565b0390a360018055005b015190508b80610733565b906006850160005260206000209160005b601f198516811061082c575093600184600894610100947f38c5f46d9d106bbffb522d4259c19b8c60b878a268fa711df4a61e0cc58417c49a986107949a98601f19811610610813575b505050811b01600685015561074b565b015160001960f88460031b161c191690558b8080610803565b919260206001819286850151815501940192016107b9565b600685016000526020600020601f840160051c810160208510610884575b601f830160051c820181106108785750506106ec565b60008155600101610862565b5080610862565b634e487b7160e01b600052604160045260246000fd5b50600754916105f9565b6084907f5969656c64446973747269627574696f6e3a20546f6b656e20686173206e6f206040519162461bcd60e51b8352602060048401526026602484015282015265737570706c7960d01b6064820152fd5b9093506020813d60201161092a575b8161091a602093836115dd565b8101031261018e575192856105e9565b3d915061090d565b60405162461bcd60e51b815260206004820152602860248201527f5969656c64446973747269627574696f6e3a20496e73756666696369656e74208185015267115512081cd95b9d60c21b6064820152608490fd5b60405162461bcd60e51b815260206004820152602a60248201527f5969656c64446973747269627574696f6e3a20416d6f756e74206d757374206281850152696520706f73697469766560b01b6064820152608490fd5b60405162461bcd60e51b815260206004820152602860248201527f5969656c64446973747269627574696f6e3a20496e76616c696420746f6b656e8185015267206164647265737360c01b6064820152608490fd5b83906040519063e2517d3f60e01b82523360048301526024820152fd5b3461018e57600036600319011261018e576020600754604051908152f35b3461018e57600036600319011261018e5760206040517fb1fadd3142ab2ad7f1337ea4d97112bcc8337fc11ce5b20cb04ad038adf998198152f35b3461018e57600036600319011261018e57602060405160008152f35b3461018e57604036600319011261018e57610ade6114e6565b600435600052600460205260406000209060018060a01b0316600052602052604060002060ff600182549201541690610b2b60405192839283909291602090604083019483521515910152565b0390f35b3461018e57604036600319011261018e57610b486114e6565b600435600052600060205260406000209060018060a01b0316600052602052602060ff604060002054166040519015158152f35b3461018e5760208060031936011261018e57600435907fb1fadd3142ab2ad7f1337ea4d97112bcc8337fc11ce5b20cb04ad038adf998198060005260008252604060002033600052825260ff6040600020541615610d405750816000526003815260406000209060078201805460ff811615610ce4576005840154421115610c8b5760ff191690556008600283015492015480830392808411610c7557148015610c4d575b507f5a9556b487589e930c69a6dca27039f2f3af9fa8e99ffa96c40e96a6bf63690d91604051908152a2005b8290600090610c6c575b600080809381933390f1156101c45783610c21565b506108fc610c57565b634e487b7160e01b600052601160045260246000fd5b60405162461bcd60e51b815260048101849052602b60248201527f5969656c64446973747269627574696f6e3a20436c61696d20706572696f642060448201526a1b9bdd08195e1c1a5c995960aa1b6064820152608490fd5b60405162461bcd60e51b815260048101849052602e60248201527f5969656c64446973747269627574696f6e3a20446973747269627574696f6e2060448201526d185b1c9958591e4818db1bdcd95960921b6064820152608490fd5b6044906040519063e2517d3f60e01b82523360048301526024820152fd5b3461018e57600036600319011261018e57610d776116a5565b610d7f611814565b600160ff1960025416176002557f62e78cea01bee320cd4e420270b5ea74000d11b0c9f74754ebdbfc544b05a2586020604051338152a1005b3461018e57602036600319011261018e57600435610dd46116a5565b8015610ddf57600755005b60405162461bcd60e51b815260206004820152602160248201527f5969656c64446973747269627574696f6e3a20496e76616c696420706572696f6044820152601960fa1b6064820152608490fd5b3461018e57600036600319011261018e576020600654604051908152f35b3461018e57600036600319011261018e57602060ff600254166040519015158152f35b3461018e57602036600319011261018e5760043560005260036020526040600020805460018060a01b03600183015416916002810154610f0560038301546004840154600585015490610ec4600687016115ff565b92600860ff60078901541697015495604051998a998a5260208a015260408901526060880152608087015260a08601526101208060c087015285019061152a565b91151560e08401526101008301520390f35b3461018e5760208060031936011261018e57600435610f34611832565b610f3c611814565b806000526003825260406000209160ff6007840154161561110057600583015442116110ac578160005260048152604060002033600052815260ff6001604060002001541661105d57610f8f3383611855565b80936008821591610fa08315611a14565b610fec604051610faf816115c1565b85815260018782018181528960005260048952604060002033600052895260406000209251835551151591019060ff801983541691151516179055565b60058552610ffe866040600020611a6c565b0161100a838254611807565b9055600090611054575b600080809381933390f1156101c4577f1448cb68839238fd008abe5bad73d996f9849e020313466fa9f3476d98006df2906040519384523393a360018055005b506108fc611014565b6084906040519062461bcd60e51b82526004820152602260248201527f5969656c64446973747269627574696f6e3a20416c726561647920636c61696d604482015261195960f21b6064820152fd5b6084906040519062461bcd60e51b82526004820152602760248201527f5969656c64446973747269627574696f6e3a20436c61696d20706572696f6420604482015266195e1c1a5c995960ca1b6064820152fd5b6084906040519062461bcd60e51b82526004820152602a60248201527f5969656c64446973747269627574696f6e3a20446973747269627574696f6e206044820152696e6f742061637469766560b01b6064820152fd5b3461018e57600036600319011261018e576111706116a5565b60025460ff8116156111af5760ff19166002557f5db9ee0a495bf2e6ff9c91a7834c1ba4fdd244a5e8aa4e537bd38aeae4b073aa6020604051338152a1005b604051638dfc202b60e01b8152600490fd5b3461018e5760208060031936011261018e576040516111df816115a4565b60008152600082820152600060408201526000606082015260006080820152600060a0820152606060c0820152600060e082015260006101008092015260043560005260038252604060002060405191611238836115a4565b8154835260018060a01b0380600184015416908585019182526002840154604086019081526003850154606087019081526004860154906080880191825260058701549260a0890193845261128f600689016115ff565b9460c08a01958652600860ff60078b0154169960e08c019a15158b52015496888b019788526040519b8c9b818d5251908c0152511660408a01525160608901525160808801525160a08701525160c086015251916112fb610120938460e088015261014087019061152a565b935115159085015251908301520390f35b3461018e57604036600319011261018e576113256114e6565b336001600160a01b038216036113415761001b90600435611783565b60405163334bd91960e11b8152600490fd5b3461018e57604036600319011261018e5761001b6004356113726114e6565b9080600052600060205261138d6001604060002001546116df565b611705565b3461018e57604036600319011261018e576113b66113ae6114e6565b600435611aa6565b60408051928352901515602083015290f35b3461018e57602036600319011261018e5760043560005260006020526020600160406000200154604051908152f35b3461018e57604036600319011261018e57602061141d6114156114e6565b600435611855565b604051908152f35b3461018e57604036600319011261018e5761143e6114d0565b6001600160a01b031660009081526005602052604090208054602435919082101561018e5760209161146f916114fc565b90546040519160031b1c8152f35b3461018e57602036600319011261018e576004359063ffffffff60e01b821680920361018e57602091637965db0b60e01b81149081156114bf575b5015158152f35b6301ffc9a760e01b149050836114b8565b600435906001600160a01b038216820361018e57565b602435906001600160a01b038216820361018e57565b80548210156115145760005260206000200190600090565b634e487b7160e01b600052603260045260246000fd5b919082519283825260005b848110611556575050826000602080949584010152601f8019910116010190565b602081830181015184830182015201611535565b90600182811c9216801561159a575b602083101461158457565b634e487b7160e01b600052602260045260246000fd5b91607f1691611579565b610120810190811067ffffffffffffffff82111761088b57604052565b6040810190811067ffffffffffffffff82111761088b57604052565b90601f8019910116810190811067ffffffffffffffff82111761088b57604052565b90604051918260008254926116138461156a565b908184526001948581169081600014611682575060011461163f575b505061163d925003836115dd565b565b9093915060005260209081600020936000915b81831061166a57505061163d9350820101388061162f565b85548884018501529485019487945091830191611652565b91505061163d94506020925060ff191682840152151560051b820101388061162f565b3360009081527fad3228b676f7d3cd4284a5443f17f1962b36e491b30a40b2405849e597ba5fb5602052604081205460ff1615610d405750565b80600052600060205260406000203360005260205260ff6040600020541615610d405750565b9060009180835282602052604083209160018060a01b03169182845260205260ff6040842054161560001461177e57808352826020526040832082845260205260408320600160ff198254161790557f2f8788117e7eff1d82e926ec794901d17c78024a50270940304540a733656f0d339380a4600190565b505090565b9060009180835282602052604083209160018060a01b03169182845260205260ff60408420541660001461177e5780835282602052604083208284526020526040832060ff1981541690557ff6391f5c32d9c69d2a47ea670b442974b53935d1edc7fd64eb21e047a839171b339380a4600190565b6000198114610c755760010190565b91908201809211610c7557565b60ff6002541661182057565b60405163d93c066560e01b8152600490fd5b600260015414611843576002600155565b604051633ee5aeb560e01b8152600490fd5b9060009182526020906003825260409182842091835191611875836115a4565b8354835260018060a01b0380600186015416828501908152600286015494878101958652610100600860038901549860608401998a5260048101546080850152600581015460a08501526118cb600682016115ff565b60c085015260ff600782015416151560e0850152015491015281815116156119be575186516370a0823160e01b81529382166004850152829184916024918391165afa9485156119b557508594611981575b505082158015611978575b611972575182810292818404149015171561195e575191821561194a57500490565b634e487b7160e01b81526012600452602490fd5b634e487b7160e01b83526011600452602483fd5b50505090565b50815115611928565b9080929450813d83116119ae575b61199981836115dd565b810103126119aa575191388061191d565b8380fd5b503d61198f565b513d87823e3d90fd5b865162461bcd60e51b815260048101849052602960248201527f5969656c64446973747269627574696f6e3a20446973747269627574696f6e206044820152681b9bdd08199bdd5b9960ba1b6064820152608490fd5b15611a1b57565b60405162461bcd60e51b8152602060048201526024808201527f5969656c64446973747269627574696f6e3a204e6f207969656c6420746f20636044820152636c61696d60e01b6064820152608490fd5b80546801000000000000000081101561088b57611a8e916001820181556114fc565b819291549060031b91821b91600019901b1916179055565b90816000526004602052604060002060018060a01b0382166000526020526040600020916020604051611ad8816115c1565b60ff600186549687845201541615159182910152611b0057611afa9250611855565b90600090565b50509060019056fea2646970667358221220869620077c9ca50a0f30ef631f5941419df26582384604f9fbe4144e2a8df9ba64736f6c634300081400332f8788117e7eff1d82e926ec794901d17c78024a50270940304540a733656f0d",
  "linkReferences": {},
  "deployedLinkReferences": {}
}