{"contracts/AssetTokenFactory.sol":{"AssetTokenFactory":{"abi":[{"inputs":[{"internalType":"address","name":"_kycContract","type":"address"},{"internalType":"address","name":"_feeRecipient","type":"address"}],"stateMutability":"nonpayable","type":"constructor"},{"inputs":[],"name":"AccessControlBadConfirmation","type":"error"},{"inputs":[{"internalType":"address","name":"account","type":"address"},{"internalType":"bytes32","name":"neededRole","type":"bytes32"}],"name":"AccessControlUnauthorizedAccount","type":"error"},{"inputs":[],"name":"EnforcedPause","type":"error"},{"inputs":[],"name":"ExpectedPause","type":"error"},{"inputs":[],"name":"ReentrancyGuardReentrantCall","type":"error"},{"anonymous":false,"inputs":[{"indexed":true,"internalType":"bytes32","name":"assetId","type":"bytes32"},{"indexed":false,"internalType":"bool","name":"isActive","type":"bool"}],"name":"AssetStatusUpdated","type":"event"},{"anonymous":false,"inputs":[{"indexed":true,"internalType":"bytes32","name":"assetId","type":"bytes32"},{"indexed":true,"internalType":"address","name":"tokenAddress","type":"address"},{"indexed":true,"internalType":"address","name":"issuer","type":"address"},{"indexed":false,"internalType":"string","name":"name","type":"string"},{"indexed":false,"internalType":"string","name":"symbol","type":"string"}],"name":"AssetTokenCreated","type":"event"},{"anonymous":false,"inputs":[{"indexed":false,"internalType":"address","name":"account","type":"address"}],"name":"Paused","type":"event"},{"anonymous":false,"inputs":[{"indexed":true,"internalType":"bytes32","name":"role","type":"bytes32"},{"indexed":true,"internalType":"bytes32","name":"previousAdminRole","type":"bytes32"},{"indexed":true,"internalType":"bytes32","name":"newAdminRole","type":"bytes32"}],"name":"RoleAdminChanged","type":"event"},{"anonymous":false,"inputs":[{"indexed":true,"internalType":"bytes32","name":"role","type":"bytes32"},{"indexed":true,"internalType":"address","name":"account","type":"address"},{"indexed":true,"internalType":"address","name":"sender","type":"address"}],"name":"RoleGranted","type":"event"},{"anonymous":false,"inputs":[{"indexed":true,"internalType":"bytes32","name":"role","type":"bytes32"},{"indexed":true,"internalType":"address","name":"account","type":"address"},{"indexed":true,"internalType":"address","name":"sender","type":"address"}],"name":"RoleRevoked","type":"event"},{"anonymous":false,"inputs":[{"indexed":false,"internalType":"address","name":"account","type":"address"}],"name":"Unpaused","type":"event"},{"inputs":[],"name":"COMPLIANCE_ROLE","outputs":[{"internalType":"bytes32","name":"","type":"bytes32"}],"stateMutability":"view","type":"function"},{"inputs":[],"name":"DEFAULT_ADMIN_ROLE","outputs":[{"internalType":"bytes32","name":"","type":"bytes32"}],"stateMutability":"view","type":"function"},{"inputs":[],"name":"ISSUER_ROLE","outputs":[{"internalType":"bytes32","name":"","type":"bytes32"}],"stateMutability":"view","type":"function"},{"inputs":[{"internalType":"uint256","name":"","type":"uint256"}],"name":"allAssets","outputs":[{"internalType":"bytes32","name":"","type":"bytes32"}],"stateMutability":"view","type":"function"},{"inputs":[{"internalType":"bytes32","name":"","type":"bytes32"}],"name":"assets","outputs":[{"internalType":"string","name":"name","type":"string"},{"internalType":"string","name":"symbol","type":"string"},{"internalType":"address","name":"tokenAddress","type":"address"},{"internalType":"address","name":"issuer","type":"address"},{"internalType":"uint256","name":"totalSupply","type":"uint256"},{"internalType":"uint256","name":"createdAt","type":"uint256"},{"internalType":"bool","name":"isActive","type":"bool"},{"internalType":"string","name":"metadataURI","type":"string"}],"stateMutability":"view","type":"function"},{"inputs":[{"internalType":"string","name":"name","type":"string"},{"internalType":"string","name":"symbol","type":"string"},{"internalType":"uint256","name":"initialSupply","type":"uint256"},{"internalType":"string","name":"metadataURI","type":"string"}],"name":"createAssetToken","outputs":[],"stateMutability":"payable","type":"function"},{"inputs":[],"name":"creationFee","outputs":[{"internalType":"uint256","name":"","type":"uint256"}],"stateMutability":"view","type":"function"},{"inputs":[],"name":"emergencyWithdraw","outputs":[],"stateMutability":"nonpayable","type":"function"},{"inputs":[],"name":"feeRecipient","outputs":[{"internalType":"address","name":"","type":"address"}],"stateMutability":"view","type":"function"},{"inputs":[],"name":"getAllAssets","outputs":[{"internalType":"bytes32[]","name":"","type":"bytes32[]"}],"stateMutability":"view","type":"function"},{"inputs":[{"internalType":"bytes32","name":"assetId","type":"bytes32"}],"name":"getAssetInfo","outputs":[{"components":[{"internalType":"string","name":"name","type":"string"},{"internalType":"string","name":"symbol","type":"string"},{"internalType":"address","name":"tokenAddress","type":"address"},{"internalType":"address","name":"issuer","type":"address"},{"internalType":"uint256","name":"totalSupply","type":"uint256"},{"internalType":"uint256","name":"createdAt","type":"uint256"},{"internalType":"bool","name":"isActive","type":"bool"},{"internalType":"string","name":"metadataURI","type":"string"}],"internalType":"struct AssetTokenFactory.AssetInfo","name":"","type":"tuple"}],"stateMutability":"view","type":"function"},{"inputs":[{"internalType":"address","name":"issuer","type":"address"}],"name":"getAssetsByIssuer","outputs":[{"internalType":"bytes32[]","name":"","type":"bytes32[]"}],"stateMutability":"view","type":"function"},{"inputs":[{"internalType":"bytes32","name":"role","type":"bytes32"}],"name":"getRoleAdmin","outputs":[{"internalType":"bytes32","name":"","type":"bytes32"}],"stateMutability":"view","type":"function"},{"inputs":[{"internalType":"bytes32","name":"role","type":"bytes32"},{"internalType":"address","name":"account","type":"address"}],"name":"grantRole","outputs":[],"stateMutability":"nonpayable","type":"function"},{"inputs":[{"internalType":"bytes32","name":"role","type":"bytes32"},{"internalType":"address","name":"account","type":"address"}],"name":"hasRole","outputs":[{"internalType":"bool","name":"","type":"bool"}],"stateMutability":"view","type":"function"},{"inputs":[{"internalType":"address","name":"","type":"address"},{"internalType":"uint256","name":"","type":"uint256"}],"name":"issuerAssets","outputs":[{"internalType":"bytes32","name":"","type":"bytes32"}],"stateMutability":"view","type":"function"},{"inputs":[],"name":"kycContract","outputs":[{"internalType":"address","name":"","type":"address"}],"stateMutability":"view","type":"function"},{"inputs":[],"name":"pause","outputs":[],"stateMutability":"nonpayable","type":"function"},{"inputs":[],"name":"paused","outputs":[{"internalType":"bool","name":"","type":"bool"}],"stateMutability":"view","type":"function"},{"inputs":[{"internalType":"bytes32","name":"role","type":"bytes32"},{"internalType":"address","name":"callerConfirmation","type":"address"}],"name":"renounceRole","outputs":[],"stateMutability":"nonpayable","type":"function"},{"inputs":[{"internalType":"bytes32","name":"role","type":"bytes32"},{"internalType":"address","name":"account","type":"address"}],"name":"revokeRole","outputs":[],"stateMutability":"nonpayable","type":"function"},{"inputs":[{"internalType":"bytes32","name":"assetId","type":"bytes32"},{"internalType":"bool","name":"isActive","type":"bool"}],"name":"setAssetStatus","outputs":[],"stateMutability":"nonpayable","type":"function"},{"inputs":[{"internalType":"bytes4","name":"interfaceId","type":"bytes4"}],"name":"supportsInterface","outputs":[{"internalType":"bool","name":"","type":"bool"}],"stateMutability":"view","type":"function"},{"inputs":[],"name":"unpause","outputs":[],"stateMutability":"nonpayable","type":"function"},{"inputs":[{"internalType":"uint256","name":"newFee","type":"uint256"}],"name":"updateCreationFee","outputs":[],"stateMutability":"nonpayable","type":"function"},{"inputs":[{"internalType":"address","name":"newRecipient","type":"address"}],"name":"updateFeeRecipient","outputs":[],"stateMutability":"nonpayable","type":"function"}],"evm":{"bytecode":{"linkReferences":{},"object":"608034620000d857601f620019ad38819003918201601f19168301916001600160401b03831184841017620000dd578084926040948552833981010312620000d8576200005a60206200005283620000f3565b9201620000f3565b906001805567016345785d8a0000600655620000763362000108565b50620000823362000188565b5060028054610100600160a81b03191660089290921b610100600160a81b0316919091179055600780546001600160a01b0319166001600160a01b039290921691909117905560405161176290816200022b8239f35b600080fd5b634e487b7160e01b600052604160045260246000fd5b51906001600160a01b0382168203620000d857565b6001600160a01b031660008181527fad3228b676f7d3cd4284a5443f17f1962b36e491b30a40b2405849e597ba5fb5602052604081205490919060ff166200018457818052816020526040822081835260205260408220600160ff1982541617905533916000805160206200198d8339815191528180a4600190565b5090565b6001600160a01b031660008181527f335573aa7cafba10a32e2694464d1e7e5294d917876d04d506249fbf84d791af60205260408120549091907f442a94f1a1fac79af32856af2a64f63648cfa2ef3b98610a5bb7cbec4cee69859060ff166200022557808352826020526040832082845260205260408320600160ff198254161790556000805160206200198d833981519152339380a4600190565b50509056fe608080604052600436101561001357600080fd5b60003560e01c90816301ffc9a7146112ff57508063062d3bd7146112c4578063248a9ca3146112955780632acada4d1461121a5780632f2ff15d146111db57806336568abe146111945780633f4ba83a1461112a5780634690484014611101578063529b4976146110a9578063578e5c22146110585780635c975abb146110355780636b07b811146107de5780636d3123eb146107b15780636fa237951461079057806377485eca1461070c57806382aefa24146106d1578063838b1af8146105725780638456cb591461051857806391d14854146104cb5780639fda5b661461040a578063a217fddf146103ee578063d547741f146103ad578063db2e21bc14610367578063dce0b4e414610349578063f160d369146102ac5763fefaad5d1461013d57600080fd5b346102a7576020806003193601126102a7576040519061015c826113e7565b606082818094528183820152604081016000905281810160009052608081016000905260a081016000905260c081016000905260e0015260043560005260038152604060002090604051916101b0836113e7565b6101b9816114cd565b83526101c7600182016114cd565b91808401928352600160a01b6001900394856002840154169260408601938452866003820154168287019081526004820154608088019081528860058401549260a08a01938452600685015460ff169460c08b01951515865260070161022c906114cd565b9560e08b019687526040519b8c9b898d52518c6101009a8b9101526101208d0161025591611596565b9a51601f198d8d03810160408f01529b61026e91611596565b995116908b0152511660808901525160a08801525160c087015251151560e0860152519284830301908401526102a391611596565b0390f35b600080fd5b346102a75760203660031901126102a7576102c56113a3565b6102cd6115bb565b6001600160a01b031680156102f9576bffffffffffffffffffffffff60a01b6007541617600755600080f35b60405162461bcd60e51b815260206004820152602260248201527f4173736574546f6b656e466163746f72793a20496e76616c6964206164647265604482015261737360f01b6064820152608490fd5b346102a75760003660031901126102a7576020600654604051908152f35b346102a75760003660031901126102a7576103806115bb565b6000808080478181156103a4575b3390f11561039857005b6040513d6000823e3d90fd5b506108fc61038e565b346102a75760403660031901126102a7576103ec6004356103cc61138d565b908060005260006020526103e76001604060002001546115f5565b611699565b005b346102a75760003660031901126102a757602060405160008152f35b346102a75760203660031901126102a757600435600052600360205261049460406000206102a361043a826114cd565b91610447600182016114cd565b60018060a01b0391826002820154169260038201541660048201546005830154916104a261047f600760ff60068801541696016114cd565b956040519a8b9a610100808d528c0190611596565b908a820360208c0152611596565b9560408901526060880152608087015260a0860152151560c085015283820360e0850152611596565b346102a75760403660031901126102a7576104e461138d565b600435600052600060205260406000209060018060a01b0316600052602052602060ff604060002054166040519015158152f35b346102a75760003660031901126102a7576105316115bb565b61053961170e565b600160ff1960025416176002557f62e78cea01bee320cd4e420270b5ea74000d11b0c9f74754ebdbfc544b05a2586020604051338152a1005b346102a75760403660031901126102a7576004356024358015158082036102a7573360009081527f335573aa7cafba10a32e2694464d1e7e5294d917876d04d506249fbf84d791af60209081526040909120549092907f442a94f1a1fac79af32856af2a64f63648cfa2ef3b98610a5bb7cbec4cee69859060ff16156106b3575060008481526003808552604090912001546001600160a01b031615610663579061065a7f2927326e3aa9264863d9b2ba6c5881dc9af9d5a7462305d2392546897c6db2899392856000526003845260066040600020019060ff801983541691151516179055565b604051908152a2005b60405162461bcd60e51b815260048101849052602260248201527f4173736574546f6b656e466163746f72793a204173736574206e6f7420666f756044820152611b9960f21b6064820152608490fd5b6044906040519063e2517d3f60e01b82523360048301526024820152fd5b346102a75760003660031901126102a75760206040517f114e74f6ea3bd819998f78687bfcb11b140da08e9b7d222fa9c1f1ba1f2aa1228152f35b346102a7576020806003193601126102a7576001600160a01b0361072e6113a3565b1660005260048152604060002090604051908181845491828152019360005281600020916000905b828210610779576102a38561076d8189038261141a565b60405191829182611352565b835486529485019460019384019390910190610756565b346102a75760203660031901126102a7576107a96115bb565b600435600655005b346102a75760003660031901126102a75760025460405160089190911c6001600160a01b03168152602090f35b60803660031901126102a75760043567ffffffffffffffff81116102a75761080a90369060040161143c565b602490813567ffffffffffffffff81116102a75761082c90369060040161143c565b9160449081356064803567ffffffffffffffff81116102a75761085390369060040161143c565b9060026001541461102357600260015561086b61170e565b6006543410610fd557855115610f9557865115610f48578215610eeb5760405160208101906108dc6054828b60206108a98d88815193849201611573565b82016108be8251809360208085019101611573565b013360601b602082015242603482015203603481018452018261141a565b5190206000818152600360205260409020600201549095906001600160a01b0316610e9957505060405191610910836113e7565b8583528660208401526000604084015233606084015260808301524260a0830152600160c083015260e0820152826000526003602052604060002090805180519067ffffffffffffffff8211610dbd57819061096c8554611493565b601f8111610e49575b50602090601f8311600114610ddd57600092610dd2575b50508160011b916000199060031b1c19161782555b602081015180519067ffffffffffffffff8211610dbd576109c56001850154611493565b601f8111610d76575b50602090601f8311600114610d035760e093929160009183610cf8575b50508160011b916000199060031b1c19161760018401555b6002830160018060a01b03604083015116906bffffffffffffffffffffffff60a01b9182825416179055600384019060018060a01b03606084015116908254161790556080810151600484015560a08101516005840155610a7960c08201511515600685019060ff801983541691151516179055565b015180519067ffffffffffffffff8211610ce357610a9a6007840154611493565b601f8111610c9c575b50602090601f8311600114610c2c576007929160009183610c21575b50508160011b916000199060031b1c1916179101555b3360005260046020526040600020908154680100000000000000009283821015610c0c5790610b09916001820181556113b9565b81549060031b9085821b91600019901b191617905560055491821015610bf8576001820180600555821015610be45750819060056000527f036b6384b5eca791c62761152d0c79bb0604c104a5fb6f4eb0703f3154bb3db00155600080808060018060a01b036007541681903415610bda575b3491f115610398577f13bf4a3d04fc8da3635bc863cd644308f0b4950b2f8df7fa7dee82562c16ab71610bc2600093610bd1604051928392604084526040840190611596565b82810360208401523397611596565b0390a460018055005b6108fc9150610b7c565b634e487b7160e01b60009081526032600452fd5b634e487b7160e01b60009081526041600452fd5b82634e487b7160e01b60005260416004526000fd5b015190508880610abf565b906007840160005260206000209160005b601f1985168110610c845750918391600193600795601f19811610610c6b575b505050811b01910155610ad5565b015160001960f88460031b161c19169055888080610c5d565b91926020600181928685015181550194019201610c3d565b600784016000526020600020601f840160051c810160208510610cdc575b601f830160051c82018110610cd0575050610aa3565b60008155600101610cba565b5080610cba565b83634e487b7160e01b60005260416004526000fd5b0151905089806109eb565b906001850160005260206000209160005b601f1985168110610d5e575091839160019360e09695601f19811610610d45575b505050811b016001840155610a03565b015160001960f88460031b161c19169055898080610d35565b91926020600181928685015181550194019201610d14565b600185016000526020600020601f840160051c810160208510610db6575b601f830160051c82018110610daa5750506109ce565b60008155600101610d94565b5080610d94565b84634e487b7160e01b60005260416004526000fd5b01519050888061098c565b9250846000526020600020906000935b601f1984168510610e2e576001945083601f19811610610e15575b505050811b0182556109a1565b015160001960f88460031b161c19169055888080610e08565b81810151835560209485019460019093019290910190610ded565b909150846000526020600020601f840160051c810160208510610e92575b90849392915b601f830160051c82018110610e83575050610975565b60008155859450600101610e6d565b5080610e67565b662065786973747360c81b6084927f4173736574546f6b656e466163746f72793a20417373657420616c7265616479879360276040519562461bcd60e51b875260206004880152860152840152820152fd5b837179206d75737420626520706f73697469766560701b6084927f4173736574546f6b656e466163746f72793a20496e697469616c20737570706c8860326040519562461bcd60e51b875260206004880152860152840152820152fd5b8361195960f21b6084927f4173736574546f6b656e466163746f72793a2053796d626f6c207265717569728860226040519562461bcd60e51b875260206004880152860152840152820152fd5b60405162461bcd60e51b8152602060048201819052818601527f4173736574546f6b656e466163746f72793a204e616d6520726571756972656481870152fd5b836266656560e81b6084927f4173736574546f6b656e466163746f72793a20496e73756666696369656e74208860236040519562461bcd60e51b875260206004880152860152840152820152fd5b604051633ee5aeb560e01b8152600490fd5b346102a75760003660031901126102a757602060ff600254166040519015158152f35b346102a75760203660031901126102a7576004356005548110156102a75760209060056000527f036b6384b5eca791c62761152d0c79bb0604c104a5fb6f4eb0703f3154bb3db00154604051908152f35b346102a75760403660031901126102a7576110c26113a3565b6001600160a01b03166000908152600460205260409020805460243591908210156102a7576020916110f3916113b9565b90546040519160031b1c8152f35b346102a75760003660031901126102a7576007546040516001600160a01b039091168152602090f35b346102a75760003660031901126102a7576111436115bb565b60025460ff8116156111825760ff19166002557f5db9ee0a495bf2e6ff9c91a7834c1ba4fdd244a5e8aa4e537bd38aeae4b073aa6020604051338152a1005b604051638dfc202b60e01b8152600490fd5b346102a75760403660031901126102a7576111ad61138d565b336001600160a01b038216036111c9576103ec90600435611699565b60405163334bd91960e11b8152600490fd5b346102a75760403660031901126102a7576103ec6004356111fa61138d565b908060005260006020526112156001604060002001546115f5565b61161b565b346102a75760003660031901126102a757604051806005549182815260208091019260056000527f036b6384b5eca791c62761152d0c79bb0604c104a5fb6f4eb0703f3154bb3db0916000905b82821061127e576102a38561076d8189038261141a565b835486529485019460019384019390910190611267565b346102a75760203660031901126102a75760043560005260006020526020600160406000200154604051908152f35b346102a75760003660031901126102a75760206040517f442a94f1a1fac79af32856af2a64f63648cfa2ef3b98610a5bb7cbec4cee69858152f35b346102a75760203660031901126102a7576004359063ffffffff60e01b82168092036102a757602091637965db0b60e01b8114908115611341575b5015158152f35b6301ffc9a760e01b1490508361133a565b6020908160408183019282815285518094520193019160005b828110611379575050505090565b83518552938101939281019260010161136b565b602435906001600160a01b03821682036102a757565b600435906001600160a01b03821682036102a757565b80548210156113d15760005260206000200190600090565b634e487b7160e01b600052603260045260246000fd5b610100810190811067ffffffffffffffff82111761140457604052565b634e487b7160e01b600052604160045260246000fd5b90601f8019910116810190811067ffffffffffffffff82111761140457604052565b81601f820112156102a75780359067ffffffffffffffff82116114045760405192611471601f8401601f19166020018561141a565b828452602083830101116102a757816000926020809301838601378301015290565b90600182811c921680156114c3575b60208310146114ad57565b634e487b7160e01b600052602260045260246000fd5b91607f16916114a2565b90604051918260008254926114e184611493565b908184526001948581169081600014611550575060011461150d575b505061150b9250038361141a565b565b9093915060005260209081600020936000915b81831061153857505061150b935082010138806114fd565b85548884018501529485019487945091830191611520565b91505061150b94506020925060ff191682840152151560051b82010138806114fd565b60005b8381106115865750506000910152565b8181015183820152602001611576565b906020916115af81518092818552858086019101611573565b601f01601f1916010190565b3360009081527fad3228b676f7d3cd4284a5443f17f1962b36e491b30a40b2405849e597ba5fb5602052604081205460ff16156106b35750565b80600052600060205260406000203360005260205260ff60406000205416156106b35750565b9060009180835282602052604083209160018060a01b03169182845260205260ff6040842054161560001461169457808352826020526040832082845260205260408320600160ff198254161790557f2f8788117e7eff1d82e926ec794901d17c78024a50270940304540a733656f0d339380a4600190565b505090565b9060009180835282602052604083209160018060a01b03169182845260205260ff6040842054166000146116945780835282602052604083208284526020526040832060ff1981541690557ff6391f5c32d9c69d2a47ea670b442974b53935d1edc7fd64eb21e047a839171b339380a4600190565b60ff6002541661171a57565b60405163d93c066560e01b8152600490fdfea2646970667358221220f3ceb2169ba5990e6db7a715477d83aa8071a16d86a344e586d8200c193efae464736f6c634300081400332f8788117e7eff1d82e926ec794901d17c78024a50270940304540a733656f0d","opcodes":"PUSH1 0x80 CALLVALUE PUSH3 0xD8 JUMPI PUSH1 0x1F PUSH3 0x19AD CODESIZE DUP2 SWAP1 SUB SWAP2 DUP3 ADD PUSH1 0x1F NOT AND DUP4 ADD SWAP2 PUSH1 0x1 PUSH1 0x1 PUSH1 0x40 SHL SUB DUP4 GT DUP5 DUP5 LT OR PUSH3 0xDD JUMPI DUP1 DUP5 SWAP3 PUSH1 0x40 SWAP5 DUP6 MSTORE DUP4 CODECOPY DUP2 ADD SUB SLT PUSH3 0xD8 JUMPI PUSH3 0x5A PUSH1 0x20 PUSH3 0x52 DUP4 PUSH3 0xF3 JUMP JUMPDEST SWAP3 ADD PUSH3 0xF3 JUMP JUMPDEST SWAP1 PUSH1 0x1 DUP1 SSTORE PUSH8 0x16345785D8A0000 PUSH1 0x6 SSTORE PUSH3 0x76 CALLER PUSH3 0x108 JUMP JUMPDEST POP PUSH3 0x82 CALLER PUSH3 0x188 JUMP JUMPDEST POP PUSH1 0x2 DUP1 SLOAD PUSH2 0x100 PUSH1 0x1 PUSH1 0xA8 SHL SUB NOT AND PUSH1 0x8 SWAP3 SWAP1 SWAP3 SHL PUSH2 0x100 PUSH1 0x1 PUSH1 0xA8 SHL SUB AND SWAP2 SWAP1 SWAP2 OR SWAP1 SSTORE PUSH1 0x7 DUP1 SLOAD PUSH1 0x1 PUSH1 0x1 PUSH1 0xA0 SHL SUB NOT AND PUSH1 0x1 PUSH1 0x1 PUSH1 0xA0 SHL SUB SWAP3 SWAP1 SWAP3 AND SWAP2 SWAP1 SWAP2 OR SWAP1 SSTORE PUSH1 0x40 MLOAD PUSH2 0x1762 SWAP1 DUP2 PUSH3 0x22B DUP3 CODECOPY RETURN JUMPDEST PUSH1 0x0 DUP1 REVERT JUMPDEST PUSH4 0x4E487B71 PUSH1 0xE0 SHL PUSH1 0x0 MSTORE PUSH1 0x41 PUSH1 0x4 MSTORE PUSH1 0x24 PUSH1 0x0 REVERT JUMPDEST MLOAD SWAP1 PUSH1 0x1 PUSH1 0x1 PUSH1 0xA0 SHL SUB DUP3 AND DUP3 SUB PUSH3 0xD8 JUMPI JUMP JUMPDEST PUSH1 0x1 PUSH1 0x1 PUSH1 0xA0 SHL SUB AND PUSH1 0x0 DUP2 DUP2 MSTORE PUSH32 0xAD3228B676F7D3CD4284A5443F17F1962B36E491B30A40B2405849E597BA5FB5 PUSH1 0x20 MSTORE PUSH1 0x40 DUP2 KECCAK256 SLOAD SWAP1 SWAP2 SWAP1 PUSH1 0xFF AND PUSH3 0x184 JUMPI DUP2 DUP1 MSTORE DUP2 PUSH1 0x20 MSTORE PUSH1 0x40 DUP3 KECCAK256 DUP2 DUP4 MSTORE PUSH1 0x20 MSTORE PUSH1 0x40 DUP3 KECCAK256 PUSH1 0x1 PUSH1 0xFF NOT DUP3 SLOAD AND OR SWAP1 SSTORE CALLER SWAP2 PUSH1 0x0 DUP1 MLOAD PUSH1 0x20 PUSH3 0x198D DUP4 CODECOPY DUP2 MLOAD SWAP2 MSTORE DUP2 DUP1 LOG4 PUSH1 0x1 SWAP1 JUMP JUMPDEST POP SWAP1 JUMP JUMPDEST PUSH1 0x1 PUSH1 0x1 PUSH1 0xA0 SHL SUB AND PUSH1 0x0 DUP2 DUP2 MSTORE PUSH32 0x335573AA7CAFBA10A32E2694464D1E7E5294D917876D04D506249FBF84D791AF PUSH1 0x20 MSTORE PUSH1 0x40 DUP2 KECCAK256 SLOAD SWAP1 SWAP2 SWAP1 PUSH32 0x442A94F1A1FAC79AF32856AF2A64F63648CFA2EF3B98610A5BB7CBEC4CEE6985 SWAP1 PUSH1 0xFF AND PUSH3 0x225 JUMPI DUP1 DUP4 MSTORE DUP3 PUSH1 0x20 MSTORE PUSH1 0x40 DUP4 KECCAK256 DUP3 DUP5 MSTORE PUSH1 0x20 MSTORE PUSH1 0x40 DUP4 KECCAK256 PUSH1 0x1 PUSH1 0xFF NOT DUP3 SLOAD AND OR SWAP1 SSTORE PUSH1 0x0 DUP1 MLOAD PUSH1 0x20 PUSH3 0x198D DUP4 CODECOPY DUP2 MLOAD SWAP2 MSTORE CALLER SWAP4 DUP1 LOG4 PUSH1 0x1 SWAP1 JUMP JUMPDEST POP POP SWAP1 JUMP INVALID PUSH1 0x80 DUP1 PUSH1 0x40 MSTORE PUSH1 0x4 CALLDATASIZE LT ISZERO PUSH2 0x13 JUMPI PUSH1 0x0 DUP1 REVERT JUMPDEST PUSH1 0x0 CALLDATALOAD PUSH1 0xE0 SHR SWAP1 DUP2 PUSH4 0x1FFC9A7 EQ PUSH2 0x12FF JUMPI POP DUP1 PUSH4 0x62D3BD7 EQ PUSH2 0x12C4 JUMPI DUP1 PUSH4 0x248A9CA3 EQ PUSH2 0x1295 JUMPI DUP1 PUSH4 0x2ACADA4D EQ PUSH2 0x121A JUMPI DUP1 PUSH4 0x2F2FF15D EQ PUSH2 0x11DB JUMPI DUP1 PUSH4 0x36568ABE EQ PUSH2 0x1194 JUMPI DUP1 PUSH4 0x3F4BA83A EQ PUSH2 0x112A JUMPI DUP1 PUSH4 0x46904840 EQ PUSH2 0x1101 JUMPI DUP1 PUSH4 0x529B4976 EQ PUSH2 0x10A9 JUMPI DUP1 PUSH4 0x578E5C22 EQ PUSH2 0x1058 JUMPI DUP1 PUSH4 0x5C975ABB EQ PUSH2 0x1035 JUMPI DUP1 PUSH4 0x6B07B811 EQ PUSH2 0x7DE JUMPI DUP1 PUSH4 0x6D3123EB EQ PUSH2 0x7B1 JUMPI DUP1 PUSH4 0x6FA23795 EQ PUSH2 0x790 JUMPI DUP1 PUSH4 0x77485ECA EQ PUSH2 0x70C JUMPI DUP1 PUSH4 0x82AEFA24 EQ PUSH2 0x6D1 JUMPI DUP1 PUSH4 0x838B1AF8 EQ PUSH2 0x572 JUMPI DUP1 PUSH4 0x8456CB59 EQ PUSH2 0x518 JUMPI DUP1 PUSH4 0x91D14854 EQ PUSH2 0x4CB JUMPI DUP1 PUSH4 0x9FDA5B66 EQ PUSH2 0x40A JUMPI DUP1 PUSH4 0xA217FDDF EQ PUSH2 0x3EE JUMPI DUP1 PUSH4 0xD547741F EQ PUSH2 0x3AD JUMPI DUP1 PUSH4 0xDB2E21BC EQ PUSH2 0x367 JUMPI DUP1 PUSH4 0xDCE0B4E4 EQ PUSH2 0x349 JUMPI DUP1 PUSH4 0xF160D369 EQ PUSH2 0x2AC JUMPI PUSH4 0xFEFAAD5D EQ PUSH2 0x13D JUMPI PUSH1 0x0 DUP1 REVERT JUMPDEST CALLVALUE PUSH2 0x2A7 JUMPI PUSH1 0x20 DUP1 PUSH1 0x3 NOT CALLDATASIZE ADD SLT PUSH2 0x2A7 JUMPI PUSH1 0x40 MLOAD SWAP1 PUSH2 0x15C DUP3 PUSH2 0x13E7 JUMP JUMPDEST PUSH1 0x60 DUP3 DUP2 DUP1 SWAP5 MSTORE DUP2 DUP4 DUP3 ADD MSTORE PUSH1 0x40 DUP2 ADD PUSH1 0x0 SWAP1 MSTORE DUP2 DUP2 ADD PUSH1 0x0 SWAP1 MSTORE PUSH1 0x80 DUP2 ADD PUSH1 0x0 SWAP1 MSTORE PUSH1 0xA0 DUP2 ADD PUSH1 0x0 SWAP1 MSTORE PUSH1 0xC0 DUP2 ADD PUSH1 0x0 SWAP1 MSTORE PUSH1 0xE0 ADD MSTORE PUSH1 0x4 CALLDATALOAD PUSH1 0x0 MSTORE PUSH1 0x3 DUP2 MSTORE PUSH1 0x40 PUSH1 0x0 KECCAK256 SWAP1 PUSH1 0x40 MLOAD SWAP2 PUSH2 0x1B0 DUP4 PUSH2 0x13E7 JUMP JUMPDEST PUSH2 0x1B9 DUP2 PUSH2 0x14CD JUMP JUMPDEST DUP4 MSTORE PUSH2 0x1C7 PUSH1 0x1 DUP3 ADD PUSH2 0x14CD JUMP JUMPDEST SWAP2 DUP1 DUP5 ADD SWAP3 DUP4 MSTORE PUSH1 0x1 PUSH1 0xA0 SHL PUSH1 0x1 SWAP1 SUB SWAP5 DUP6 PUSH1 0x2 DUP5 ADD SLOAD AND SWAP3 PUSH1 0x40 DUP7 ADD SWAP4 DUP5 MSTORE DUP7 PUSH1 0x3 DUP3 ADD SLOAD AND DUP3 DUP8 ADD SWAP1 DUP2 MSTORE PUSH1 0x4 DUP3 ADD SLOAD PUSH1 0x80 DUP9 ADD SWAP1 DUP2 MSTORE DUP9 PUSH1 0x5 DUP5 ADD SLOAD SWAP3 PUSH1 0xA0 DUP11 ADD SWAP4 DUP5 MSTORE PUSH1 0x6 DUP6 ADD SLOAD PUSH1 0xFF AND SWAP5 PUSH1 0xC0 DUP12 ADD SWAP6 ISZERO ISZERO DUP7 MSTORE PUSH1 0x7 ADD PUSH2 0x22C SWAP1 PUSH2 0x14CD JUMP JUMPDEST SWAP6 PUSH1 0xE0 DUP12 ADD SWAP7 DUP8 MSTORE PUSH1 0x40 MLOAD SWAP12 DUP13 SWAP12 DUP10 DUP14 MSTORE MLOAD DUP13 PUSH2 0x100 SWAP11 DUP12 SWAP2 ADD MSTORE PUSH2 0x120 DUP14 ADD PUSH2 0x255 SWAP2 PUSH2 0x1596 JUMP JUMPDEST SWAP11 MLOAD PUSH1 0x1F NOT DUP14 DUP14 SUB DUP2 ADD PUSH1 0x40 DUP16 ADD MSTORE SWAP12 PUSH2 0x26E SWAP2 PUSH2 0x1596 JUMP JUMPDEST SWAP10 MLOAD AND SWAP1 DUP12 ADD MSTORE MLOAD AND PUSH1 0x80 DUP10 ADD MSTORE MLOAD PUSH1 0xA0 DUP9 ADD MSTORE MLOAD PUSH1 0xC0 DUP8 ADD MSTORE MLOAD ISZERO ISZERO PUSH1 0xE0 DUP7 ADD MSTORE MLOAD SWAP3 DUP5 DUP4 SUB ADD SWAP1 DUP5 ADD MSTORE PUSH2 0x2A3 SWAP2 PUSH2 0x1596 JUMP JUMPDEST SUB SWAP1 RETURN JUMPDEST PUSH1 0x0 DUP1 REVERT JUMPDEST CALLVALUE PUSH2 0x2A7 JUMPI PUSH1 0x20 CALLDATASIZE PUSH1 0x3 NOT ADD SLT PUSH2 0x2A7 JUMPI PUSH2 0x2C5 PUSH2 0x13A3 JUMP JUMPDEST PUSH2 0x2CD PUSH2 0x15BB JUMP JUMPDEST PUSH1 0x1 PUSH1 0x1 PUSH1 0xA0 SHL SUB AND DUP1 ISZERO PUSH2 0x2F9 JUMPI PUSH12 0xFFFFFFFFFFFFFFFFFFFFFFFF PUSH1 0xA0 SHL PUSH1 0x7 SLOAD AND OR PUSH1 0x7 SSTORE PUSH1 0x0 DUP1 RETURN JUMPDEST PUSH1 0x40 MLOAD PUSH3 0x461BCD PUSH1 0xE5 SHL DUP2 MSTORE PUSH1 0x20 PUSH1 0x4 DUP3 ADD MSTORE PUSH1 0x22 PUSH1 0x24 DUP3 ADD MSTORE PUSH32 0x4173736574546F6B656E466163746F72793A20496E76616C6964206164647265 PUSH1 0x44 DUP3 ADD MSTORE PUSH2 0x7373 PUSH1 0xF0 SHL PUSH1 0x64 DUP3 ADD MSTORE PUSH1 0x84 SWAP1 REVERT JUMPDEST CALLVALUE PUSH2 0x2A7 JUMPI PUSH1 0x0 CALLDATASIZE PUSH1 0x3 NOT ADD SLT PUSH2 0x2A7 JUMPI PUSH1 0x20 PUSH1 0x6 SLOAD PUSH1 0x40 MLOAD SWAP1 DUP2 MSTORE RETURN JUMPDEST CALLVALUE PUSH2 0x2A7 JUMPI PUSH1 0x0 CALLDATASIZE PUSH1 0x3 NOT ADD SLT PUSH2 0x2A7 JUMPI PUSH2 0x380 PUSH2 0x15BB JUMP JUMPDEST PUSH1 0x0 DUP1 DUP1 DUP1 SELFBALANCE DUP2 DUP2 ISZERO PUSH2 0x3A4 JUMPI JUMPDEST CALLER SWAP1 CALL ISZERO PUSH2 0x398 JUMPI STOP JUMPDEST PUSH1 0x40 MLOAD RETURNDATASIZE PUSH1 0x0 DUP3 RETURNDATACOPY RETURNDATASIZE SWAP1 REVERT JUMPDEST POP PUSH2 0x8FC PUSH2 0x38E JUMP JUMPDEST CALLVALUE PUSH2 0x2A7 JUMPI PUSH1 0x40 CALLDATASIZE PUSH1 0x3 NOT ADD SLT PUSH2 0x2A7 JUMPI PUSH2 0x3EC PUSH1 0x4 CALLDATALOAD PUSH2 0x3CC PUSH2 0x138D JUMP JUMPDEST SWAP1 DUP1 PUSH1 0x0 MSTORE PUSH1 0x0 PUSH1 0x20 MSTORE PUSH2 0x3E7 PUSH1 0x1 PUSH1 0x40 PUSH1 0x0 KECCAK256 ADD SLOAD PUSH2 0x15F5 JUMP JUMPDEST PUSH2 0x1699 JUMP JUMPDEST STOP JUMPDEST CALLVALUE PUSH2 0x2A7 JUMPI PUSH1 0x0 CALLDATASIZE PUSH1 0x3 NOT ADD SLT PUSH2 0x2A7 JUMPI PUSH1 0x20 PUSH1 0x40 MLOAD PUSH1 0x0 DUP2 MSTORE RETURN JUMPDEST CALLVALUE PUSH2 0x2A7 JUMPI PUSH1 0x20 CALLDATASIZE PUSH1 0x3 NOT ADD SLT PUSH2 0x2A7 JUMPI PUSH1 0x4 CALLDATALOAD PUSH1 0x0 MSTORE PUSH1 0x3 PUSH1 0x20 MSTORE PUSH2 0x494 PUSH1 0x40 PUSH1 0x0 KECCAK256 PUSH2 0x2A3 PUSH2 0x43A DUP3 PUSH2 0x14CD JUMP JUMPDEST SWAP2 PUSH2 0x447 PUSH1 0x1 DUP3 ADD PUSH2 0x14CD JUMP JUMPDEST PUSH1 0x1 DUP1 PUSH1 0xA0 SHL SUB SWAP2 DUP3 PUSH1 0x2 DUP3 ADD SLOAD AND SWAP3 PUSH1 0x3 DUP3 ADD SLOAD AND PUSH1 0x4 DUP3 ADD SLOAD PUSH1 0x5 DUP4 ADD SLOAD SWAP2 PUSH2 0x4A2 PUSH2 0x47F PUSH1 0x7 PUSH1 0xFF PUSH1 0x6 DUP9 ADD SLOAD AND SWAP7 ADD PUSH2 0x14CD JUMP JUMPDEST SWAP6 PUSH1 0x40 MLOAD SWAP11 DUP12 SWAP11 PUSH2 0x100 DUP1 DUP14 MSTORE DUP13 ADD SWAP1 PUSH2 0x1596 JUMP JUMPDEST SWAP1 DUP11 DUP3 SUB PUSH1 0x20 DUP13 ADD MSTORE PUSH2 0x1596 JUMP JUMPDEST SWAP6 PUSH1 0x40 DUP10 ADD MSTORE PUSH1 0x60 DUP9 ADD MSTORE PUSH1 0x80 DUP8 ADD MSTORE PUSH1 0xA0 DUP7 ADD MSTORE ISZERO ISZERO PUSH1 0xC0 DUP6 ADD MSTORE DUP4 DUP3 SUB PUSH1 0xE0 DUP6 ADD MSTORE PUSH2 0x1596 JUMP JUMPDEST CALLVALUE PUSH2 0x2A7 JUMPI PUSH1 0x40 CALLDATASIZE PUSH1 0x3 NOT ADD SLT PUSH2 0x2A7 JUMPI PUSH2 0x4E4 PUSH2 0x138D JUMP JUMPDEST PUSH1 0x4 CALLDATALOAD PUSH1 0x0 MSTORE PUSH1 0x0 PUSH1 0x20 MSTORE PUSH1 0x40 PUSH1 0x0 KECCAK256 SWAP1 PUSH1 0x1 DUP1 PUSH1 0xA0 SHL SUB AND PUSH1 0x0 MSTORE PUSH1 0x20 MSTORE PUSH1 0x20 PUSH1 0xFF PUSH1 0x40 PUSH1 0x0 KECCAK256 SLOAD AND PUSH1 0x40 MLOAD SWAP1 ISZERO ISZERO DUP2 MSTORE RETURN JUMPDEST CALLVALUE PUSH2 0x2A7 JUMPI PUSH1 0x0 CALLDATASIZE PUSH1 0x3 NOT ADD SLT PUSH2 0x2A7 JUMPI PUSH2 0x531 PUSH2 0x15BB JUMP JUMPDEST PUSH2 0x539 PUSH2 0x170E JUMP JUMPDEST PUSH1 0x1 PUSH1 0xFF NOT PUSH1 0x2 SLOAD AND OR PUSH1 0x2 SSTORE PUSH32 0x62E78CEA01BEE320CD4E420270B5EA74000D11B0C9F74754EBDBFC544B05A258 PUSH1 0x20 PUSH1 0x40 MLOAD CALLER DUP2 MSTORE LOG1 STOP JUMPDEST CALLVALUE PUSH2 0x2A7 JUMPI PUSH1 0x40 CALLDATASIZE PUSH1 0x3 NOT ADD SLT PUSH2 0x2A7 JUMPI PUSH1 0x4 CALLDATALOAD PUSH1 0x24 CALLDATALOAD DUP1 ISZERO ISZERO DUP1 DUP3 SUB PUSH2 0x2A7 JUMPI CALLER PUSH1 0x0 SWAP1 DUP2 MSTORE PUSH32 0x335573AA7CAFBA10A32E2694464D1E7E5294D917876D04D506249FBF84D791AF PUSH1 0x20 SWAP1 DUP2 MSTORE PUSH1 0x40 SWAP1 SWAP2 KECCAK256 SLOAD SWAP1 SWAP3 SWAP1 PUSH32 0x442A94F1A1FAC79AF32856AF2A64F63648CFA2EF3B98610A5BB7CBEC4CEE6985 SWAP1 PUSH1 0xFF AND ISZERO PUSH2 0x6B3 JUMPI POP PUSH1 0x0 DUP5 DUP2 MSTORE PUSH1 0x3 DUP1 DUP6 MSTORE PUSH1 0x40 SWAP1 SWAP2 KECCAK256 ADD SLOAD PUSH1 0x1 PUSH1 0x1 PUSH1 0xA0 SHL SUB AND ISZERO PUSH2 0x663 JUMPI SWAP1 PUSH2 0x65A PUSH32 0x2927326E3AA9264863D9B2BA6C5881DC9AF9D5A7462305D2392546897C6DB289 SWAP4 SWAP3 DUP6 PUSH1 0x0 MSTORE PUSH1 0x3 DUP5 MSTORE PUSH1 0x6 PUSH1 0x40 PUSH1 0x0 KECCAK256 ADD SWAP1 PUSH1 0xFF DUP1 NOT DUP4 SLOAD AND SWAP2 ISZERO ISZERO AND OR SWAP1 SSTORE JUMP JUMPDEST PUSH1 0x40 MLOAD SWAP1 DUP2 MSTORE LOG2 STOP JUMPDEST PUSH1 0x40 MLOAD PUSH3 0x461BCD PUSH1 0xE5 SHL DUP2 MSTORE PUSH1 0x4 DUP2 ADD DUP5 SWAP1 MSTORE PUSH1 0x22 PUSH1 0x24 DUP3 ADD MSTORE PUSH32 0x4173736574546F6B656E466163746F72793A204173736574206E6F7420666F75 PUSH1 0x44 DUP3 ADD MSTORE PUSH2 0x1B99 PUSH1 0xF2 SHL PUSH1 0x64 DUP3 ADD MSTORE PUSH1 0x84 SWAP1 REVERT JUMPDEST PUSH1 0x44 SWAP1 PUSH1 0x40 MLOAD SWAP1 PUSH4 0xE2517D3F PUSH1 0xE0 SHL DUP3 MSTORE CALLER PUSH1 0x4 DUP4 ADD MSTORE PUSH1 0x24 DUP3 ADD MSTORE REVERT JUMPDEST CALLVALUE PUSH2 0x2A7 JUMPI PUSH1 0x0 CALLDATASIZE PUSH1 0x3 NOT ADD SLT PUSH2 0x2A7 JUMPI PUSH1 0x20 PUSH1 0x40 MLOAD PUSH32 0x114E74F6EA3BD819998F78687BFCB11B140DA08E9B7D222FA9C1F1BA1F2AA122 DUP2 MSTORE RETURN JUMPDEST CALLVALUE PUSH2 0x2A7 JUMPI PUSH1 0x20 DUP1 PUSH1 0x3 NOT CALLDATASIZE ADD SLT PUSH2 0x2A7 JUMPI PUSH1 0x1 PUSH1 0x1 PUSH1 0xA0 SHL SUB PUSH2 0x72E PUSH2 0x13A3 JUMP JUMPDEST AND PUSH1 0x0 MSTORE PUSH1 0x4 DUP2 MSTORE PUSH1 0x40 PUSH1 0x0 KECCAK256 SWAP1 PUSH1 0x40 MLOAD SWAP1 DUP2 DUP2 DUP5 SLOAD SWAP2 DUP3 DUP2 MSTORE ADD SWAP4 PUSH1 0x0 MSTORE DUP2 PUSH1 0x0 KECCAK256 SWAP2 PUSH1 0x0 SWAP1 JUMPDEST DUP3 DUP3 LT PUSH2 0x779 JUMPI PUSH2 0x2A3 DUP6 PUSH2 0x76D DUP2 DUP10 SUB DUP3 PUSH2 0x141A JUMP JUMPDEST PUSH1 0x40 MLOAD SWAP2 DUP3 SWAP2 DUP3 PUSH2 0x1352 JUMP JUMPDEST DUP4 SLOAD DUP7 MSTORE SWAP5 DUP6 ADD SWAP5 PUSH1 0x1 SWAP4 DUP5 ADD SWAP4 SWAP1 SWAP2 ADD SWAP1 PUSH2 0x756 JUMP JUMPDEST CALLVALUE PUSH2 0x2A7 JUMPI PUSH1 0x20 CALLDATASIZE PUSH1 0x3 NOT ADD SLT PUSH2 0x2A7 JUMPI PUSH2 0x7A9 PUSH2 0x15BB JUMP JUMPDEST PUSH1 0x4 CALLDATALOAD PUSH1 0x6 SSTORE STOP JUMPDEST CALLVALUE PUSH2 0x2A7 JUMPI PUSH1 0x0 CALLDATASIZE PUSH1 0x3 NOT ADD SLT PUSH2 0x2A7 JUMPI PUSH1 0x2 SLOAD PUSH1 0x40 MLOAD PUSH1 0x8 SWAP2 SWAP1 SWAP2 SHR PUSH1 0x1 PUSH1 0x1 PUSH1 0xA0 SHL SUB AND DUP2 MSTORE PUSH1 0x20 SWAP1 RETURN JUMPDEST PUSH1 0x80 CALLDATASIZE PUSH1 0x3 NOT ADD SLT PUSH2 0x2A7 JUMPI PUSH1 0x4 CALLDATALOAD PUSH8 0xFFFFFFFFFFFFFFFF DUP2 GT PUSH2 0x2A7 JUMPI PUSH2 0x80A SWAP1 CALLDATASIZE SWAP1 PUSH1 0x4 ADD PUSH2 0x143C JUMP JUMPDEST PUSH1 0x24 SWAP1 DUP2 CALLDATALOAD PUSH8 0xFFFFFFFFFFFFFFFF DUP2 GT PUSH2 0x2A7 JUMPI PUSH2 0x82C SWAP1 CALLDATASIZE SWAP1 PUSH1 0x4 ADD PUSH2 0x143C JUMP JUMPDEST SWAP2 PUSH1 0x44 SWAP1 DUP2 CALLDATALOAD PUSH1 0x64 DUP1 CALLDATALOAD PUSH8 0xFFFFFFFFFFFFFFFF DUP2 GT PUSH2 0x2A7 JUMPI PUSH2 0x853 SWAP1 CALLDATASIZE SWAP1 PUSH1 0x4 ADD PUSH2 0x143C JUMP JUMPDEST SWAP1 PUSH1 0x2 PUSH1 0x1 SLOAD EQ PUSH2 0x1023 JUMPI PUSH1 0x2 PUSH1 0x1 SSTORE PUSH2 0x86B PUSH2 0x170E JUMP JUMPDEST PUSH1 0x6 SLOAD CALLVALUE LT PUSH2 0xFD5 JUMPI DUP6 MLOAD ISZERO PUSH2 0xF95 JUMPI DUP7 MLOAD ISZERO PUSH2 0xF48 JUMPI DUP3 ISZERO PUSH2 0xEEB JUMPI PUSH1 0x40 MLOAD PUSH1 0x20 DUP2 ADD SWAP1 PUSH2 0x8DC PUSH1 0x54 DUP3 DUP12 PUSH1 0x20 PUSH2 0x8A9 DUP14 DUP9 DUP2 MLOAD SWAP4 DUP5 SWAP3 ADD PUSH2 0x1573 JUMP JUMPDEST DUP3 ADD PUSH2 0x8BE DUP3 MLOAD DUP1 SWAP4 PUSH1 0x20 DUP1 DUP6 ADD SWAP2 ADD PUSH2 0x1573 JUMP JUMPDEST ADD CALLER PUSH1 0x60 SHL PUSH1 0x20 DUP3 ADD MSTORE TIMESTAMP PUSH1 0x34 DUP3 ADD MSTORE SUB PUSH1 0x34 DUP2 ADD DUP5 MSTORE ADD DUP3 PUSH2 0x141A JUMP JUMPDEST MLOAD SWAP1 KECCAK256 PUSH1 0x0 DUP2 DUP2 MSTORE PUSH1 0x3 PUSH1 0x20 MSTORE PUSH1 0x40 SWAP1 KECCAK256 PUSH1 0x2 ADD SLOAD SWAP1 SWAP6 SWAP1 PUSH1 0x1 PUSH1 0x1 PUSH1 0xA0 SHL SUB AND PUSH2 0xE99 JUMPI POP POP PUSH1 0x40 MLOAD SWAP2 PUSH2 0x910 DUP4 PUSH2 0x13E7 JUMP JUMPDEST DUP6 DUP4 MSTORE DUP7 PUSH1 0x20 DUP5 ADD MSTORE PUSH1 0x0 PUSH1 0x40 DUP5 ADD MSTORE CALLER PUSH1 0x60 DUP5 ADD MSTORE PUSH1 0x80 DUP4 ADD MSTORE TIMESTAMP PUSH1 0xA0 DUP4 ADD MSTORE PUSH1 0x1 PUSH1 0xC0 DUP4 ADD MSTORE PUSH1 0xE0 DUP3 ADD MSTORE DUP3 PUSH1 0x0 MSTORE PUSH1 0x3 PUSH1 0x20 MSTORE PUSH1 0x40 PUSH1 0x0 KECCAK256 SWAP1 DUP1 MLOAD DUP1 MLOAD SWAP1 PUSH8 0xFFFFFFFFFFFFFFFF DUP3 GT PUSH2 0xDBD JUMPI DUP2 SWAP1 PUSH2 0x96C DUP6 SLOAD PUSH2 0x1493 JUMP JUMPDEST PUSH1 0x1F DUP2 GT PUSH2 0xE49 JUMPI JUMPDEST POP PUSH1 0x20 SWAP1 PUSH1 0x1F DUP4 GT PUSH1 0x1 EQ PUSH2 0xDDD JUMPI PUSH1 0x0 SWAP3 PUSH2 0xDD2 JUMPI JUMPDEST POP POP DUP2 PUSH1 0x1 SHL SWAP2 PUSH1 0x0 NOT SWAP1 PUSH1 0x3 SHL SHR NOT AND OR DUP3 SSTORE JUMPDEST PUSH1 0x20 DUP2 ADD MLOAD DUP1 MLOAD SWAP1 PUSH8 0xFFFFFFFFFFFFFFFF DUP3 GT PUSH2 0xDBD JUMPI PUSH2 0x9C5 PUSH1 0x1 DUP6 ADD SLOAD PUSH2 0x1493 JUMP JUMPDEST PUSH1 0x1F DUP2 GT PUSH2 0xD76 JUMPI JUMPDEST POP PUSH1 0x20 SWAP1 PUSH1 0x1F DUP4 GT PUSH1 0x1 EQ PUSH2 0xD03 JUMPI PUSH1 0xE0 SWAP4 SWAP3 SWAP2 PUSH1 0x0 SWAP2 DUP4 PUSH2 0xCF8 JUMPI JUMPDEST POP POP DUP2 PUSH1 0x1 SHL SWAP2 PUSH1 0x0 NOT SWAP1 PUSH1 0x3 SHL SHR NOT AND OR PUSH1 0x1 DUP5 ADD SSTORE JUMPDEST PUSH1 0x2 DUP4 ADD PUSH1 0x1 DUP1 PUSH1 0xA0 SHL SUB PUSH1 0x40 DUP4 ADD MLOAD AND SWAP1 PUSH12 0xFFFFFFFFFFFFFFFFFFFFFFFF PUSH1 0xA0 SHL SWAP2 DUP3 DUP3 SLOAD AND OR SWAP1 SSTORE PUSH1 0x3 DUP5 ADD SWAP1 PUSH1 0x1 DUP1 PUSH1 0xA0 SHL SUB PUSH1 0x60 DUP5 ADD MLOAD AND SWAP1 DUP3 SLOAD AND OR SWAP1 SSTORE PUSH1 0x80 DUP2 ADD MLOAD PUSH1 0x4 DUP5 ADD SSTORE PUSH1 0xA0 DUP2 ADD MLOAD PUSH1 0x5 DUP5 ADD SSTORE PUSH2 0xA79 PUSH1 0xC0 DUP3 ADD MLOAD ISZERO ISZERO PUSH1 0x6 DUP6 ADD SWAP1 PUSH1 0xFF DUP1 NOT DUP4 SLOAD AND SWAP2 ISZERO ISZERO AND OR SWAP1 SSTORE JUMP JUMPDEST ADD MLOAD DUP1 MLOAD SWAP1 PUSH8 0xFFFFFFFFFFFFFFFF DUP3 GT PUSH2 0xCE3 JUMPI PUSH2 0xA9A PUSH1 0x7 DUP5 ADD SLOAD PUSH2 0x1493 JUMP JUMPDEST PUSH1 0x1F DUP2 GT PUSH2 0xC9C JUMPI JUMPDEST POP PUSH1 0x20 SWAP1 PUSH1 0x1F DUP4 GT PUSH1 0x1 EQ PUSH2 0xC2C JUMPI PUSH1 0x7 SWAP3 SWAP2 PUSH1 0x0 SWAP2 DUP4 PUSH2 0xC21 JUMPI JUMPDEST POP POP DUP2 PUSH1 0x1 SHL SWAP2 PUSH1 0x0 NOT SWAP1 PUSH1 0x3 SHL SHR NOT AND OR SWAP2 ADD SSTORE JUMPDEST CALLER PUSH1 0x0 MSTORE PUSH1 0x4 PUSH1 0x20 MSTORE PUSH1 0x40 PUSH1 0x0 KECCAK256 SWAP1 DUP2 SLOAD PUSH9 0x10000000000000000 SWAP3 DUP4 DUP3 LT ISZERO PUSH2 0xC0C JUMPI SWAP1 PUSH2 0xB09 SWAP2 PUSH1 0x1 DUP3 ADD DUP2 SSTORE PUSH2 0x13B9 JUMP JUMPDEST DUP2 SLOAD SWAP1 PUSH1 0x3 SHL SWAP1 DUP6 DUP3 SHL SWAP2 PUSH1 0x0 NOT SWAP1 SHL NOT AND OR SWAP1 SSTORE PUSH1 0x5 SLOAD SWAP2 DUP3 LT ISZERO PUSH2 0xBF8 JUMPI PUSH1 0x1 DUP3 ADD DUP1 PUSH1 0x5 SSTORE DUP3 LT ISZERO PUSH2 0xBE4 JUMPI POP DUP2 SWAP1 PUSH1 0x5 PUSH1 0x0 MSTORE PUSH32 0x36B6384B5ECA791C62761152D0C79BB0604C104A5FB6F4EB0703F3154BB3DB0 ADD SSTORE PUSH1 0x0 DUP1 DUP1 DUP1 PUSH1 0x1 DUP1 PUSH1 0xA0 SHL SUB PUSH1 0x7 SLOAD AND DUP2 SWAP1 CALLVALUE ISZERO PUSH2 0xBDA JUMPI JUMPDEST CALLVALUE SWAP2 CALL ISZERO PUSH2 0x398 JUMPI PUSH32 0x13BF4A3D04FC8DA3635BC863CD644308F0B4950B2F8DF7FA7DEE82562C16AB71 PUSH2 0xBC2 PUSH1 0x0 SWAP4 PUSH2 0xBD1 PUSH1 0x40 MLOAD SWAP3 DUP4 SWAP3 PUSH1 0x40 DUP5 MSTORE PUSH1 0x40 DUP5 ADD SWAP1 PUSH2 0x1596 JUMP JUMPDEST DUP3 DUP2 SUB PUSH1 0x20 DUP5 ADD MSTORE CALLER SWAP8 PUSH2 0x1596 JUMP JUMPDEST SUB SWAP1 LOG4 PUSH1 0x1 DUP1 SSTORE STOP JUMPDEST PUSH2 0x8FC SWAP2 POP PUSH2 0xB7C JUMP JUMPDEST PUSH4 0x4E487B71 PUSH1 0xE0 SHL PUSH1 0x0 SWAP1 DUP2 MSTORE PUSH1 0x32 PUSH1 0x4 MSTORE REVERT JUMPDEST PUSH4 0x4E487B71 PUSH1 0xE0 SHL PUSH1 0x0 SWAP1 DUP2 MSTORE PUSH1 0x41 PUSH1 0x4 MSTORE REVERT JUMPDEST DUP3 PUSH4 0x4E487B71 PUSH1 0xE0 SHL PUSH1 0x0 MSTORE PUSH1 0x41 PUSH1 0x4 MSTORE PUSH1 0x0 REVERT JUMPDEST ADD MLOAD SWAP1 POP DUP9 DUP1 PUSH2 0xABF JUMP JUMPDEST SWAP1 PUSH1 0x7 DUP5 ADD PUSH1 0x0 MSTORE PUSH1 0x20 PUSH1 0x0 KECCAK256 SWAP2 PUSH1 0x0 JUMPDEST PUSH1 0x1F NOT DUP6 AND DUP2 LT PUSH2 0xC84 JUMPI POP SWAP2 DUP4 SWAP2 PUSH1 0x1 SWAP4 PUSH1 0x7 SWAP6 PUSH1 0x1F NOT DUP2 AND LT PUSH2 0xC6B JUMPI JUMPDEST POP POP POP DUP2 SHL ADD SWAP2 ADD SSTORE PUSH2 0xAD5 JUMP JUMPDEST ADD MLOAD PUSH1 0x0 NOT PUSH1 0xF8 DUP5 PUSH1 0x3 SHL AND SHR NOT AND SWAP1 SSTORE DUP9 DUP1 DUP1 PUSH2 0xC5D JUMP JUMPDEST SWAP2 SWAP3 PUSH1 0x20 PUSH1 0x1 DUP2 SWAP3 DUP7 DUP6 ADD MLOAD DUP2 SSTORE ADD SWAP5 ADD SWAP3 ADD PUSH2 0xC3D JUMP JUMPDEST PUSH1 0x7 DUP5 ADD PUSH1 0x0 MSTORE PUSH1 0x20 PUSH1 0x0 KECCAK256 PUSH1 0x1F DUP5 ADD PUSH1 0x5 SHR DUP2 ADD PUSH1 0x20 DUP6 LT PUSH2 0xCDC JUMPI JUMPDEST PUSH1 0x1F DUP4 ADD PUSH1 0x5 SHR DUP3 ADD DUP2 LT PUSH2 0xCD0 JUMPI POP POP PUSH2 0xAA3 JUMP JUMPDEST PUSH1 0x0 DUP2 SSTORE PUSH1 0x1 ADD PUSH2 0xCBA JUMP JUMPDEST POP DUP1 PUSH2 0xCBA JUMP JUMPDEST DUP4 PUSH4 0x4E487B71 PUSH1 0xE0 SHL PUSH1 0x0 MSTORE PUSH1 0x41 PUSH1 0x4 MSTORE PUSH1 0x0 REVERT JUMPDEST ADD MLOAD SWAP1 POP DUP10 DUP1 PUSH2 0x9EB JUMP JUMPDEST SWAP1 PUSH1 0x1 DUP6 ADD PUSH1 0x0 MSTORE PUSH1 0x20 PUSH1 0x0 KECCAK256 SWAP2 PUSH1 0x0 JUMPDEST PUSH1 0x1F NOT DUP6 AND DUP2 LT PUSH2 0xD5E JUMPI POP SWAP2 DUP4 SWAP2 PUSH1 0x1 SWAP4 PUSH1 0xE0 SWAP7 SWAP6 PUSH1 0x1F NOT DUP2 AND LT PUSH2 0xD45 JUMPI JUMPDEST POP POP POP DUP2 SHL ADD PUSH1 0x1 DUP5 ADD SSTORE PUSH2 0xA03 JUMP JUMPDEST ADD MLOAD PUSH1 0x0 NOT PUSH1 0xF8 DUP5 PUSH1 0x3 SHL AND SHR NOT AND SWAP1 SSTORE DUP10 DUP1 DUP1 PUSH2 0xD35 JUMP JUMPDEST SWAP2 SWAP3 PUSH1 0x20 PUSH1 0x1 DUP2 SWAP3 DUP7 DUP6 ADD MLOAD DUP2 SSTORE ADD SWAP5 ADD SWAP3 ADD PUSH2 0xD14 JUMP JUMPDEST PUSH1 0x1 DUP6 ADD PUSH1 0x0 MSTORE PUSH1 0x20 PUSH1 0x0 KECCAK256 PUSH1 0x1F DUP5 ADD PUSH1 0x5 SHR DUP2 ADD PUSH1 0x20 DUP6 LT PUSH2 0xDB6 JUMPI JUMPDEST PUSH1 0x1F DUP4 ADD PUSH1 0x5 SHR DUP3 ADD DUP2 LT PUSH2 0xDAA JUMPI POP POP PUSH2 0x9CE JUMP JUMPDEST PUSH1 0x0 DUP2 SSTORE PUSH1 0x1 ADD PUSH2 0xD94 JUMP JUMPDEST POP DUP1 PUSH2 0xD94 JUMP JUMPDEST DUP5 PUSH4 0x4E487B71 PUSH1 0xE0 SHL PUSH1 0x0 MSTORE PUSH1 0x41 PUSH1 0x4 MSTORE PUSH1 0x0 REVERT JUMPDEST ADD MLOAD SWAP1 POP DUP9 DUP1 PUSH2 0x98C JUMP JUMPDEST SWAP3 POP DUP5 PUSH1 0x0 MSTORE PUSH1 0x20 PUSH1 0x0 KECCAK256 SWAP1 PUSH1 0x0 SWAP4 JUMPDEST PUSH1 0x1F NOT DUP5 AND DUP6 LT PUSH2 0xE2E JUMPI PUSH1 0x1 SWAP5 POP DUP4 PUSH1 0x1F NOT DUP2 AND LT PUSH2 0xE15 JUMPI JUMPDEST POP POP POP DUP2 SHL ADD DUP3 SSTORE PUSH2 0x9A1 JUMP JUMPDEST ADD MLOAD PUSH1 0x0 NOT PUSH1 0xF8 DUP5 PUSH1 0x3 SHL AND SHR NOT AND SWAP1 SSTORE DUP9 DUP1 DUP1 PUSH2 0xE08 JUMP JUMPDEST DUP2 DUP2 ADD MLOAD DUP4 SSTORE PUSH1 0x20 SWAP5 DUP6 ADD SWAP5 PUSH1 0x1 SWAP1 SWAP4 ADD SWAP3 SWAP1 SWAP2 ADD SWAP1 PUSH2 0xDED JUMP JUMPDEST SWAP1 SWAP2 POP DUP5 PUSH1 0x0 MSTORE PUSH1 0x20 PUSH1 0x0 KECCAK256 PUSH1 0x1F DUP5 ADD PUSH1 0x5 SHR DUP2 ADD PUSH1 0x20 DUP6 LT PUSH2 0xE92 JUMPI JUMPDEST SWAP1 DUP5 SWAP4 SWAP3 SWAP2 JUMPDEST PUSH1 0x1F DUP4 ADD PUSH1 0x5 SHR DUP3 ADD DUP2 LT PUSH2 0xE83 JUMPI POP POP PUSH2 0x975 JUMP JUMPDEST PUSH1 0x0 DUP2 SSTORE DUP6 SWAP5 POP PUSH1 0x1 ADD PUSH2 0xE6D JUMP JUMPDEST POP DUP1 PUSH2 0xE67 JUMP JUMPDEST PUSH7 0x20657869737473 PUSH1 0xC8 SHL PUSH1 0x84 SWAP3 PUSH32 0x4173736574546F6B656E466163746F72793A20417373657420616C7265616479 DUP8 SWAP4 PUSH1 0x27 PUSH1 0x40 MLOAD SWAP6 PUSH3 0x461BCD PUSH1 0xE5 SHL DUP8 MSTORE PUSH1 0x20 PUSH1 0x4 DUP9 ADD MSTORE DUP7 ADD MSTORE DUP5 ADD MSTORE DUP3 ADD MSTORE REVERT JUMPDEST DUP4 PUSH18 0x79206D75737420626520706F736974697665 PUSH1 0x70 SHL PUSH1 0x84 SWAP3 PUSH32 0x4173736574546F6B656E466163746F72793A20496E697469616C20737570706C DUP9 PUSH1 0x32 PUSH1 0x40 MLOAD SWAP6 PUSH3 0x461BCD PUSH1 0xE5 SHL DUP8 MSTORE PUSH1 0x20 PUSH1 0x4 DUP9 ADD MSTORE DUP7 ADD MSTORE DUP5 ADD MSTORE DUP3 ADD MSTORE REVERT JUMPDEST DUP4 PUSH2 0x1959 PUSH1 0xF2 SHL PUSH1 0x84 SWAP3 PUSH32 0x4173736574546F6B656E466163746F72793A2053796D626F6C20726571756972 DUP9 PUSH1 0x22 PUSH1 0x40 MLOAD SWAP6 PUSH3 0x461BCD PUSH1 0xE5 SHL DUP8 MSTORE PUSH1 0x20 PUSH1 0x4 DUP9 ADD MSTORE DUP7 ADD MSTORE DUP5 ADD MSTORE DUP3 ADD MSTORE REVERT JUMPDEST PUSH1 0x40 MLOAD PUSH3 0x461BCD PUSH1 0xE5 SHL DUP2 MSTORE PUSH1 0x20 PUSH1 0x4 DUP3 ADD DUP2 SWAP1 MSTORE DUP2 DUP7 ADD MSTORE PUSH32 0x4173736574546F6B656E466163746F72793A204E616D65207265717569726564 DUP2 DUP8 ADD MSTORE REVERT JUMPDEST DUP4 PUSH3 0x666565 PUSH1 0xE8 SHL PUSH1 0x84 SWAP3 PUSH32 0x4173736574546F6B656E466163746F72793A20496E73756666696369656E7420 DUP9 PUSH1 0x23 PUSH1 0x40 MLOAD SWAP6 PUSH3 0x461BCD PUSH1 0xE5 SHL DUP8 MSTORE PUSH1 0x20 PUSH1 0x4 DUP9 ADD MSTORE DUP7 ADD MSTORE DUP5 ADD MSTORE DUP3 ADD MSTORE REVERT JUMPDEST PUSH1 0x40 MLOAD PUSH4 0x3EE5AEB5 PUSH1 0xE0 SHL DUP2 MSTORE PUSH1 0x4 SWAP1 REVERT JUMPDEST CALLVALUE PUSH2 0x2A7 JUMPI PUSH1 0x0 CALLDATASIZE PUSH1 0x3 NOT ADD SLT PUSH2 0x2A7 JUMPI PUSH1 0x20 PUSH1 0xFF PUSH1 0x2 SLOAD AND PUSH1 0x40 MLOAD SWAP1 ISZERO ISZERO DUP2 MSTORE RETURN JUMPDEST CALLVALUE PUSH2 0x2A7 JUMPI PUSH1 0x20 CALLDATASIZE PUSH1 0x3 NOT ADD SLT PUSH2 0x2A7 JUMPI PUSH1 0x4 CALLDATALOAD PUSH1 0x5 SLOAD DUP2 LT ISZERO PUSH2 0x2A7 JUMPI PUSH1 0x20 SWAP1 PUSH1 0x5 PUSH1 0x0 MSTORE PUSH32 0x36B6384B5ECA791C62761152D0C79BB0604C104A5FB6F4EB0703F3154BB3DB0 ADD SLOAD PUSH1 0x40 MLOAD SWAP1 DUP2 MSTORE RETURN JUMPDEST CALLVALUE PUSH2 0x2A7 JUMPI PUSH1 0x40 CALLDATASIZE PUSH1 0x3 NOT ADD SLT PUSH2 0x2A7 JUMPI PUSH2 0x10C2 PUSH2 0x13A3 JUMP JUMPDEST PUSH1 0x1 PUSH1 0x1 PUSH1 0xA0 SHL SUB AND PUSH1 0x0 SWAP1 DUP2 MSTORE PUSH1 0x4 PUSH1 0x20 MSTORE PUSH1 0x40 SWAP1 KECCAK256 DUP1 SLOAD PUSH1 0x24 CALLDATALOAD SWAP2 SWAP1 DUP3 LT ISZERO PUSH2 0x2A7 JUMPI PUSH1 0x20 SWAP2 PUSH2 0x10F3 SWAP2 PUSH2 0x13B9 JUMP JUMPDEST SWAP1 SLOAD PUSH1 0x40 MLOAD SWAP2 PUSH1 0x3 SHL SHR DUP2 MSTORE RETURN JUMPDEST CALLVALUE PUSH2 0x2A7 JUMPI PUSH1 0x0 CALLDATASIZE PUSH1 0x3 NOT ADD SLT PUSH2 0x2A7 JUMPI PUSH1 0x7 SLOAD PUSH1 0x40 MLOAD PUSH1 0x1 PUSH1 0x1 PUSH1 0xA0 SHL SUB SWAP1 SWAP2 AND DUP2 MSTORE PUSH1 0x20 SWAP1 RETURN JUMPDEST CALLVALUE PUSH2 0x2A7 JUMPI PUSH1 0x0 CALLDATASIZE PUSH1 0x3 NOT ADD SLT PUSH2 0x2A7 JUMPI PUSH2 0x1143 PUSH2 0x15BB JUMP JUMPDEST PUSH1 0x2 SLOAD PUSH1 0xFF DUP2 AND ISZERO PUSH2 0x1182 JUMPI PUSH1 0xFF NOT AND PUSH1 0x2 SSTORE PUSH32 0x5DB9EE0A495BF2E6FF9C91A7834C1BA4FDD244A5E8AA4E537BD38AEAE4B073AA PUSH1 0x20 PUSH1 0x40 MLOAD CALLER DUP2 MSTORE LOG1 STOP JUMPDEST PUSH1 0x40 MLOAD PUSH4 0x8DFC202B PUSH1 0xE0 SHL DUP2 MSTORE PUSH1 0x4 SWAP1 REVERT JUMPDEST CALLVALUE PUSH2 0x2A7 JUMPI PUSH1 0x40 CALLDATASIZE PUSH1 0x3 NOT ADD SLT PUSH2 0x2A7 JUMPI PUSH2 0x11AD PUSH2 0x138D JUMP JUMPDEST CALLER PUSH1 0x1 PUSH1 0x1 PUSH1 0xA0 SHL SUB DUP3 AND SUB PUSH2 0x11C9 JUMPI PUSH2 0x3EC SWAP1 PUSH1 0x4 CALLDATALOAD PUSH2 0x1699 JUMP JUMPDEST PUSH1 0x40 MLOAD PUSH4 0x334BD919 PUSH1 0xE1 SHL DUP2 MSTORE PUSH1 0x4 SWAP1 REVERT JUMPDEST CALLVALUE PUSH2 0x2A7 JUMPI PUSH1 0x40 CALLDATASIZE PUSH1 0x3 NOT ADD SLT PUSH2 0x2A7 JUMPI PUSH2 0x3EC PUSH1 0x4 CALLDATALOAD PUSH2 0x11FA PUSH2 0x138D JUMP JUMPDEST SWAP1 DUP1 PUSH1 0x0 MSTORE PUSH1 0x0 PUSH1 0x20 MSTORE PUSH2 0x1215 PUSH1 0x1 PUSH1 0x40 PUSH1 0x0 KECCAK256 ADD SLOAD PUSH2 0x15F5 JUMP JUMPDEST PUSH2 0x161B JUMP JUMPDEST CALLVALUE PUSH2 0x2A7 JUMPI PUSH1 0x0 CALLDATASIZE PUSH1 0x3 NOT ADD SLT PUSH2 0x2A7 JUMPI PUSH1 0x40 MLOAD DUP1 PUSH1 0x5 SLOAD SWAP2 DUP3 DUP2 MSTORE PUSH1 0x20 DUP1 SWAP2 ADD SWAP3 PUSH1 0x5 PUSH1 0x0 MSTORE PUSH32 0x36B6384B5ECA791C62761152D0C79BB0604C104A5FB6F4EB0703F3154BB3DB0 SWAP2 PUSH1 0x0 SWAP1 JUMPDEST DUP3 DUP3 LT PUSH2 0x127E JUMPI PUSH2 0x2A3 DUP6 PUSH2 0x76D DUP2 DUP10 SUB DUP3 PUSH2 0x141A JUMP JUMPDEST DUP4 SLOAD DUP7 MSTORE SWAP5 DUP6 ADD SWAP5 PUSH1 0x1 SWAP4 DUP5 ADD SWAP4 SWAP1 SWAP2 ADD SWAP1 PUSH2 0x1267 JUMP JUMPDEST CALLVALUE PUSH2 0x2A7 JUMPI PUSH1 0x20 CALLDATASIZE PUSH1 0x3 NOT ADD SLT PUSH2 0x2A7 JUMPI PUSH1 0x4 CALLDATALOAD PUSH1 0x0 MSTORE PUSH1 0x0 PUSH1 0x20 MSTORE PUSH1 0x20 PUSH1 0x1 PUSH1 0x40 PUSH1 0x0 KECCAK256 ADD SLOAD PUSH1 0x40 MLOAD SWAP1 DUP2 MSTORE RETURN JUMPDEST CALLVALUE PUSH2 0x2A7 JUMPI PUSH1 0x0 CALLDATASIZE PUSH1 0x3 NOT ADD SLT PUSH2 0x2A7 JUMPI PUSH1 0x20 PUSH1 0x40 MLOAD PUSH32 0x442A94F1A1FAC79AF32856AF2A64F63648CFA2EF3B98610A5BB7CBEC4CEE6985 DUP2 MSTORE RETURN JUMPDEST CALLVALUE PUSH2 0x2A7 JUMPI PUSH1 0x20 CALLDATASIZE PUSH1 0x3 NOT ADD SLT PUSH2 0x2A7 JUMPI PUSH1 0x4 CALLDATALOAD SWAP1 PUSH4 0xFFFFFFFF PUSH1 0xE0 SHL DUP3 AND DUP1 SWAP3 SUB PUSH2 0x2A7 JUMPI PUSH1 0x20 SWAP2 PUSH4 0x7965DB0B PUSH1 0xE0 SHL DUP2 EQ SWAP1 DUP2 ISZERO PUSH2 0x1341 JUMPI JUMPDEST POP ISZERO ISZERO DUP2 MSTORE RETURN JUMPDEST PUSH4 0x1FFC9A7 PUSH1 0xE0 SHL EQ SWAP1 POP DUP4 PUSH2 0x133A JUMP JUMPDEST PUSH1 0x20 SWAP1 DUP2 PUSH1 0x40 DUP2 DUP4 ADD SWAP3 DUP3 DUP2 MSTORE DUP6 MLOAD DUP1 SWAP5 MSTORE ADD SWAP4 ADD SWAP2 PUSH1 0x0 JUMPDEST DUP3 DUP2 LT PUSH2 0x1379 JUMPI POP POP POP POP SWAP1 JUMP JUMPDEST DUP4 MLOAD DUP6 MSTORE SWAP4 DUP2 ADD SWAP4 SWAP3 DUP2 ADD SWAP3 PUSH1 0x1 ADD PUSH2 0x136B JUMP JUMPDEST PUSH1 0x24 CALLDATALOAD SWAP1 PUSH1 0x1 PUSH1 0x1 PUSH1 0xA0 SHL SUB DUP3 AND DUP3 SUB PUSH2 0x2A7 JUMPI JUMP JUMPDEST PUSH1 0x4 CALLDATALOAD SWAP1 PUSH1 0x1 PUSH1 0x1 PUSH1 0xA0 SHL SUB DUP3 AND DUP3 SUB PUSH2 0x2A7 JUMPI JUMP JUMPDEST DUP1 SLOAD DUP3 LT ISZERO PUSH2 0x13D1 JUMPI PUSH1 0x0 MSTORE PUSH1 0x20 PUSH1 0x0 KECCAK256 ADD SWAP1 PUSH1 0x0 SWAP1 JUMP JUMPDEST PUSH4 0x4E487B71 PUSH1 0xE0 SHL PUSH1 0x0 MSTORE PUSH1 0x32 PUSH1 0x4 MSTORE PUSH1 0x24 PUSH1 0x0 REVERT JUMPDEST PUSH2 0x100 DUP2 ADD SWAP1 DUP2 LT PUSH8 0xFFFFFFFFFFFFFFFF DUP3 GT OR PUSH2 0x1404 JUMPI PUSH1 0x40 MSTORE JUMP JUMPDEST PUSH4 0x4E487B71 PUSH1 0xE0 SHL PUSH1 0x0 MSTORE PUSH1 0x41 PUSH1 0x4 MSTORE PUSH1 0x24 PUSH1 0x0 REVERT JUMPDEST SWAP1 PUSH1 0x1F DUP1 NOT SWAP2 ADD AND DUP2 ADD SWAP1 DUP2 LT PUSH8 0xFFFFFFFFFFFFFFFF DUP3 GT OR PUSH2 0x1404 JUMPI PUSH1 0x40 MSTORE JUMP JUMPDEST DUP2 PUSH1 0x1F DUP3 ADD SLT ISZERO PUSH2 0x2A7 JUMPI DUP1 CALLDATALOAD SWAP1 PUSH8 0xFFFFFFFFFFFFFFFF DUP3 GT PUSH2 0x1404 JUMPI PUSH1 0x40 MLOAD SWAP3 PUSH2 0x1471 PUSH1 0x1F DUP5 ADD PUSH1 0x1F NOT AND PUSH1 0x20 ADD DUP6 PUSH2 0x141A JUMP JUMPDEST DUP3 DUP5 MSTORE PUSH1 0x20 DUP4 DUP4 ADD ADD GT PUSH2 0x2A7 JUMPI DUP2 PUSH1 0x0 SWAP3 PUSH1 0x20 DUP1 SWAP4 ADD DUP4 DUP7 ADD CALLDATACOPY DUP4 ADD ADD MSTORE SWAP1 JUMP JUMPDEST SWAP1 PUSH1 0x1 DUP3 DUP2 SHR SWAP3 AND DUP1 ISZERO PUSH2 0x14C3 JUMPI JUMPDEST PUSH1 0x20 DUP4 LT EQ PUSH2 0x14AD JUMPI JUMP JUMPDEST PUSH4 0x4E487B71 PUSH1 0xE0 SHL PUSH1 0x0 MSTORE PUSH1 0x22 PUSH1 0x4 MSTORE PUSH1 0x24 PUSH1 0x0 REVERT JUMPDEST SWAP2 PUSH1 0x7F AND SWAP2 PUSH2 0x14A2 JUMP JUMPDEST SWAP1 PUSH1 0x40 MLOAD SWAP2 DUP3 PUSH1 0x0 DUP3 SLOAD SWAP3 PUSH2 0x14E1 DUP5 PUSH2 0x1493 JUMP JUMPDEST SWAP1 DUP2 DUP5 MSTORE PUSH1 0x1 SWAP5 DUP6 DUP2 AND SWAP1 DUP2 PUSH1 0x0 EQ PUSH2 0x1550 JUMPI POP PUSH1 0x1 EQ PUSH2 0x150D JUMPI JUMPDEST POP POP PUSH2 0x150B SWAP3 POP SUB DUP4 PUSH2 0x141A JUMP JUMPDEST JUMP JUMPDEST SWAP1 SWAP4 SWAP2 POP PUSH1 0x0 MSTORE PUSH1 0x20 SWAP1 DUP2 PUSH1 0x0 KECCAK256 SWAP4 PUSH1 0x0 SWAP2 JUMPDEST DUP2 DUP4 LT PUSH2 0x1538 JUMPI POP POP PUSH2 0x150B SWAP4 POP DUP3 ADD ADD CODESIZE DUP1 PUSH2 0x14FD JUMP JUMPDEST DUP6 SLOAD DUP9 DUP5 ADD DUP6 ADD MSTORE SWAP5 DUP6 ADD SWAP5 DUP8 SWAP5 POP SWAP2 DUP4 ADD SWAP2 PUSH2 0x1520 JUMP JUMPDEST SWAP2 POP POP PUSH2 0x150B SWAP5 POP PUSH1 0x20 SWAP3 POP PUSH1 0xFF NOT AND DUP3 DUP5 ADD MSTORE ISZERO ISZERO PUSH1 0x5 SHL DUP3 ADD ADD CODESIZE DUP1 PUSH2 0x14FD JUMP JUMPDEST PUSH1 0x0 JUMPDEST DUP4 DUP2 LT PUSH2 0x1586 JUMPI POP POP PUSH1 0x0 SWAP2 ADD MSTORE JUMP JUMPDEST DUP2 DUP2 ADD MLOAD DUP4 DUP3 ADD MSTORE PUSH1 0x20 ADD PUSH2 0x1576 JUMP JUMPDEST SWAP1 PUSH1 0x20 SWAP2 PUSH2 0x15AF DUP2 MLOAD DUP1 SWAP3 DUP2 DUP6 MSTORE DUP6 DUP1 DUP7 ADD SWAP2 ADD PUSH2 0x1573 JUMP JUMPDEST PUSH1 0x1F ADD PUSH1 0x1F NOT AND ADD ADD SWAP1 JUMP JUMPDEST CALLER PUSH1 0x0 SWAP1 DUP2 MSTORE PUSH32 0xAD3228B676F7D3CD4284A5443F17F1962B36E491B30A40B2405849E597BA5FB5 PUSH1 0x20 MSTORE PUSH1 0x40 DUP2 KECCAK256 SLOAD PUSH1 0xFF AND ISZERO PUSH2 0x6B3 JUMPI POP JUMP JUMPDEST DUP1 PUSH1 0x0 MSTORE PUSH1 0x0 PUSH1 0x20 MSTORE PUSH1 0x40 PUSH1 0x0 KECCAK256 CALLER PUSH1 0x0 MSTORE PUSH1 0x20 MSTORE PUSH1 0xFF PUSH1 0x40 PUSH1 0x0 KECCAK256 SLOAD AND ISZERO PUSH2 0x6B3 JUMPI POP JUMP JUMPDEST SWAP1 PUSH1 0x0 SWAP2 DUP1 DUP4 MSTORE DUP3 PUSH1 0x20 MSTORE PUSH1 0x40 DUP4 KECCAK256 SWAP2 PUSH1 0x1 DUP1 PUSH1 0xA0 SHL SUB AND SWAP2 DUP3 DUP5 MSTORE PUSH1 0x20 MSTORE PUSH1 0xFF PUSH1 0x40 DUP5 KECCAK256 SLOAD AND ISZERO PUSH1 0x0 EQ PUSH2 0x1694 JUMPI DUP1 DUP4 MSTORE DUP3 PUSH1 0x20 MSTORE PUSH1 0x40 DUP4 KECCAK256 DUP3 DUP5 MSTORE PUSH1 0x20 MSTORE PUSH1 0x40 DUP4 KECCAK256 PUSH1 0x1 PUSH1 0xFF NOT DUP3 SLOAD AND OR SWAP1 SSTORE PUSH32 0x2F8788117E7EFF1D82E926EC794901D17C78024A50270940304540A733656F0D CALLER SWAP4 DUP1 LOG4 PUSH1 0x1 SWAP1 JUMP JUMPDEST POP POP SWAP1 JUMP JUMPDEST SWAP1 PUSH1 0x0 SWAP2 DUP1 DUP4 MSTORE DUP3 PUSH1 0x20 MSTORE PUSH1 0x40 DUP4 KECCAK256 SWAP2 PUSH1 0x1 DUP1 PUSH1 0xA0 SHL SUB AND SWAP2 DUP3 DUP5 MSTORE PUSH1 0x20 MSTORE PUSH1 0xFF PUSH1 0x40 DUP5 KECCAK256 SLOAD AND PUSH1 0x0 EQ PUSH2 0x1694 JUMPI DUP1 DUP4 MSTORE DUP3 PUSH1 0x20 MSTORE PUSH1 0x40 DUP4 KECCAK256 DUP3 DUP5 MSTORE PUSH1 0x20 MSTORE PUSH1 0x40 DUP4 KECCAK256 PUSH1 0xFF NOT DUP2 SLOAD AND SWAP1 SSTORE PUSH32 0xF6391F5C32D9C69D2A47EA670B442974B53935D1EDC7FD64EB21E047A839171B CALLER SWAP4 DUP1 LOG4 PUSH1 0x1 SWAP1 JUMP JUMPDEST PUSH1 0xFF PUSH1 0x2 SLOAD AND PUSH2 0x171A JUMPI JUMP JUMPDEST PUSH1 0x40 MLOAD PUSH4 0xD93C0665 PUSH1 0xE0 SHL DUP2 MSTORE PUSH1 0x4 SWAP1 REVERT INVALID LOG2 PUSH5 0x6970667358 0x22 SLT KECCAK256 RETURN 0xCE 0xB2 AND SWAP12 0xA5 SWAP10 0xE PUSH14 0xB7A715477D83AA8071A16D86A344 0xE5 DUP7 0xD8 KECCAK256 0xC NOT RETURNDATACOPY STATICCALL 0xE4 PUSH5 0x736F6C6343 STOP ADDMOD EQ STOP CALLER 0x2F DUP8 DUP9 GT PUSH31 0x7EFF1D82E926EC794901D17C78024A50270940304540A733656F0D00000000 "},"methodIdentifiers":{"COMPLIANCE_ROLE()":"062d3bd7","DEFAULT_ADMIN_ROLE()":"a217fddf","ISSUER_ROLE()":"82aefa24","allAssets(uint256)":"578e5c22","assets(bytes32)":"9fda5b66","createAssetToken(string,string,uint256,string)":"6b07b811","creationFee()":"dce0b4e4","emergencyWithdraw()":"db2e21bc","feeRecipient()":"46904840","getAllAssets()":"2acada4d","getAssetInfo(bytes32)":"fefaad5d","getAssetsByIssuer(address)":"77485eca","getRoleAdmin(bytes32)":"248a9ca3","grantRole(bytes32,address)":"2f2ff15d","hasRole(bytes32,address)":"91d14854","issuerAssets(address,uint256)":"529b4976","kycContract()":"6d3123eb","pause()":"8456cb59","paused()":"5c975abb","renounceRole(bytes32,address)":"36568abe","revokeRole(bytes32,address)":"d547741f","setAssetStatus(bytes32,bool)":"838b1af8","supportsInterface(bytes4)":"01ffc9a7","unpause()":"3f4ba83a","updateCreationFee(uint256)":"6fa23795","updateFeeRecipient(address)":"f160d369"}},"storageLayout":{"storage":[{"astId":26,"contract":"contracts/AssetTokenFactory.sol:AssetTokenFactory","label":"_roles","offset":0,"slot":"0","type":"t_mapping(t_bytes32,t_struct(RoleData)21_storage)"},{"astId":527,"contract":"contracts/AssetTokenFactory.sol:AssetTokenFactory","label":"_status","offset":0,"slot":"1","type":"t_uint256"},{"astId":417,"contract":"contracts/AssetTokenFactory.sol:AssetTokenFactory","label":"_paused","offset":0,"slot":"2","type":"t_bool"},{"astId":645,"contract":"contracts/AssetTokenFactory.sol:AssetTokenFactory","label":"kycContract","offset":1,"slot":"2","type":"t_address"},{"astId":667,"contract":"contracts/AssetTokenFactory.sol:AssetTokenFactory","label":"assets","offset":0,"slot":"3","type":"t_mapping(t_bytes32,t_struct(AssetInfo)662_storage)"},{"astId":672,"contract":"contracts/AssetTokenFactory.sol:AssetTokenFactory","label":"issuerAssets","offset":0,"slot":"4","type":"t_mapping(t_address,t_array(t_bytes32)dyn_storage)"},{"astId":675,"contract":"contracts/AssetTokenFactory.sol:AssetTokenFactory","label":"allAssets","offset":0,"slot":"5","type":"t_array(t_bytes32)dyn_storage"},{"astId":678,"contract":"contracts/AssetTokenFactory.sol:AssetTokenFactory","label":"creationFee","offset":0,"slot":"6","type":"t_uint256"},{"astId":680,"contract":"contracts/AssetTokenFactory.sol:AssetTokenFactory","label":"feeRecipient","offset":0,"slot":"7","type":"t_address"}],"types":{"t_address":{"encoding":"inplace","label":"address","numberOfBytes":"20"},"t_array(t_bytes32)dyn_storage":{"base":"t_bytes32","encoding":"dynamic_array","label":"bytes32[]","numberOfBytes":"32"},"t_bool":{"encoding":"inplace","label":"bool","numberOfBytes":"1"},"t_bytes32":{"encoding":"inplace","label":"bytes32","numberOfBytes":"32"},"t_mapping(t_address,t_array(t_bytes32)dyn_storage)":{"encoding":"mapping","key":"t_address","label":"mapping(address => bytes32[])","numberOfBytes":"32","value":"t_array(t_bytes32)dyn_storage"},"t_mapping(t_address,t_bool)":{"encoding":"mapping","key":"t_address","label":"mapping(address => bool)","numberOfBytes":"32","value":"t_bool"},"t_mapping(t_bytes32,t_struct(AssetInfo)662_storage)":{"encoding":"mapping","key":"t_bytes32","label":"mapping(bytes32 => struct AssetTokenFactory.AssetInfo)","numberOfBytes":"32","value":"t_struct(AssetInfo)662_storage"},"t_mapping(t_bytes32,t_struct(RoleData)21_storage)":{"encoding":"mapping","key":"t_bytes32","label":"mapping(bytes32 => struct AccessControl.RoleData)","numberOfBytes":"32","value":"t_struct(RoleData)21_storage"},"t_string_storage":{"encoding":"bytes","label":"string","numberOfBytes":"32"},"t_struct(AssetInfo)662_storage":{"encoding":"inplace","label":"struct AssetTokenFactory.AssetInfo","members":[{"astId":647,"contract":"contracts/AssetTokenFactory.sol:AssetTokenFactory","label":"name","offset":0,"slot":"0","type":"t_string_storage"},{"astId":649,"contract":"contracts/AssetTokenFactory.sol:AssetTokenFactory","label":"symbol","offset":0,"slot":"1","type":"t_string_storage"},{"astId":651,"contract":"contracts/AssetTokenFactory.sol:AssetTokenFactory","label":"tokenAddress","offset":0,"slot":"2","type":"t_address"},{"astId":653,"contract":"contracts/AssetTokenFactory.sol:AssetTokenFactory","label":"issuer","offset":0,"slot":"3","type":"t_address"},{"astId":655,"contract":"contracts/AssetTokenFactory.sol:AssetTokenFactory","label":"totalSupply","offset":0,"slot":"4","type":"t_uint256"},{"astId":657,"contract":"contracts/AssetTokenFactory.sol:AssetTokenFactory","label":"createdAt","offset":0,"slot":"5","type":"t_uint256"},{"astId":659,"contract":"contracts/AssetTokenFactory.sol:AssetTokenFactory","label":"isActive","offset":0,"slot":"6","type":"t_bool"},{"astId":661,"contract":"contracts/AssetTokenFactory.sol:AssetTokenFactory","label":"metadataURI","offset":0,"slot":"7","type":"t_string_storage"}],"numberOfBytes":"256"},"t_struct(RoleData)21_storage":{"encoding":"inplace","label":"struct AccessControl.RoleData","members":[{"astId":18,"contract":"contracts/AssetTokenFactory.sol:AssetTokenFactory","label":"hasRole","offset":0,"slot":"0","type":"t_mapping(t_address,t_bool)"},{"astId":20,"contract":"contracts/AssetTokenFactory.sol:AssetTokenFactory","label":"adminRole","offset":0,"slot":"1","type":"t_bytes32"}],"numberOfBytes":"64"},"t_uint256":{"encoding":"inplace","label":"uint256","numberOfBytes":"32"}}}}}}