{
  "_format": "hh-sol-artifact-1",
  "contractName": "AssetToken",
  "sourceName": "contracts/AssetToken.sol",
  "abi": [
    {
      "inputs": [
        {
          "internalType": "string",
          "name": "name",
          "type": "string"
        },
        {
          "internalType": "string",
          "name": "symbol",
          "type": "string"
        },
        {
          "internalType": "address",
          "name": "_issuer",
          "type": "address"
        },
        {
          "internalType": "address",
          "name": "_kycContract",
          "type": "address"
        },
        {
          "internalType": "address",
          "name": "_complianceOfficer",
          "type": "address"
        }
      ],
      "stateMutability": "nonpayable",
      "type": "constructor"
    },
    {
      "inputs": [],
      "name": "AccessControlBadConfirmation",
      "type": "error"
    },
    {
      "inputs": [
        {
          "internalType": "address",
          "name": "account",
          "type": "address"
        },
        {
          "internalType": "bytes32",
          "name": "neededRole",
          "type": "bytes32"
        }
      ],
      "name": "AccessControlUnauthorizedAccount",
      "type": "error"
    },
    {
      "inputs": [
        {
          "internalType": "address",
          "name": "spender",
          "type": "address"
        },
        {
          "internalType": "uint256",
          "name": "allowance",
          "type": "uint256"
        },
        {
          "internalType": "uint256",
          "name": "needed",
          "type": "uint256"
        }
      ],
      "name": "ERC20InsufficientAllowance",
      "type": "error"
    },
    {
      "inputs": [
        {
          "internalType": "address",
          "name": "sender",
          "type": "address"
        },
        {
          "internalType": "uint256",
          "name": "balance",
          "type": "uint256"
        },
        {
          "internalType": "uint256",
          "name": "needed",
          "type": "uint256"
        }
      ],
      "name": "ERC20InsufficientBalance",
      "type": "error"
    },
    {
      "inputs": [
        {
          "internalType": "address",
          "name": "approver",
          "type": "address"
        }
      ],
      "name": "ERC20InvalidApprover",
      "type": "error"
    },
    {
      "inputs": [
        {
          "internalType": "address",
          "name": "receiver",
          "type": "address"
        }
      ],
      "name": "ERC20InvalidReceiver",
      "type": "error"
    },
    {
      "inputs": [
        {
          "internalType": "address",
          "name": "sender",
          "type": "address"
        }
      ],
      "name": "ERC20InvalidSender",
      "type": "error"
    },
    {
      "inputs": [
        {
          "internalType": "address",
          "name": "spender",
          "type": "address"
        }
      ],
      "name": "ERC20InvalidSpender",
      "type": "error"
    },
    {
      "inputs": [],
      "name": "EnforcedPause",
      "type": "error"
    },
    {
      "inputs": [],
      "name": "ExpectedPause",
      "type": "error"
    },
    {
      "inputs": [],
      "name": "ReentrancyGuardReentrantCall",
      "type": "error"
    },
    {
      "anonymous": false,
      "inputs": [
        {
          "indexed": true,
          "internalType": "address",
          "name": "owner",
          "type": "address"
        },
        {
          "indexed": true,
          "internalType": "address",
          "name": "spender",
          "type": "address"
        },
        {
          "indexed": false,
          "internalType": "uint256",
          "name": "value",
          "type": "uint256"
        }
      ],
      "name": "Approval",
      "type": "event"
    },
    {
      "anonymous": false,
      "inputs": [
        {
          "indexed": true,
          "internalType": "address",
          "name": "user",
          "type": "address"
        },
        {
          "indexed": false,
          "internalType": "bool",
          "name": "verified",
          "type": "bool"
        },
        {
          "indexed": false,
          "internalType": "uint256",
          "name": "expirationDate",
          "type": "uint256"
        }
      ],
      "name": "KYCStatusUpdated",
      "type": "event"
    },
    {
      "anonymous": false,
      "inputs": [
        {
          "indexed": false,
          "internalType": "address",
          "name": "account",
          "type": "address"
        }
      ],
      "name": "Paused",
      "type": "event"
    },
    {
      "anonymous": false,
      "inputs": [
        {
          "indexed": true,
          "internalType": "bytes32",
          "name": "role",
          "type": "bytes32"
        },
        {
          "indexed": true,
          "internalType": "bytes32",
          "name": "previousAdminRole",
          "type": "bytes32"
        },
        {
          "indexed": true,
          "internalType": "bytes32",
          "name": "newAdminRole",
          "type": "bytes32"
        }
      ],
      "name": "RoleAdminChanged",
      "type": "event"
    },
    {
      "anonymous": false,
      "inputs": [
        {
          "indexed": true,
          "internalType": "bytes32",
          "name": "role",
          "type": "bytes32"
        },
        {
          "indexed": true,
          "internalType": "address",
          "name": "account",
          "type": "address"
        },
        {
          "indexed": true,
          "internalType": "address",
          "name": "sender",
          "type": "address"
        }
      ],
      "name": "RoleGranted",
      "type": "event"
    },
    {
      "anonymous": false,
      "inputs": [
        {
          "indexed": true,
          "internalType": "bytes32",
          "name": "role",
          "type": "bytes32"
        },
        {
          "indexed": true,
          "internalType": "address",
          "name": "account",
          "type": "address"
        },
        {
          "indexed": true,
          "internalType": "address",
          "name": "sender",
          "type": "address"
        }
      ],
      "name": "RoleRevoked",
      "type": "event"
    },
    {
      "anonymous": false,
      "inputs": [
        {
          "indexed": true,
          "internalType": "address",
          "name": "from",
          "type": "address"
        },
        {
          "indexed": true,
          "internalType": "address",
          "name": "to",
          "type": "address"
        },
        {
          "indexed": false,
          "internalType": "uint256",
          "name": "value",
          "type": "uint256"
        }
      ],
      "name": "Transfer",
      "type": "event"
    },
    {
      "anonymous": false,
      "inputs": [
        {
          "indexed": false,
          "internalType": "address",
          "name": "account",
          "type": "address"
        }
      ],
      "name": "Unpaused",
      "type": "event"
    },
    {
      "inputs": [],
      "name": "COMPLIANCE_ROLE",
      "outputs": [
        {
          "internalType": "bytes32",
          "name": "",
          "type": "bytes32"
        }
      ],
      "stateMutability": "view",
      "type": "function"
    },
    {
      "inputs": [],
      "name": "DEFAULT_ADMIN_ROLE",
      "outputs": [
        {
          "internalType": "bytes32",
          "name": "",
          "type": "bytes32"
        }
      ],
      "stateMutability": "view",
      "type": "function"
    },
    {
      "inputs": [],
      "name": "ISSUER_ROLE",
      "outputs": [
        {
          "internalType": "bytes32",
          "name": "",
          "type": "bytes32"
        }
      ],
      "stateMutability": "view",
      "type": "function"
    },
    {
      "inputs": [
        {
          "internalType": "address",
          "name": "owner",
          "type": "address"
        },
        {
          "internalType": "address",
          "name": "spender",
          "type": "address"
        }
      ],
      "name": "allowance",
      "outputs": [
        {
          "internalType": "uint256",
          "name": "",
          "type": "uint256"
        }
      ],
      "stateMutability": "view",
      "type": "function"
    },
    {
      "inputs": [
        {
          "internalType": "address",
          "name": "spender",
          "type": "address"
        },
        {
          "internalType": "uint256",
          "name": "value",
          "type": "uint256"
        }
      ],
      "name": "approve",
      "outputs": [
        {
          "internalType": "bool",
          "name": "",
          "type": "bool"
        }
      ],
      "stateMutability": "nonpayable",
      "type": "function"
    },
    {
      "inputs": [
        {
          "internalType": "address",
          "name": "account",
          "type": "address"
        }
      ],
      "name": "balanceOf",
      "outputs": [
        {
          "internalType": "uint256",
          "name": "",
          "type": "uint256"
        }
      ],
      "stateMutability": "view",
      "type": "function"
    },
    {
      "inputs": [],
      "name": "complianceOfficer",
      "outputs": [
        {
          "internalType": "address",
          "name": "",
          "type": "address"
        }
      ],
      "stateMutability": "view",
      "type": "function"
    },
    {
      "inputs": [],
      "name": "decimals",
      "outputs": [
        {
          "internalType": "uint8",
          "name": "",
          "type": "uint8"
        }
      ],
      "stateMutability": "view",
      "type": "function"
    },
    {
      "inputs": [
        {
          "internalType": "bytes32",
          "name": "role",
          "type": "bytes32"
        }
      ],
      "name": "getRoleAdmin",
      "outputs": [
        {
          "internalType": "bytes32",
          "name": "",
          "type": "bytes32"
        }
      ],
      "stateMutability": "view",
      "type": "function"
    },
    {
      "inputs": [
        {
          "internalType": "bytes32",
          "name": "role",
          "type": "bytes32"
        },
        {
          "internalType": "address",
          "name": "account",
          "type": "address"
        }
      ],
      "name": "grantRole",
      "outputs": [],
      "stateMutability": "nonpayable",
      "type": "function"
    },
    {
      "inputs": [
        {
          "internalType": "bytes32",
          "name": "role",
          "type": "bytes32"
        },
        {
          "internalType": "address",
          "name": "account",
          "type": "address"
        }
      ],
      "name": "hasRole",
      "outputs": [
        {
          "internalType": "bool",
          "name": "",
          "type": "bool"
        }
      ],
      "stateMutability": "view",
      "type": "function"
    },
    {
      "inputs": [],
      "name": "kycContract",
      "outputs": [
        {
          "internalType": "address",
          "name": "",
          "type": "address"
        }
      ],
      "stateMutability": "view",
      "type": "function"
    },
    {
      "inputs": [
        {
          "internalType": "address",
          "name": "",
          "type": "address"
        }
      ],
      "name": "kycExpirationDate",
      "outputs": [
        {
          "internalType": "uint256",
          "name": "",
          "type": "uint256"
        }
      ],
      "stateMutability": "view",
      "type": "function"
    },
    {
      "inputs": [
        {
          "internalType": "address",
          "name": "",
          "type": "address"
        }
      ],
      "name": "kycVerified",
      "outputs": [
        {
          "internalType": "bool",
          "name": "",
          "type": "bool"
        }
      ],
      "stateMutability": "view",
      "type": "function"
    },
    {
      "inputs": [
        {
          "internalType": "address",
          "name": "to",
          "type": "address"
        },
        {
          "internalType": "uint256",
          "name": "amount",
          "type": "uint256"
        }
      ],
      "name": "mint",
      "outputs": [],
      "stateMutability": "nonpayable",
      "type": "function"
    },
    {
      "inputs": [],
      "name": "name",
      "outputs": [
        {
          "internalType": "string",
          "name": "",
          "type": "string"
        }
      ],
      "stateMutability": "view",
      "type": "function"
    },
    {
      "inputs": [],
      "name": "pause",
      "outputs": [],
      "stateMutability": "nonpayable",
      "type": "function"
    },
    {
      "inputs": [],
      "name": "paused",
      "outputs": [
        {
          "internalType": "bool",
          "name": "",
          "type": "bool"
        }
      ],
      "stateMutability": "view",
      "type": "function"
    },
    {
      "inputs": [
        {
          "internalType": "bytes32",
          "name": "role",
          "type": "bytes32"
        },
        {
          "internalType": "address",
          "name": "callerConfirmation",
          "type": "address"
        }
      ],
      "name": "renounceRole",
      "outputs": [],
      "stateMutability": "nonpayable",
      "type": "function"
    },
    {
      "inputs": [
        {
          "internalType": "bytes32",
          "name": "role",
          "type": "bytes32"
        },
        {
          "internalType": "address",
          "name": "account",
          "type": "address"
        }
      ],
      "name": "revokeRole",
      "outputs": [],
      "stateMutability": "nonpayable",
      "type": "function"
    },
    {
      "inputs": [
        {
          "internalType": "address",
          "name": "user",
          "type": "address"
        },
        {
          "internalType": "bool",
          "name": "verified",
          "type": "bool"
        },
        {
          "internalType": "uint256",
          "name": "expirationDate",
          "type": "uint256"
        }
      ],
      "name": "setKYCStatus",
      "outputs": [],
      "stateMutability": "nonpayable",
      "type": "function"
    },
    {
      "inputs": [
        {
          "internalType": "bytes4",
          "name": "interfaceId",
          "type": "bytes4"
        }
      ],
      "name": "supportsInterface",
      "outputs": [
        {
          "internalType": "bool",
          "name": "",
          "type": "bool"
        }
      ],
      "stateMutability": "view",
      "type": "function"
    },
    {
      "inputs": [],
      "name": "symbol",
      "outputs": [
        {
          "internalType": "string",
          "name": "",
          "type": "string"
        }
      ],
      "stateMutability": "view",
      "type": "function"
    },
    {
      "inputs": [],
      "name": "totalSupply",
      "outputs": [
        {
          "internalType": "uint256",
          "name": "",
          "type": "uint256"
        }
      ],
      "stateMutability": "view",
      "type": "function"
    },
    {
      "inputs": [
        {
          "internalType": "address",
          "name": "to",
          "type": "address"
        },
        {
          "internalType": "uint256",
          "name": "value",
          "type": "uint256"
        }
      ],
      "name": "transfer",
      "outputs": [
        {
          "internalType": "bool",
          "name": "",
          "type": "bool"
        }
      ],
      "stateMutability": "nonpayable",
      "type": "function"
    },
    {
      "inputs": [
        {
          "internalType": "address",
          "name": "from",
          "type": "address"
        },
        {
          "internalType": "address",
          "name": "to",
          "type": "address"
        },
        {
          "internalType": "uint256",
          "name": "value",
          "type": "uint256"
        }
      ],
      "name": "transferFrom",
      "outputs": [
        {
          "internalType": "bool",
          "name": "",
          "type": "bool"
        }
      ],
      "stateMutability": "nonpayable",
      "type": "function"
    },
    {
      "inputs": [],
      "name": "unpause",
      "outputs": [],
      "stateMutability": "nonpayable",
      "type": "function"
    }
  ],
  "bytecode": "0x6040608081523462000530576200185b803803806200001e8162000535565b928339810160a082820312620005305781516001600160401b039290838111620005305782620000509183016200055b565b92602092838301519082821162000530576200006e9184016200055b565b916200007c868201620005cd565b906200009960806200009160608401620005cd565b9201620005cd565b92865181811162000427576003908154906001998a83811c9316801562000525575b8a8410146200050f578190601f93848111620004b9575b508a9084831160011462000449576000926200043d575b505060001982851b1c1916908a1b1782555b8651928311620004275760049687548a81811c911680156200041c575b8a82101462000407579081838695949311620003ad575b5089918411600114620003425760009362000336575b505082891b92600019911b1c19161784555b856006556200016633620005e2565b50620001728262000663565b506200017e8362000706565b5060078054610100600160a81b031916600892831b610100600160a81b031617905580546001600160a01b0319166001600160a01b0393841617905516600081815260098452859020805460ff1916909417909355426301e133808101908110620003215783600052600a8352846000205582156200030a5760ff60075416620002fc57826000526009825260ff84600020541680620002ea575b156200029a5760025469d3c21bcecceda10000009182820180921162000285575060025560008381528083528481208054830190558451918252917fddf252ad1be2c89b69c2b068fc378daa952ba7f163c4a11628f55a4df523b3ef91a3516110969081620007a58239f35b601190634e487b7160e01b6000525260246000fd5b60849184519162461bcd60e51b8352820152602660248201527f4173736574546f6b656e3a20726563697069656e74206e6f74204b59432076656044820152651c9a599a595960d21b6064820152fd5b50600a82524284600020541162000219565b835163d93c066560e01b8152fd5b602490600085519163ec442f0560e01b8352820152fd5b601182634e487b7160e01b6000525260246000fd5b01519150388062000145565b91908a9450601f19841692896000528a6000209360005b8c8282106200039657505085116200037b575b50505050811b01845562000157565b01519060f884600019921b161c19169055388080806200036c565b8385015187558e9890960195938401930162000359565b909192935088600052896000208380870160051c8201928c8810620003fd575b918d918897969594930160051c01915b828110620003ed5750506200012f565b600081558796508d9101620003dd565b92508192620003cd565b602289634e487b7160e01b6000525260246000fd5b90607f169062000118565b634e487b7160e01b600052604160045260246000fd5b015190503880620000e9565b60008681528c81208e9550929190601f198516908e5b8282106200049857505084116200047f575b505050811b018255620000fb565b015160001983871b60f8161c1916905538808062000471565b91929395968291958786015181550195019301908e95949392918e6200045f565b909150846000528a6000208480850160051c8201928d861062000505575b918e91869594930160051c01915b828110620004f5575050620000d2565b600081558594508e9101620004e5565b92508192620004d7565b634e487b7160e01b600052602260045260246000fd5b92607f1692620000bb565b600080fd5b6040519190601f01601f191682016001600160401b038111838210176200042757604052565b919080601f84011215620005305782516001600160401b038111620004275760209062000591601f8201601f1916830162000535565b92818452828287010111620005305760005b818110620005b957508260009394955001015290565b8581018301518482018401528201620005a3565b51906001600160a01b03821682036200053057565b6001600160a01b031660008181527f05b8ccbb9d4d8fb16ea74ce3c29a41f1b461fbdaff4714a0d9a8eb05499746bc602052604081205490919060ff166200065f5781805260056020526040822081835260205260408220600160ff1982541617905533916000805160206200183b8339815191528180a4600190565b5090565b6001600160a01b031660008181527f08699172536d22b992c4579cb1469b6a17054a95ee49bf4d1fdc489bafaaa00760205260408120549091907f114e74f6ea3bd819998f78687bfcb11b140da08e9b7d222fa9c1f1ba1f2aa1229060ff16620007015780835260056020526040832082845260205260408320600160ff198254161790556000805160206200183b833981519152339380a4600190565b505090565b6001600160a01b031660008181527f9c71f34f6c28caec29a53b642f7d428de4506e0f57fa8c38507e64ce7bcfff1860205260408120549091907f442a94f1a1fac79af32856af2a64f63648cfa2ef3b98610a5bb7cbec4cee69859060ff16620007015780835260056020526040832082845260205260408320600160ff198254161790556000805160206200183b833981519152339380a460019056fe608060408181526004918236101561001657600080fd5b600092833560e01c91826301ffc9a714610c2457508163062d3bd714610be957816306fdde0314610b0f578163095ea7b314610a6557816318160ddd14610a4657816323b872dd1461094f578163248a9ca3146109245781632f2ff15d146108fa578163313ce567146108de57816336568abe146108985781633f4ba83a1461082e57816340c10f19146106385781635c975abb146106145781636d3123eb146105e757816370a08231146105b057816382aefa24146105755781638456cb591461051a57816391d14854146104d357816395d89b41146103b4578163970a8b95146102c8578163a217fddf146102ad578163a5410a661461026f578163a9059cbb1461023e578163b673ba6014610206578163c4a56fc8146101dd578163d547741f14610199575063dd62ed3e1461014e57600080fd5b346101955780600319360112610195578060209261016a610cc0565b610172610cdb565b6001600160a01b0391821683526001865283832091168252845220549051908152f35b5080fd5b919050346101d957806003193601126101d9576101d591356101d060016101be610cdb565b93838752600560205286200154610d49565b610def565b5080f35b8280fd5b50503461019557816003193601126101955760085490516001600160a01b039091168152602090f35b5050346101955760203660031901126101955760209181906001600160a01b0361022e610cc0565b168152600a845220549051908152f35b50503461019557806003193601126101955760209061026861025e610cc0565b6024359033610e66565b5160018152f35b5050346101955760203660031901126101955760209160ff9082906001600160a01b0361029a610cc0565b1681526009855220541690519015158152f35b50503461019557816003193601126101955751908152602090f35b83915034610195576060366003190112610195576102e4610cc0565b926024358015158091036103b057604435927f442a94f1a1fac79af32856af2a64f63648cfa2ef3b98610a5bb7cbec4cee6985808652600560205283862033875260205260ff8487205416156103935750507f7abd35ff33891ab3686be6791d9262c0aace8d89f28fcf30262d6e1e06f60cb492939460018060a01b031693848652600960205282862060ff1981541660ff8416179055600a602052808387205582519182526020820152a280f35b6044925083519163e2517d3f60e01b835233908301526024820152fd5b8380fd5b838334610195578160031936011261019557805190828454600181811c908083169283156104c9575b60209384841081146104b65783885290811561049a5750600114610445575b505050829003601f01601f191682019267ffffffffffffffff841183851017610432575082918261042e925282610c77565b0390f35b634e487b7160e01b815260418552602490fd5b8787529192508591837f8a35acfbc15ff81a39ae7d344fd709f28e8600b4aa8c65c6b64bfe7fe36bd19b5b83851061048657505050508301018580806103fc565b805488860183015293019284908201610470565b60ff1916878501525050151560051b84010190508580806103fc565b634e487b7160e01b895260228a52602489fd5b91607f16916103dd565b9050346101d957816003193601126101d9578160209360ff926104f4610cdb565b90358252600586528282206001600160a01b039091168252855220549151911615158152f35b50503461019557816003193601126101955760207f62e78cea01bee320cd4e420270b5ea74000d11b0c9f74754ebdbfc544b05a25891610558610cf1565b610560611042565b600160ff19600754161760075551338152a180f35b505034610195578160031936011261019557602090517f114e74f6ea3bd819998f78687bfcb11b140da08e9b7d222fa9c1f1ba1f2aa1228152f35b5050346101955760203660031901126101955760209181906001600160a01b036105d8610cc0565b16815280845220549051908152f35b505034610195578160031936011261019557600754905160089190911c6001600160a01b03168152602090f35b50503461019557816003193601126101955760209060ff6007541690519015158152f35b9050346101d957816003193601126101d957610652610cc0565b906024928335917f114e74f6ea3bd819998f78687bfcb11b140da08e9b7d222fa9c1f1ba1f2aa1229384875260209460058652838820338952865260ff84892054161561081257506001600160a01b0316808752600985528287205490959060ff1680610802575b156107b85785156107a4576106cd611042565b8587526009855260ff838820541680610794575b1561074557600254918483018093116107345750506002558385528483528085208054830190555190815283917fddf252ad1be2c89b69c2b068fc378daa952ba7f163c4a11628f55a4df523b3ef91a380f35b634e487b7160e01b88526011905286fd5b60269085608494519362461bcd60e51b85528401528201527f4173736574546f6b656e3a20726563697069656e74206e6f74204b59432076656044820152651c9a599a595960d21b6064820152fd5b50600a85528287205442106106e1565b915163ec442f0560e01b8152908101869052fd5b60219085608494519362461bcd60e51b85528401528201527f4173736574546f6b656e3a2075736572206e6f74204b594320766572696669656044820152601960fa1b6064820152fd5b50600a85528287205442106106ba565b905085604493519263e2517d3f60e01b84523390840152820152fd5b9050346101d957826003193601126101d957610848610cf1565b6007549060ff82161561088a575060ff1916600755513381527f5db9ee0a495bf2e6ff9c91a7834c1ba4fdd244a5e8aa4e537bd38aeae4b073aa90602090a180f35b8251638dfc202b60e01b8152fd5b8383346101955780600319360112610195576108b2610cdb565b90336001600160a01b038316036108cf57506101d5919235610def565b5163334bd91960e11b81528390fd5b5050346101955781600319360112610195576020905160128152f35b919050346101d957806003193601126101d9576101d5913561091f60016101be610cdb565b610d6f565b9050346101d95760203660031901126101d95781602093600192358152600585522001549051908152f35b90508234610a43576060366003190112610a435761096b610cc0565b610973610cdb565b916044359360018060a01b0383168083526001602052868320338452602052868320549160001983106109af575b602088610268898989610e66565b868310610a17578115610a005733156109e957508252600160209081528683203384528152918690209085900390558290610268876109a1565b8751634a1406b160e11b8152908101849052602490fd5b875163e602df0560e01b8152908101849052602490fd5b8751637dc7a0d960e11b8152339181019182526020820193909352604081018790528291506060010390fd5b80fd5b5050346101955781600319360112610195576020906002549051908152f35b9050346101d957816003193601126101d957610a7f610cc0565b602435903315610af8576001600160a01b0316918215610ae157508083602095338152600187528181208582528752205582519081527f8c5be1e5ebec7d5bd14f71427d1e84f3dd0314c0f7b2291e5b200ac8c7c3b925843392a35160018152f35b8351634a1406b160e11b8152908101859052602490fd5b835163e602df0560e01b8152808401869052602490fd5b83833461019557816003193601126101955780519082600354600181811c90808316928315610bdf575b60209384841081146104b65783885290811561049a5750600114610b8957505050829003601f01601f191682019267ffffffffffffffff841183851017610432575082918261042e925282610c77565b600387529192508591837fc2575a0e9e593c00f959f8c92f12db2869c3395a3b0502d05e2516446f71f85b5b838510610bcb57505050508301018580806103fc565b805488860183015293019284908201610bb5565b91607f1691610b39565b505034610195578160031936011261019557602090517f442a94f1a1fac79af32856af2a64f63648cfa2ef3b98610a5bb7cbec4cee69858152f35b8491346101d95760203660031901126101d9573563ffffffff60e01b81168091036101d95760209250637965db0b60e01b8114908115610c66575b5015158152f35b6301ffc9a760e01b14905083610c5f565b6020808252825181830181905290939260005b828110610cac57505060409293506000838284010152601f8019910116010190565b818101860151848201604001528501610c8a565b600435906001600160a01b0382168203610cd657565b600080fd5b602435906001600160a01b0382168203610cd657565b3360009081527f05b8ccbb9d4d8fb16ea74ce3c29a41f1b461fbdaff4714a0d9a8eb05499746bc602052604081205460ff1615610d2b5750565b6044906040519063e2517d3f60e01b82523360048301526024820152fd5b80600052600560205260406000203360005260205260ff6040600020541615610d2b5750565b906000918083526005602052604083209160018060a01b03169182845260205260ff60408420541615600014610dea5780835260056020526040832082845260205260408320600160ff198254161790557f2f8788117e7eff1d82e926ec794901d17c78024a50270940304540a733656f0d339380a4600190565b505090565b906000918083526005602052604083209160018060a01b03169182845260205260ff604084205416600014610dea578083526005602052604083208284526020526040832060ff1981541690557ff6391f5c32d9c69d2a47ea670b442974b53935d1edc7fd64eb21e047a839171b339380a4600190565b9291906001600160a01b03808516918215611029571691821561101057610e8b611042565b6000908282526020916009835260409060ff828220541680611000575b15610fb0578581526009845260ff828220541680610fa0575b15610f4d578481528084528181205497838910610f1d57508083869798997fddf252ad1be2c89b69c2b068fc378daa952ba7f163c4a11628f55a4df523b3ef9785945282875203828220558781522082815401905551908152a3565b825163391434e360e21b81526001600160a01b039190911660048201526024810189905260448101849052606490fd5b815162461bcd60e51b815260048101859052602660248201527f4173736574546f6b656e3a20726563697069656e74206e6f74204b59432076656044820152651c9a599a595960d21b6064820152608490fd5b50600a8452818120544210610ec1565b815162461bcd60e51b815260048101859052602360248201527f4173736574546f6b656e3a2073656e646572206e6f74204b59432076657269666044820152621a595960ea1b6064820152608490fd5b50600a8452818120544210610ea8565b60405163ec442f0560e01b815260006004820152602490fd5b604051634b637e8f60e11b815260006004820152602490fd5b60ff6007541661104e57565b60405163d93c066560e01b8152600490fdfea26469706673582212201ee6ca8062395991b5c8b6ff32ac8a2b079027e21ec5777ea7ee9c0c1654e09c64736f6c634300081400332f8788117e7eff1d82e926ec794901d17c78024a50270940304540a733656f0d",
  "linkReferences": {},
  "deployedLinkReferences": {}
}