{
  "_format": "hh-sol-artifact-1",
  "contractName": "EnhancedAssetMarketplace",
  "sourceName": "contracts/EnhancedAssetMarketplace.sol",
  "abi": [
    {
      "inputs": [
        {
          "internalType": "address",
          "name": "admin",
          "type": "address"
        },
        {
          "internalType": "address",
          "name": "_feeRecipient",
          "type": "address"
        }
      ],
      "stateMutability": "nonpayable",
      "type": "constructor"
    },
    {
      "inputs": [],
      "name": "AccessControlBadConfirmation",
      "type": "error"
    },
    {
      "inputs": [
        {
          "internalType": "address",
          "name": "account",
          "type": "address"
        },
        {
          "internalType": "bytes32",
          "name": "neededRole",
          "type": "bytes32"
        }
      ],
      "name": "AccessControlUnauthorizedAccount",
      "type": "error"
    },
    {
      "inputs": [],
      "name": "EnforcedPause",
      "type": "error"
    },
    {
      "inputs": [],
      "name": "ExpectedPause",
      "type": "error"
    },
    {
      "inputs": [],
      "name": "ReentrancyGuardReentrantCall",
      "type": "error"
    },
    {
      "inputs": [
        {
          "internalType": "address",
          "name": "token",
          "type": "address"
        }
      ],
      "name": "SafeERC20FailedOperation",
      "type": "error"
    },
    {
      "anonymous": false,
      "inputs": [
        {
          "indexed": true,
          "internalType": "uint256",
          "name": "listingId",
          "type": "uint256"
        },
        {
          "indexed": true,
          "internalType": "address",
          "name": "bidder",
          "type": "address"
        },
        {
          "indexed": false,
          "internalType": "uint256",
          "name": "amount",
          "type": "uint256"
        }
      ],
      "name": "BidPlaced",
      "type": "event"
    },
    {
      "anonymous": false,
      "inputs": [
        {
          "indexed": true,
          "internalType": "uint256",
          "name": "escrowId",
          "type": "uint256"
        },
        {
          "indexed": false,
          "internalType": "address",
          "name": "buyer",
          "type": "address"
        },
        {
          "indexed": false,
          "internalType": "address",
          "name": "seller",
          "type": "address"
        },
        {
          "indexed": false,
          "internalType": "uint256",
          "name": "amount",
          "type": "uint256"
        }
      ],
      "name": "EscrowCreated",
      "type": "event"
    },
    {
      "anonymous": false,
      "inputs": [
        {
          "indexed": true,
          "internalType": "uint256",
          "name": "escrowId",
          "type": "uint256"
        }
      ],
      "name": "EscrowReleased",
      "type": "event"
    },
    {
      "anonymous": false,
      "inputs": [
        {
          "indexed": true,
          "internalType": "uint256",
          "name": "listingId",
          "type": "uint256"
        }
      ],
      "name": "ListingCancelled",
      "type": "event"
    },
    {
      "anonymous": false,
      "inputs": [
        {
          "indexed": true,
          "internalType": "uint256",
          "name": "listingId",
          "type": "uint256"
        },
        {
          "indexed": true,
          "internalType": "address",
          "name": "seller",
          "type": "address"
        },
        {
          "indexed": true,
          "internalType": "address",
          "name": "tokenContract",
          "type": "address"
        },
        {
          "indexed": false,
          "internalType": "uint256",
          "name": "amount",
          "type": "uint256"
        },
        {
          "indexed": false,
          "internalType": "uint256",
          "name": "pricePerToken",
          "type": "uint256"
        },
        {
          "indexed": false,
          "internalType": "enum EnhancedAssetMarketplace.ListingType",
          "name": "listingType",
          "type": "uint8"
        }
      ],
      "name": "ListingCreated",
      "type": "event"
    },
    {
      "anonymous": false,
      "inputs": [
        {
          "indexed": true,
          "internalType": "uint256",
          "name": "listingId",
          "type": "uint256"
        },
        {
          "indexed": true,
          "internalType": "address",
          "name": "buyer",
          "type": "address"
        },
        {
          "indexed": false,
          "internalType": "uint256",
          "name": "totalPrice",
          "type": "uint256"
        }
      ],
      "name": "ListingSold",
      "type": "event"
    },
    {
      "anonymous": false,
      "inputs": [
        {
          "indexed": false,
          "internalType": "address",
          "name": "account",
          "type": "address"
        }
      ],
      "name": "Paused",
      "type": "event"
    },
    {
      "anonymous": false,
      "inputs": [
        {
          "indexed": true,
          "internalType": "bytes32",
          "name": "role",
          "type": "bytes32"
        },
        {
          "indexed": true,
          "internalType": "bytes32",
          "name": "previousAdminRole",
          "type": "bytes32"
        },
        {
          "indexed": true,
          "internalType": "bytes32",
          "name": "newAdminRole",
          "type": "bytes32"
        }
      ],
      "name": "RoleAdminChanged",
      "type": "event"
    },
    {
      "anonymous": false,
      "inputs": [
        {
          "indexed": true,
          "internalType": "bytes32",
          "name": "role",
          "type": "bytes32"
        },
        {
          "indexed": true,
          "internalType": "address",
          "name": "account",
          "type": "address"
        },
        {
          "indexed": true,
          "internalType": "address",
          "name": "sender",
          "type": "address"
        }
      ],
      "name": "RoleGranted",
      "type": "event"
    },
    {
      "anonymous": false,
      "inputs": [
        {
          "indexed": true,
          "internalType": "bytes32",
          "name": "role",
          "type": "bytes32"
        },
        {
          "indexed": true,
          "internalType": "address",
          "name": "account",
          "type": "address"
        },
        {
          "indexed": true,
          "internalType": "address",
          "name": "sender",
          "type": "address"
        }
      ],
      "name": "RoleRevoked",
      "type": "event"
    },
    {
      "anonymous": false,
      "inputs": [
        {
          "indexed": false,
          "internalType": "address",
          "name": "account",
          "type": "address"
        }
      ],
      "name": "Unpaused",
      "type": "event"
    },
    {
      "inputs": [],
      "name": "COMPLIANCE_ROLE",
      "outputs": [
        {
          "internalType": "bytes32",
          "name": "",
          "type": "bytes32"
        }
      ],
      "stateMutability": "view",
      "type": "function"
    },
    {
      "inputs": [],
      "name": "DEFAULT_ADMIN_ROLE",
      "outputs": [
        {
          "internalType": "bytes32",
          "name": "",
          "type": "bytes32"
        }
      ],
      "stateMutability": "view",
      "type": "function"
    },
    {
      "inputs": [],
      "name": "MARKET_ADMIN_ROLE",
      "outputs": [
        {
          "internalType": "bytes32",
          "name": "",
          "type": "bytes32"
        }
      ],
      "stateMutability": "view",
      "type": "function"
    },
    {
      "inputs": [
        {
          "internalType": "uint256",
          "name": "listingId",
          "type": "uint256"
        }
      ],
      "name": "buyFixedPrice",
      "outputs": [],
      "stateMutability": "payable",
      "type": "function"
    },
    {
      "inputs": [
        {
          "internalType": "uint256",
          "name": "listingId",
          "type": "uint256"
        }
      ],
      "name": "cancelListing",
      "outputs": [],
      "stateMutability": "nonpayable",
      "type": "function"
    },
    {
      "inputs": [
        {
          "internalType": "address",
          "name": "tokenContract",
          "type": "address"
        },
        {
          "internalType": "uint256",
          "name": "amount",
          "type": "uint256"
        },
        {
          "internalType": "uint256",
          "name": "pricePerToken",
          "type": "uint256"
        },
        {
          "internalType": "enum EnhancedAssetMarketplace.ListingType",
          "name": "listingType",
          "type": "uint8"
        },
        {
          "internalType": "uint256",
          "name": "duration",
          "type": "uint256"
        },
        {
          "internalType": "uint256",
          "name": "minBidIncrement",
          "type": "uint256"
        },
        {
          "internalType": "bool",
          "name": "requiresKYC",
          "type": "bool"
        },
        {
          "internalType": "string",
          "name": "metadataURI",
          "type": "string"
        }
      ],
      "name": "createListing",
      "outputs": [],
      "stateMutability": "nonpayable",
      "type": "function"
    },
    {
      "inputs": [],
      "name": "emergencyWithdraw",
      "outputs": [],
      "stateMutability": "nonpayable",
      "type": "function"
    },
    {
      "inputs": [],
      "name": "escrowTimeout",
      "outputs": [
        {
          "internalType": "uint256",
          "name": "",
          "type": "uint256"
        }
      ],
      "stateMutability": "view",
      "type": "function"
    },
    {
      "inputs": [
        {
          "internalType": "uint256",
          "name": "",
          "type": "uint256"
        }
      ],
      "name": "escrows",
      "outputs": [
        {
          "internalType": "uint256",
          "name": "amount",
          "type": "uint256"
        },
        {
          "internalType": "address",
          "name": "buyer",
          "type": "address"
        },
        {
          "internalType": "address",
          "name": "seller",
          "type": "address"
        },
        {
          "internalType": "bool",
          "name": "completed",
          "type": "bool"
        },
        {
          "internalType": "uint256",
          "name": "createdAt",
          "type": "uint256"
        },
        {
          "internalType": "uint256",
          "name": "releaseTime",
          "type": "uint256"
        }
      ],
      "stateMutability": "view",
      "type": "function"
    },
    {
      "inputs": [],
      "name": "feeRecipient",
      "outputs": [
        {
          "internalType": "address",
          "name": "",
          "type": "address"
        }
      ],
      "stateMutability": "view",
      "type": "function"
    },
    {
      "inputs": [
        {
          "internalType": "uint256",
          "name": "listingId",
          "type": "uint256"
        }
      ],
      "name": "finalizeAuction",
      "outputs": [],
      "stateMutability": "nonpayable",
      "type": "function"
    },
    {
      "inputs": [
        {
          "internalType": "uint256",
          "name": "listingId",
          "type": "uint256"
        }
      ],
      "name": "getListing",
      "outputs": [
        {
          "components": [
            {
              "internalType": "uint256",
              "name": "listingId",
              "type": "uint256"
            },
            {
              "internalType": "address",
              "name": "seller",
              "type": "address"
            },
            {
              "internalType": "address",
              "name": "tokenContract",
              "type": "address"
            },
            {
              "internalType": "uint256",
              "name": "amount",
              "type": "uint256"
            },
            {
              "internalType": "uint256",
              "name": "pricePerToken",
              "type": "uint256"
            },
            {
              "internalType": "enum EnhancedAssetMarketplace.ListingType",
              "name": "listingType",
              "type": "uint8"
            },
            {
              "internalType": "enum EnhancedAssetMarketplace.ListingStatus",
              "name": "status",
              "type": "uint8"
            },
            {
              "internalType": "uint256",
              "name": "startTime",
              "type": "uint256"
            },
            {
              "internalType": "uint256",
              "name": "endTime",
              "type": "uint256"
            },
            {
              "internalType": "uint256",
              "name": "minBidIncrement",
              "type": "uint256"
            },
            {
              "internalType": "address",
              "name": "highestBidder",
              "type": "address"
            },
            {
              "internalType": "uint256",
              "name": "highestBid",
              "type": "uint256"
            },
            {
              "internalType": "bool",
              "name": "requiresKYC",
              "type": "bool"
            },
            {
              "internalType": "string",
              "name": "metadataURI",
              "type": "string"
            }
          ],
          "internalType": "struct EnhancedAssetMarketplace.Listing",
          "name": "",
          "type": "tuple"
        }
      ],
      "stateMutability": "view",
      "type": "function"
    },
    {
      "inputs": [
        {
          "internalType": "uint256",
          "name": "listingId",
          "type": "uint256"
        }
      ],
      "name": "getListingBids",
      "outputs": [
        {
          "components": [
            {
              "internalType": "address",
              "name": "bidder",
              "type": "address"
            },
            {
              "internalType": "uint256",
              "name": "amount",
              "type": "uint256"
            },
            {
              "internalType": "uint256",
              "name": "timestamp",
              "type": "uint256"
            }
          ],
          "internalType": "struct EnhancedAssetMarketplace.Bid[]",
          "name": "",
          "type": "tuple[]"
        }
      ],
      "stateMutability": "view",
      "type": "function"
    },
    {
      "inputs": [
        {
          "internalType": "bytes32",
          "name": "role",
          "type": "bytes32"
        }
      ],
      "name": "getRoleAdmin",
      "outputs": [
        {
          "internalType": "bytes32",
          "name": "",
          "type": "bytes32"
        }
      ],
      "stateMutability": "view",
      "type": "function"
    },
    {
      "inputs": [
        {
          "internalType": "address",
          "name": "user",
          "type": "address"
        }
      ],
      "name": "getUserBids",
      "outputs": [
        {
          "internalType": "uint256[]",
          "name": "",
          "type": "uint256[]"
        }
      ],
      "stateMutability": "view",
      "type": "function"
    },
    {
      "inputs": [
        {
          "internalType": "address",
          "name": "user",
          "type": "address"
        }
      ],
      "name": "getUserListings",
      "outputs": [
        {
          "internalType": "uint256[]",
          "name": "",
          "type": "uint256[]"
        }
      ],
      "stateMutability": "view",
      "type": "function"
    },
    {
      "inputs": [
        {
          "internalType": "bytes32",
          "name": "role",
          "type": "bytes32"
        },
        {
          "internalType": "address",
          "name": "account",
          "type": "address"
        }
      ],
      "name": "grantRole",
      "outputs": [],
      "stateMutability": "nonpayable",
      "type": "function"
    },
    {
      "inputs": [
        {
          "internalType": "bytes32",
          "name": "role",
          "type": "bytes32"
        },
        {
          "internalType": "address",
          "name": "account",
          "type": "address"
        }
      ],
      "name": "hasRole",
      "outputs": [
        {
          "internalType": "bool",
          "name": "",
          "type": "bool"
        }
      ],
      "stateMutability": "view",
      "type": "function"
    },
    {
      "inputs": [],
      "name": "kycContract",
      "outputs": [
        {
          "internalType": "contract DecentralizedKYC",
          "name": "",
          "type": "address"
        }
      ],
      "stateMutability": "view",
      "type": "function"
    },
    {
      "inputs": [
        {
          "internalType": "uint256",
          "name": "",
          "type": "uint256"
        },
        {
          "internalType": "uint256",
          "name": "",
          "type": "uint256"
        }
      ],
      "name": "listingBids",
      "outputs": [
        {
          "internalType": "address",
          "name": "bidder",
          "type": "address"
        },
        {
          "internalType": "uint256",
          "name": "amount",
          "type": "uint256"
        },
        {
          "internalType": "uint256",
          "name": "timestamp",
          "type": "uint256"
        }
      ],
      "stateMutability": "view",
      "type": "function"
    },
    {
      "inputs": [
        {
          "internalType": "uint256",
          "name": "",
          "type": "uint256"
        }
      ],
      "name": "listings",
      "outputs": [
        {
          "internalType": "uint256",
          "name": "listingId",
          "type": "uint256"
        },
        {
          "internalType": "address",
          "name": "seller",
          "type": "address"
        },
        {
          "internalType": "address",
          "name": "tokenContract",
          "type": "address"
        },
        {
          "internalType": "uint256",
          "name": "amount",
          "type": "uint256"
        },
        {
          "internalType": "uint256",
          "name": "pricePerToken",
          "type": "uint256"
        },
        {
          "internalType": "enum EnhancedAssetMarketplace.ListingType",
          "name": "listingType",
          "type": "uint8"
        },
        {
          "internalType": "enum EnhancedAssetMarketplace.ListingStatus",
          "name": "status",
          "type": "uint8"
        },
        {
          "internalType": "uint256",
          "name": "startTime",
          "type": "uint256"
        },
        {
          "internalType": "uint256",
          "name": "endTime",
          "type": "uint256"
        },
        {
          "internalType": "uint256",
          "name": "minBidIncrement",
          "type": "uint256"
        },
        {
          "internalType": "address",
          "name": "highestBidder",
          "type": "address"
        },
        {
          "internalType": "uint256",
          "name": "highestBid",
          "type": "uint256"
        },
        {
          "internalType": "bool",
          "name": "requiresKYC",
          "type": "bool"
        },
        {
          "internalType": "string",
          "name": "metadataURI",
          "type": "string"
        }
      ],
      "stateMutability": "view",
      "type": "function"
    },
    {
      "inputs": [],
      "name": "maxListingDuration",
      "outputs": [
        {
          "internalType": "uint256",
          "name": "",
          "type": "uint256"
        }
      ],
      "stateMutability": "view",
      "type": "function"
    },
    {
      "inputs": [],
      "name": "minListingDuration",
      "outputs": [
        {
          "internalType": "uint256",
          "name": "",
          "type": "uint256"
        }
      ],
      "stateMutability": "view",
      "type": "function"
    },
    {
      "inputs": [],
      "name": "nextEscrowId",
      "outputs": [
        {
          "internalType": "uint256",
          "name": "",
          "type": "uint256"
        }
      ],
      "stateMutability": "view",
      "type": "function"
    },
    {
      "inputs": [],
      "name": "nextListingId",
      "outputs": [
        {
          "internalType": "uint256",
          "name": "",
          "type": "uint256"
        }
      ],
      "stateMutability": "view",
      "type": "function"
    },
    {
      "inputs": [],
      "name": "pause",
      "outputs": [],
      "stateMutability": "nonpayable",
      "type": "function"
    },
    {
      "inputs": [],
      "name": "paused",
      "outputs": [
        {
          "internalType": "bool",
          "name": "",
          "type": "bool"
        }
      ],
      "stateMutability": "view",
      "type": "function"
    },
    {
      "inputs": [
        {
          "internalType": "uint256",
          "name": "listingId",
          "type": "uint256"
        }
      ],
      "name": "placeBid",
      "outputs": [],
      "stateMutability": "payable",
      "type": "function"
    },
    {
      "inputs": [],
      "name": "platformFeeRate",
      "outputs": [
        {
          "internalType": "uint256",
          "name": "",
          "type": "uint256"
        }
      ],
      "stateMutability": "view",
      "type": "function"
    },
    {
      "inputs": [],
      "name": "priceOracle",
      "outputs": [
        {
          "internalType": "contract ChainlinkPriceOracle",
          "name": "",
          "type": "address"
        }
      ],
      "stateMutability": "view",
      "type": "function"
    },
    {
      "inputs": [
        {
          "internalType": "bytes32",
          "name": "role",
          "type": "bytes32"
        },
        {
          "internalType": "address",
          "name": "callerConfirmation",
          "type": "address"
        }
      ],
      "name": "renounceRole",
      "outputs": [],
      "stateMutability": "nonpayable",
      "type": "function"
    },
    {
      "inputs": [
        {
          "internalType": "bytes32",
          "name": "role",
          "type": "bytes32"
        },
        {
          "internalType": "address",
          "name": "account",
          "type": "address"
        }
      ],
      "name": "revokeRole",
      "outputs": [],
      "stateMutability": "nonpayable",
      "type": "function"
    },
    {
      "inputs": [
        {
          "internalType": "address",
          "name": "_kycContract",
          "type": "address"
        }
      ],
      "name": "setKYCContract",
      "outputs": [],
      "stateMutability": "nonpayable",
      "type": "function"
    },
    {
      "inputs": [
        {
          "internalType": "address",
          "name": "_priceOracle",
          "type": "address"
        }
      ],
      "name": "setPriceOracle",
      "outputs": [],
      "stateMutability": "nonpayable",
      "type": "function"
    },
    {
      "inputs": [
        {
          "internalType": "bytes4",
          "name": "interfaceId",
          "type": "bytes4"
        }
      ],
      "name": "supportsInterface",
      "outputs": [
        {
          "internalType": "bool",
          "name": "",
          "type": "bool"
        }
      ],
      "stateMutability": "view",
      "type": "function"
    },
    {
      "inputs": [],
      "name": "unpause",
      "outputs": [],
      "stateMutability": "nonpayable",
      "type": "function"
    },
    {
      "inputs": [
        {
          "internalType": "address",
          "name": "newRecipient",
          "type": "address"
        }
      ],
      "name": "updateFeeRecipient",
      "outputs": [],
      "stateMutability": "nonpayable",
      "type": "function"
    },
    {
      "inputs": [
        {
          "internalType": "uint256",
          "name": "newFeeRate",
          "type": "uint256"
        }
      ],
      "name": "updatePlatformFee",
      "outputs": [],
      "stateMutability": "nonpayable",
      "type": "function"
    },
    {
      "inputs": [
        {
          "internalType": "address",
          "name": "",
          "type": "address"
        },
        {
          "internalType": "uint256",
          "name": "",
          "type": "uint256"
        }
      ],
      "name": "userBids",
      "outputs": [
        {
          "internalType": "uint256",
          "name": "",
          "type": "uint256"
        }
      ],
      "stateMutability": "view",
      "type": "function"
    },
    {
      "inputs": [
        {
          "internalType": "address",
          "name": "",
          "type": "address"
        },
        {
          "internalType": "uint256",
          "name": "",
          "type": "uint256"
        }
      ],
      "name": "userListings",
      "outputs": [
        {
          "internalType": "uint256",
          "name": "",
          "type": "uint256"
        }
      ],
      "stateMutability": "view",
      "type": "function"
    }
  ],
  "bytecode": "0x608034620000d557601f620028c638819003918201601f19168301916001600160401b03831184841017620000da578084926040948552833981010312620000d557620000a46200005e60206200005684620000f0565b9301620000f0565b916001805560016009556001600a5560fa600b55610e10600d5562278d00600e5562093a80600f55620000918162000105565b506200009d8162000185565b5062000227565b50600c80546001600160a01b0319166001600160a01b03929092169190911790556040516125e19081620002c58239f35b600080fd5b634e487b7160e01b600052604160045260246000fd5b51906001600160a01b0382168203620000d557565b6001600160a01b031660008181527fad3228b676f7d3cd4284a5443f17f1962b36e491b30a40b2405849e597ba5fb5602052604081205490919060ff166200018157818052816020526040822081835260205260408220600160ff198254161790553391600080516020620028a68339815191528180a4600190565b5090565b6001600160a01b031660008181527f8522cc959b5f1324f2d3217a190156abffac5c53b78a18e2178efd09ba8b42b260205260408120549091907f3fb0aaa9e8051cfc6c234a5d843bed33910f70c647055f27247c10144c7552e19060ff166200022257808352826020526040832082845260205260408320600160ff19825416179055600080516020620028a6833981519152339380a4600190565b505090565b6001600160a01b031660008181527f335573aa7cafba10a32e2694464d1e7e5294d917876d04d506249fbf84d791af60205260408120549091907f442a94f1a1fac79af32856af2a64f63648cfa2ef3b98610a5bb7cbec4cee69859060ff166200022257808352826020526040832082845260205260408320600160ff19825416179055600080516020620028a6833981519152339380a460019056fe608080604052600436101561001357600080fd5b60003560e01c908163012f52ee14611f165750806301ffc9a714611ec0578063062d3bd714611e85578063107a274a14611c4c578063248a9ca314611c1d5780632630c12f14611bf45780632f2ff15d14611bb5578063305a67a814611a2f57806336568abe146119e85780633f4ba83a1461197e57806346904840146119555780634a60bb171461190d578063530e784f146118ca5780635c975abb146118a7578063605c6d63146118895780636759789f146118115780636d3123eb146117e457806375daa1fa146115535780638456cb59146114f957806386cfa7d3146114af57806389cb29dd1461149157806390e467a11461139c57806391d148541461134f578063957d90d41461133157806396ec50c3146112d95780639979ef4514610f5f5780639da0e1dd14610efd578063a217fddf14610ee1578063aa0b598814610e83578063aaccf1ec14610e65578063d547741f14610e24578063d6f0d39f14610de9578063db2e21bc14610daf578063de74e57b14610cb1578063def050c514610c93578063e808386314610b29578063eb18a9d814610aa1578063edc0effa14610279578063eeca08f01461025b5763f160d369146101d757600080fd5b34610256576020366003190112610256576101f0611ff4565b6101f86121ca565b6001600160a01b0316801561021f576001600160601b0360a01b600c541617600c55600080f35b60405162461bcd60e51b815260206004820152600f60248201526e496e76616c6964206164647265737360881b6044820152606490fd5b600080fd5b34610256576000366003190112610256576020600b54604051908152f35b346102565761010036600319011261025657610293611ff4565b600360643510156102565760c4359081151582036102565760e4359167ffffffffffffffff8311610256573660238401121561025657826004013567ffffffffffffffff81116106e357604051936102f5601f8301601f191660200186612102565b81855236602483830101116102565781600092602460209301838801378501015260025460081c6001600160a01b03168015610a6557602060249160405192838092632a5bb1b760e11b82523360048301525afa90811561085757600091610a36575b50156109e15761036661241b565b61036e6123fd565b6001600160a01b038216156109a3576024351561095e576044351561092057600d54608435101580610912575b156108da576040516370a0823160e01b81523360048201526020816024816001600160a01b0387165afa908115610857576000916108a8575b506024351161086357604051636eb1769f60e11b81523360048201523060248201526020816044816001600160a01b0387165afa90811561085757600091610825575b50602435116107e7576009549260001984146107d1576001840160095561044060843542612353565b916040519261044e846120c9565b8584523360208501526001600160a01b03851660408501526024356060850152604435608085015261048560643560a08601612360565b600060c08501524260e085015261010084015260a4356101208401526000610140840152600061016084015215156101808301526101a082015282600052600460205260406000209080518255600182019060018060a01b03602082015116916001600160601b0360a01b92838254161790556002830160018060a01b0360408301511683825416179055606081015160038401556080810151600484015560a08101519160038310156107bb576005840180549360c08401519460048610156107bb5760ff61ff006101a09760081b1692169061ffff19161717905560e0820151600685015561010082015160078501556101208201516008850155600984019060018060a01b036101408401511690825416179055610160810151600a840155600b8301610180820151151560ff80198354169116179055015180519067ffffffffffffffff82116106e3576105e0600c84015461208f565b601f8111610774575b50602090601f831160011461070457600c9291600091836106f9575b50508160011b916000199060031b1c1916179101555b33600052600760205261063282604060002061236c565b6040516323b872dd60e01b602082015233602482015230604482015260243560648201526064815260a081019080821067ffffffffffffffff8311176106e35760409190915261068b906001600160a01b0383166123a1565b60405190602435825260443560208301526106ab60408301606435611f84565b6001600160a01b03169133917f8cc29aedd4c438083037f38a9e64688219ad0bcbfdb955144ef79a8dd3d435ad90606090a460018055005b634e487b7160e01b600052604160045260246000fd5b015190508680610605565b90600c840160005260206000209160005b601f198516811061075c5750918391600193600c95601f19811610610743575b505050811b0191015561061b565b015160001960f88460031b161c19169055868080610735565b91926020600181928685015181550194019201610715565b600c84016000526020600020601f840160051c8101602085106107b4575b601f830160051c820181106107a85750506105e9565b60008155600101610792565b5080610792565b634e487b7160e01b600052602160045260246000fd5b634e487b7160e01b600052601160045260246000fd5b60405162461bcd60e51b8152602060048201526016602482015275496e73756666696369656e7420616c6c6f77616e636560501b6044820152606490fd5b90506020813d60201161084f575b8161084060209383612102565b81010312610256575184610417565b3d9150610833565b6040513d6000823e3d90fd5b60405162461bcd60e51b815260206004820152601a60248201527f496e73756666696369656e7420746f6b656e2062616c616e63650000000000006044820152606490fd5b90506020813d6020116108d2575b816108c360209383612102565b810103126102565751846103d4565b3d91506108b6565b60405162461bcd60e51b815260206004820152601060248201526f24b73b30b634b210323ab930ba34b7b760811b6044820152606490fd5b50600e54608435111561039b565b60405162461bcd60e51b81526020600482015260166024820152755072696365206d75737420626520706f73697469766560501b6044820152606490fd5b60405162461bcd60e51b815260206004820152601760248201527f416d6f756e74206d75737420626520706f7369746976650000000000000000006044820152606490fd5b60405162461bcd60e51b8152602060048201526016602482015275125b9d985b1a59081d1bdad95b8818dbdb9d1c9858dd60521b6044820152606490fd5b60405162461bcd60e51b815260206004820152602760248201527f41737365744d61726b6574706c6163653a2055736572206e6f74204b59432076604482015266195c9a599a595960ca1b6064820152608490fd5b610a58915060203d602011610a5e575b610a508183612102565b81019061233b565b84610358565b503d610a46565b60405162461bcd60e51b815260206004820152601460248201527312d650c818dbdb9d1c9858dd081b9bdd081cd95d60621b6044820152606490fd5b3461025657602080600319360112610256576001600160a01b03610ac3611ff4565b1660005260078152604060002090604051908181845491828152019360005281600020916000905b828210610b1257610b0e85610b0281890382612102565b6040519182918261200a565b0390f35b835486529485019460019384019390910190610aeb565b3461025657602036600319011261025657600435610b4561241b565b80600052600460205260406000209060058201805460ff8160081c1660048110156107bb57610b74901561243e565b60ff811660038110156107bb57600103610c5d576007840154421115610c215760098401805490936001600160a01b03929091831615610bef5750600a610be995015491612710610bc7600b548561247f565b0494610bd38685612492565b855461ff001916610100179095555416906124ef565b60018055005b61ff0019166103001790925560028401546001850154600390950154610c1c95909450821692501661249f565b610be9565b60405162461bcd60e51b815260206004820152601460248201527341756374696f6e207374696c6c2061637469766560601b6044820152606490fd5b60405162461bcd60e51b815260206004820152600e60248201526d2737ba1030b71030bab1ba34b7b760911b6044820152606490fd5b34610256576000366003190112610256576020600e54604051908152f35b3461025657602036600319011261025657600435600052600460205260406000208054600160a01b60019003806001840154169281600282015416916003820154906004830154906005840154600685015460078601549160088701549360098801541694600a88015496600b89015460ff1698600c01610d3190612124565b996040519c8d9c8d5260208d015260408c015260608b015260808a015260a0890160ff821690610d6091611f84565b60c089019060081c60ff1690610d7591611f91565b60e088015261010087015261012086015261014085015261016084015215156101808301526101c0806101a08401528201610b0e91611f9e565b3461025657600036600319011261025657610dc86121ca565b600080808047818115610de0575b3390f11561085757005b506108fc610dd6565b346102565760003660031901126102565760206040517f3fb0aaa9e8051cfc6c234a5d843bed33910f70c647055f27247c10144c7552e18152f35b3461025657604036600319011261025657610e63600435610e43611fde565b90806000526000602052610e5e600160406000200154612222565b6122c6565b005b34610256576000366003190112610256576020600954604051908152f35b3461025657602036600319011261025657600435610e9f6121ca565b6103e88111610ead57600b55005b60405162461bcd60e51b815260206004820152600c60248201526b08ccaca40e8dede40d0d2ced60a31b6044820152606490fd5b3461025657600036600319011261025657602060405160008152f35b346102565760403660031901126102565760243560043560005260056020526040600020805482101561025657606091610f3691612073565b5060018060a01b0381541690600260018201549101549060405192835260208301526040820152f35b6020806003193601126102565760043590610f7861241b565b610f806123fd565b8160005260048152604060002091600583015460ff8160081c169060048210156107bb57610fb060ff921561243e565b169260038410156107bb57600180940361129b576007810154421161126657808401546001600160a01b039190821633146112215760ff600b8201541680611211575b611177575b600a810180549161100d600882015484612353565b908315918261115e575b341061112b57600901928484541680611104575b5050506001600160601b0360a01b913383825416179055349055826000526005845260406000206040519161105f836120e6565b3383528583019034825260408401924284528054600160401b8110156106e35761108d918a82018155612073565b9590956110ee5760029451169085541617845551868401555191015533600052600882526110bf81604060002061236c565b7f0e54eff26401bf69b81b26f60bd85ef47f5d85275c1d268d84f68d6897431c47604051923484523393a38055005b634e487b7160e01b600052600060045260246000fd5b6000928392839283928390611122575bf1156108575786808061102b565b506108fc611114565b60405162461bcd60e51b815260048101889052600b60248201526a42696420746f6f206c6f7760a81b6044820152606490fd5b50611172600482015460038301549061247f565b611017565b6024848360025460081c1660405192838092632a5bb1b760e11b82523360048301525afa908115610857576000916111f4575b50610ff85760405162461bcd60e51b815260048101859052601760248201527f426964646572206e6f74204b59432076657269666965640000000000000000006044820152606490fd5b61120b9150853d8711610a5e57610a508183612102565b866111aa565b508160025460081c161515610ff3565b60405162461bcd60e51b815260048101859052601960248201527f43616e6e6f7420626964206f6e206f776e206c697374696e67000000000000006044820152606490fd5b60405162461bcd60e51b815260048101849052600d60248201526c105d58dd1a5bdb88195b991959609a1b6044820152606490fd5b60405162461bcd60e51b81526004810184905260166024820152754e6f7420616e2061756374696f6e206c697374696e6760501b6044820152606490fd5b34610256576040366003190112610256576112f2611ff4565b6001600160a01b03166000908152600860205260409020805460243591908210156102565760209161132391612045565b90546040519160031b1c8152f35b34610256576000366003190112610256576020600d54604051908152f35b3461025657604036600319011261025657611368611fde565b600435600052600060205260406000209060018060a01b0316600052602052602060ff604060002054166040519015158152f35b34610256576020806003193601126102565760043560005260058152604060002090815467ffffffffffffffff81116106e357604051906113e2838260051b0183612102565b8082528282018094600052836000206000915b8383106114545760408051878152865181890181905289928201908960005b8281106114215784840385f35b855180516001600160a01b0316855280830151858401526040908101519085015294810194606090930192600101611414565b600386600192604051611466816120e6565b848060a01b0386541681528486015483820152600286015460408201528152019201920191906113f5565b34610256576000366003190112610256576020600a54604051908152f35b34610256576040366003190112610256576114c8611ff4565b6001600160a01b03166000908152600760205260409020805460243591908210156102565760209161132391612045565b34610256576000366003190112610256576115126121ca565b61151a6123fd565b600160ff1960025416176002557f62e78cea01bee320cd4e420270b5ea74000d11b0c9f74754ebdbfc544b05a2586020604051338152a1005b602080600319360112610256576004359061156c61241b565b6115746123fd565b81600052600481526040600020600581019081549060ff8260081c1660048110156107bb576115a3901561243e565b60ff821660038110156107bb5761179f57600781015442116117685760ff600b8201541680611751575b6116b4575b6115e5600382015460048301549061247f565b93843410611679575092809481600a61163e96612710611607600b548561247f565b04966101006116168986612492565b9761ff00191617905560098101336001600160601b0360a01b825416179055015533906124ef565b80341161164b5760018055005b6000808061165a819434612492565b818115611670575b3390f1156108575780610be9565b506108fc611662565b6064906040519062461bcd60e51b825260048201526014602482015273125b9cdd59999a58da595b9d081c185e5b595b9d60621b6044820152fd5b600254604051632a5bb1b760e11b81523360048201529085908290602490829060081c6001600160a01b03165afa90811561085757600091611734575b506115d25760405162461bcd60e51b8152600481018590526016602482015275109d5e595c881b9bdd0812d650c81d995c9a599a595960521b6044820152606490fd5b61174b9150853d8711610a5e57610a508183612102565b866116f1565b5060025460081c6001600160a01b031615156115cd565b60405162461bcd60e51b815260048101859052600f60248201526e131a5cdd1a5b99c8195e1c1a5c9959608a1b6044820152606490fd5b60405162461bcd60e51b815260048101859052601960248201527f4e6f742061206669786564207072696365206c697374696e67000000000000006044820152606490fd5b346102565760003660031901126102565760025460405160089190911c6001600160a01b03168152602090f35b3461025657602080600319360112610256576001600160a01b03611833611ff4565b1660005260088152604060002090604051908181845491828152019360005281600020916000905b82821061187257610b0e85610b0281890382612102565b83548652948501946001938401939091019061185b565b34610256576000366003190112610256576020600f54604051908152f35b3461025657600036600319011261025657602060ff600254166040519015158152f35b34610256576020366003190112610256576118e3611ff4565b6118eb6121ca565b600380546001600160a01b0319166001600160a01b0392909216919091179055005b3461025657602036600319011261025657611926611ff4565b61192e6121ca565b60028054610100600160a81b03191660089290921b610100600160a81b0316919091179055005b3461025657600036600319011261025657600c546040516001600160a01b039091168152602090f35b34610256576000366003190112610256576119976121ca565b60025460ff8116156119d65760ff19166002557f5db9ee0a495bf2e6ff9c91a7834c1ba4fdd244a5e8aa4e537bd38aeae4b073aa6020604051338152a1005b604051638dfc202b60e01b8152600490fd5b3461025657604036600319011261025657611a01611fde565b336001600160a01b03821603611a1d57610e63906004356122c6565b60405163334bd91960e11b8152600490fd5b3461025657602036600319011261025657600435611a4b61241b565b60008181526004602052604090206001810180546001600160a01b039290831633148015611b7d575b15611b495760058101805460ff8160081c169060048210156107bb57611a9c60ff921561243e565b1660038110156107bb5760011480611b3a575b611b06575b611adb9360039161020061ff0019825416179055806002840154169354169101549161249f565b7f411aee90354c51b1b04cd563fcab2617142a9d50da19232d888547c8a1b7fd8a600080a260018055005b600080808087600987015416600a87015490828215611b31575bf1611ab4576040513d6000823e3d90fd5b506108fc611b20565b50836009830154161515611aaf565b60405162461bcd60e51b815260206004820152600c60248201526b155b985d5d1a1bdc9a5e995960a21b6044820152606490fd5b503360009081527f8522cc959b5f1324f2d3217a190156abffac5c53b78a18e2178efd09ba8b42b2602052604090205460ff16611a74565b3461025657604036600319011261025657610e63600435611bd4611fde565b90806000526000602052611bef600160406000200154612222565b612248565b34610256576000366003190112610256576003546040516001600160a01b039091168152602090f35b346102565760203660031901126102565760043560005260006020526020600160406000200154604051908152f35b346102565760203660031901126102565760606101a0604051611c6e816120c9565b60008152600060208201526000604082015260008382015260006080820152600060a0820152600060c0820152600060e082015260006101008201526000610120820152600061014082015260006101608201526000610180820152015260043560005260046020526040600020604051611ce8816120c9565b8154815260018201546001600160a01b03908116602083015260028301541660408201526003820154606082015260048201546080820152600582015491611d3660ff841660a08401612360565b600460ff8460081c1610156107bb57600c611dae9160ff6101a09560081c1660c0850152600681015460e08501526007810154610100850152600881015461012085015260018060a01b03600982015416610140850152600a81015461016085015260ff600b82015416151561018085015201612124565b82820152610b0e604051928392602084528051602085015260018060a01b03602082015116604085015260018060a01b03604082015116606085015260608101516080850152608081015160a0850152611e1060a082015160c0860190611f84565b611e2260c082015160e0860190611f91565b60e081015161010085015261010081015161012085015261012081015161014085015260018060a01b036101408201511661016085015261016081015161018085015261018081015115158285015201516101c0808401526101e0830190611f9e565b346102565760003660031901126102565760206040517f442a94f1a1fac79af32856af2a64f63648cfa2ef3b98610a5bb7cbec4cee69858152f35b346102565760203660031901126102565760043563ffffffff60e01b811680910361025657602090637965db0b60e01b8114908115611f05575b506040519015158152f35b6301ffc9a760e01b14905082611efa565b346102565760203660031901126102565760c0906004356000526006602052604060002080549060ff60018060a01b0380600184015416906002840154916004600386015495015495875260208701528116604086015260a01c1615156060840152608083015260a0820152f35b9060038210156107bb5752565b9060048210156107bb5752565b919082519283825260005b848110611fca575050826000602080949584010152601f8019910116010190565b602081830181015184830182015201611fa9565b602435906001600160a01b038216820361025657565b600435906001600160a01b038216820361025657565b6020908160408183019282815285518094520193019160005b828110612031575050505090565b835185529381019392810192600101612023565b805482101561205d5760005260206000200190600090565b634e487b7160e01b600052603260045260246000fd5b805482101561205d576000526003602060002091020190600090565b90600182811c921680156120bf575b60208310146120a957565b634e487b7160e01b600052602260045260246000fd5b91607f169161209e565b6101c0810190811067ffffffffffffffff8211176106e357604052565b6060810190811067ffffffffffffffff8211176106e357604052565b90601f8019910116810190811067ffffffffffffffff8211176106e357604052565b90604051918260008254926121388461208f565b9081845260019485811690816000146121a75750600114612164575b505061216292500383612102565b565b9093915060005260209081600020936000915b81831061218f57505061216293508201013880612154565b85548884018501529485019487945091830191612177565b91505061216294506020925060ff191682840152151560051b8201013880612154565b3360009081527fad3228b676f7d3cd4284a5443f17f1962b36e491b30a40b2405849e597ba5fb5602052604081205460ff16156122045750565b6044906040519063e2517d3f60e01b82523360048301526024820152fd5b80600052600060205260406000203360005260205260ff60406000205416156122045750565b9060009180835282602052604083209160018060a01b03169182845260205260ff604084205416156000146122c157808352826020526040832082845260205260408320600160ff198254161790557f2f8788117e7eff1d82e926ec794901d17c78024a50270940304540a733656f0d339380a4600190565b505090565b9060009180835282602052604083209160018060a01b03169182845260205260ff6040842054166000146122c15780835282602052604083208284526020526040832060ff1981541690557ff6391f5c32d9c69d2a47ea670b442974b53935d1edc7fd64eb21e047a839171b339380a4600190565b90816020910312610256575180151581036102565790565b919082018092116107d157565b60038210156107bb5752565b8054600160401b8110156106e35761238991600182018155612045565b819291549060031b91821b91600019901b1916179055565b906000602091828151910182855af115610857576000513d6123f457506001600160a01b0381163b155b6123d25750565b604051635274afe760e01b81526001600160a01b039091166004820152602490fd5b600114156123cb565b60ff6002541661240957565b60405163d93c066560e01b8152600490fd5b60026001541461242c576002600155565b604051633ee5aeb560e01b8152600490fd5b1561244557565b60405162461bcd60e51b81526020600482015260126024820152714c697374696e67206e6f742061637469766560701b6044820152606490fd5b818102929181159184041417156107d157565b919082039182116107d157565b60405163a9059cbb60e01b60208201526001600160a01b039092166024830152604480830193909352918152608081019167ffffffffffffffff8311828410176106e357612162926040526123a1565b926001929460008080808095898252600460205260408220898060a01b0399816125268c600281950154168c60038401549161249f565b0154168282156125a2575bf11561259557818080809387600c541682821561258c575bf11561258057507f8e378317cc1b9c64766fd136e5849da5f702d26a8f8b750115b7422909b2309f916020916040519586521693a3565b604051903d90823e3d90fd5b506108fc612549565b50604051903d90823e3d90fd5b506108fc61253156fea2646970667358221220c70ba19e9e1d83f6ca333255ab6c59b766a62b4f31177d1082f2548faf8ce65f64736f6c634300081400332f8788117e7eff1d82e926ec794901d17c78024a50270940304540a733656f0d",
  "linkReferences": {},
  "deployedLinkReferences": {}
}