{
  "_format": "hh-sol-artifact-1",
  "contractName": "AssetTokenFactory",
  "sourceName": "contracts/AssetTokenFactory.sol",
  "abi": [
    {
      "inputs": [
        {
          "internalType": "address",
          "name": "_kycContract",
          "type": "address"
        },
        {
          "internalType": "address",
          "name": "_feeRecipient",
          "type": "address"
        }
      ],
      "stateMutability": "nonpayable",
      "type": "constructor"
    },
    {
      "inputs": [],
      "name": "AccessControlBadConfirmation",
      "type": "error"
    },
    {
      "inputs": [
        {
          "internalType": "address",
          "name": "account",
          "type": "address"
        },
        {
          "internalType": "bytes32",
          "name": "neededRole",
          "type": "bytes32"
        }
      ],
      "name": "AccessControlUnauthorizedAccount",
      "type": "error"
    },
    {
      "inputs": [],
      "name": "EnforcedPause",
      "type": "error"
    },
    {
      "inputs": [],
      "name": "ExpectedPause",
      "type": "error"
    },
    {
      "inputs": [],
      "name": "ReentrancyGuardReentrantCall",
      "type": "error"
    },
    {
      "anonymous": false,
      "inputs": [
        {
          "indexed": true,
          "internalType": "bytes32",
          "name": "assetId",
          "type": "bytes32"
        },
        {
          "indexed": false,
          "internalType": "bool",
          "name": "isActive",
          "type": "bool"
        }
      ],
      "name": "AssetStatusUpdated",
      "type": "event"
    },
    {
      "anonymous": false,
      "inputs": [
        {
          "indexed": true,
          "internalType": "bytes32",
          "name": "assetId",
          "type": "bytes32"
        },
        {
          "indexed": true,
          "internalType": "address",
          "name": "tokenAddress",
          "type": "address"
        },
        {
          "indexed": true,
          "internalType": "address",
          "name": "issuer",
          "type": "address"
        },
        {
          "indexed": false,
          "internalType": "string",
          "name": "name",
          "type": "string"
        },
        {
          "indexed": false,
          "internalType": "string",
          "name": "symbol",
          "type": "string"
        }
      ],
      "name": "AssetTokenCreated",
      "type": "event"
    },
    {
      "anonymous": false,
      "inputs": [
        {
          "indexed": false,
          "internalType": "address",
          "name": "account",
          "type": "address"
        }
      ],
      "name": "Paused",
      "type": "event"
    },
    {
      "anonymous": false,
      "inputs": [
        {
          "indexed": true,
          "internalType": "bytes32",
          "name": "role",
          "type": "bytes32"
        },
        {
          "indexed": true,
          "internalType": "bytes32",
          "name": "previousAdminRole",
          "type": "bytes32"
        },
        {
          "indexed": true,
          "internalType": "bytes32",
          "name": "newAdminRole",
          "type": "bytes32"
        }
      ],
      "name": "RoleAdminChanged",
      "type": "event"
    },
    {
      "anonymous": false,
      "inputs": [
        {
          "indexed": true,
          "internalType": "bytes32",
          "name": "role",
          "type": "bytes32"
        },
        {
          "indexed": true,
          "internalType": "address",
          "name": "account",
          "type": "address"
        },
        {
          "indexed": true,
          "internalType": "address",
          "name": "sender",
          "type": "address"
        }
      ],
      "name": "RoleGranted",
      "type": "event"
    },
    {
      "anonymous": false,
      "inputs": [
        {
          "indexed": true,
          "internalType": "bytes32",
          "name": "role",
          "type": "bytes32"
        },
        {
          "indexed": true,
          "internalType": "address",
          "name": "account",
          "type": "address"
        },
        {
          "indexed": true,
          "internalType": "address",
          "name": "sender",
          "type": "address"
        }
      ],
      "name": "RoleRevoked",
      "type": "event"
    },
    {
      "anonymous": false,
      "inputs": [
        {
          "indexed": false,
          "internalType": "address",
          "name": "account",
          "type": "address"
        }
      ],
      "name": "Unpaused",
      "type": "event"
    },
    {
      "inputs": [],
      "name": "COMPLIANCE_ROLE",
      "outputs": [
        {
          "internalType": "bytes32",
          "name": "",
          "type": "bytes32"
        }
      ],
      "stateMutability": "view",
      "type": "function"
    },
    {
      "inputs": [],
      "name": "DEFAULT_ADMIN_ROLE",
      "outputs": [
        {
          "internalType": "bytes32",
          "name": "",
          "type": "bytes32"
        }
      ],
      "stateMutability": "view",
      "type": "function"
    },
    {
      "inputs": [],
      "name": "ISSUER_ROLE",
      "outputs": [
        {
          "internalType": "bytes32",
          "name": "",
          "type": "bytes32"
        }
      ],
      "stateMutability": "view",
      "type": "function"
    },
    {
      "inputs": [
        {
          "internalType": "uint256",
          "name": "",
          "type": "uint256"
        }
      ],
      "name": "allAssets",
      "outputs": [
        {
          "internalType": "bytes32",
          "name": "",
          "type": "bytes32"
        }
      ],
      "stateMutability": "view",
      "type": "function"
    },
    {
      "inputs": [
        {
          "internalType": "bytes32",
          "name": "",
          "type": "bytes32"
        }
      ],
      "name": "assets",
      "outputs": [
        {
          "internalType": "string",
          "name": "name",
          "type": "string"
        },
        {
          "internalType": "string",
          "name": "symbol",
          "type": "string"
        },
        {
          "internalType": "address",
          "name": "tokenAddress",
          "type": "address"
        },
        {
          "internalType": "address",
          "name": "issuer",
          "type": "address"
        },
        {
          "internalType": "uint256",
          "name": "totalSupply",
          "type": "uint256"
        },
        {
          "internalType": "uint256",
          "name": "createdAt",
          "type": "uint256"
        },
        {
          "internalType": "bool",
          "name": "isActive",
          "type": "bool"
        },
        {
          "internalType": "string",
          "name": "metadataURI",
          "type": "string"
        }
      ],
      "stateMutability": "view",
      "type": "function"
    },
    {
      "inputs": [
        {
          "internalType": "string",
          "name": "name",
          "type": "string"
        },
        {
          "internalType": "string",
          "name": "symbol",
          "type": "string"
        },
        {
          "internalType": "uint256",
          "name": "initialSupply",
          "type": "uint256"
        },
        {
          "internalType": "string",
          "name": "metadataURI",
          "type": "string"
        }
      ],
      "name": "createAssetToken",
      "outputs": [],
      "stateMutability": "payable",
      "type": "function"
    },
    {
      "inputs": [],
      "name": "creationFee",
      "outputs": [
        {
          "internalType": "uint256",
          "name": "",
          "type": "uint256"
        }
      ],
      "stateMutability": "view",
      "type": "function"
    },
    {
      "inputs": [],
      "name": "emergencyWithdraw",
      "outputs": [],
      "stateMutability": "nonpayable",
      "type": "function"
    },
    {
      "inputs": [],
      "name": "feeRecipient",
      "outputs": [
        {
          "internalType": "address",
          "name": "",
          "type": "address"
        }
      ],
      "stateMutability": "view",
      "type": "function"
    },
    {
      "inputs": [],
      "name": "getAllAssets",
      "outputs": [
        {
          "internalType": "bytes32[]",
          "name": "",
          "type": "bytes32[]"
        }
      ],
      "stateMutability": "view",
      "type": "function"
    },
    {
      "inputs": [
        {
          "internalType": "bytes32",
          "name": "assetId",
          "type": "bytes32"
        }
      ],
      "name": "getAssetInfo",
      "outputs": [
        {
          "components": [
            {
              "internalType": "string",
              "name": "name",
              "type": "string"
            },
            {
              "internalType": "string",
              "name": "symbol",
              "type": "string"
            },
            {
              "internalType": "address",
              "name": "tokenAddress",
              "type": "address"
            },
            {
              "internalType": "address",
              "name": "issuer",
              "type": "address"
            },
            {
              "internalType": "uint256",
              "name": "totalSupply",
              "type": "uint256"
            },
            {
              "internalType": "uint256",
              "name": "createdAt",
              "type": "uint256"
            },
            {
              "internalType": "bool",
              "name": "isActive",
              "type": "bool"
            },
            {
              "internalType": "string",
              "name": "metadataURI",
              "type": "string"
            }
          ],
          "internalType": "struct AssetTokenFactory.AssetInfo",
          "name": "",
          "type": "tuple"
        }
      ],
      "stateMutability": "view",
      "type": "function"
    },
    {
      "inputs": [
        {
          "internalType": "address",
          "name": "issuer",
          "type": "address"
        }
      ],
      "name": "getAssetsByIssuer",
      "outputs": [
        {
          "internalType": "bytes32[]",
          "name": "",
          "type": "bytes32[]"
        }
      ],
      "stateMutability": "view",
      "type": "function"
    },
    {
      "inputs": [
        {
          "internalType": "bytes32",
          "name": "role",
          "type": "bytes32"
        }
      ],
      "name": "getRoleAdmin",
      "outputs": [
        {
          "internalType": "bytes32",
          "name": "",
          "type": "bytes32"
        }
      ],
      "stateMutability": "view",
      "type": "function"
    },
    {
      "inputs": [
        {
          "internalType": "bytes32",
          "name": "role",
          "type": "bytes32"
        },
        {
          "internalType": "address",
          "name": "account",
          "type": "address"
        }
      ],
      "name": "grantRole",
      "outputs": [],
      "stateMutability": "nonpayable",
      "type": "function"
    },
    {
      "inputs": [
        {
          "internalType": "bytes32",
          "name": "role",
          "type": "bytes32"
        },
        {
          "internalType": "address",
          "name": "account",
          "type": "address"
        }
      ],
      "name": "hasRole",
      "outputs": [
        {
          "internalType": "bool",
          "name": "",
          "type": "bool"
        }
      ],
      "stateMutability": "view",
      "type": "function"
    },
    {
      "inputs": [
        {
          "internalType": "address",
          "name": "",
          "type": "address"
        },
        {
          "internalType": "uint256",
          "name": "",
          "type": "uint256"
        }
      ],
      "name": "issuerAssets",
      "outputs": [
        {
          "internalType": "bytes32",
          "name": "",
          "type": "bytes32"
        }
      ],
      "stateMutability": "view",
      "type": "function"
    },
    {
      "inputs": [],
      "name": "kycContract",
      "outputs": [
        {
          "internalType": "address",
          "name": "",
          "type": "address"
        }
      ],
      "stateMutability": "view",
      "type": "function"
    },
    {
      "inputs": [],
      "name": "pause",
      "outputs": [],
      "stateMutability": "nonpayable",
      "type": "function"
    },
    {
      "inputs": [],
      "name": "paused",
      "outputs": [
        {
          "internalType": "bool",
          "name": "",
          "type": "bool"
        }
      ],
      "stateMutability": "view",
      "type": "function"
    },
    {
      "inputs": [
        {
          "internalType": "bytes32",
          "name": "role",
          "type": "bytes32"
        },
        {
          "internalType": "address",
          "name": "callerConfirmation",
          "type": "address"
        }
      ],
      "name": "renounceRole",
      "outputs": [],
      "stateMutability": "nonpayable",
      "type": "function"
    },
    {
      "inputs": [
        {
          "internalType": "bytes32",
          "name": "role",
          "type": "bytes32"
        },
        {
          "internalType": "address",
          "name": "account",
          "type": "address"
        }
      ],
      "name": "revokeRole",
      "outputs": [],
      "stateMutability": "nonpayable",
      "type": "function"
    },
    {
      "inputs": [
        {
          "internalType": "bytes32",
          "name": "assetId",
          "type": "bytes32"
        },
        {
          "internalType": "bool",
          "name": "isActive",
          "type": "bool"
        }
      ],
      "name": "setAssetStatus",
      "outputs": [],
      "stateMutability": "nonpayable",
      "type": "function"
    },
    {
      "inputs": [
        {
          "internalType": "bytes4",
          "name": "interfaceId",
          "type": "bytes4"
        }
      ],
      "name": "supportsInterface",
      "outputs": [
        {
          "internalType": "bool",
          "name": "",
          "type": "bool"
        }
      ],
      "stateMutability": "view",
      "type": "function"
    },
    {
      "inputs": [],
      "name": "unpause",
      "outputs": [],
      "stateMutability": "nonpayable",
      "type": "function"
    },
    {
      "inputs": [
        {
          "internalType": "uint256",
          "name": "newFee",
          "type": "uint256"
        }
      ],
      "name": "updateCreationFee",
      "outputs": [],
      "stateMutability": "nonpayable",
      "type": "function"
    },
    {
      "inputs": [
        {
          "internalType": "address",
          "name": "newRecipient",
          "type": "address"
        }
      ],
      "name": "updateFeeRecipient",
      "outputs": [],
      "stateMutability": "nonpayable",
      "type": "function"
    }
  ],
  "bytecode": "0x608034620000d857601f620019ad38819003918201601f19168301916001600160401b03831184841017620000dd578084926040948552833981010312620000d8576200005a60206200005283620000f3565b9201620000f3565b906001805567016345785d8a0000600655620000763362000108565b50620000823362000188565b5060028054610100600160a81b03191660089290921b610100600160a81b0316919091179055600780546001600160a01b0319166001600160a01b039290921691909117905560405161176290816200022b8239f35b600080fd5b634e487b7160e01b600052604160045260246000fd5b51906001600160a01b0382168203620000d857565b6001600160a01b031660008181527fad3228b676f7d3cd4284a5443f17f1962b36e491b30a40b2405849e597ba5fb5602052604081205490919060ff166200018457818052816020526040822081835260205260408220600160ff1982541617905533916000805160206200198d8339815191528180a4600190565b5090565b6001600160a01b031660008181527f335573aa7cafba10a32e2694464d1e7e5294d917876d04d506249fbf84d791af60205260408120549091907f442a94f1a1fac79af32856af2a64f63648cfa2ef3b98610a5bb7cbec4cee69859060ff166200022557808352826020526040832082845260205260408320600160ff198254161790556000805160206200198d833981519152339380a4600190565b50509056fe608080604052600436101561001357600080fd5b60003560e01c90816301ffc9a7146112ff57508063062d3bd7146112c4578063248a9ca3146112955780632acada4d1461121a5780632f2ff15d146111db57806336568abe146111945780633f4ba83a1461112a5780634690484014611101578063529b4976146110a9578063578e5c22146110585780635c975abb146110355780636b07b811146107de5780636d3123eb146107b15780636fa237951461079057806377485eca1461070c57806382aefa24146106d1578063838b1af8146105725780638456cb591461051857806391d14854146104cb5780639fda5b661461040a578063a217fddf146103ee578063d547741f146103ad578063db2e21bc14610367578063dce0b4e414610349578063f160d369146102ac5763fefaad5d1461013d57600080fd5b346102a7576020806003193601126102a7576040519061015c826113e7565b606082818094528183820152604081016000905281810160009052608081016000905260a081016000905260c081016000905260e0015260043560005260038152604060002090604051916101b0836113e7565b6101b9816114cd565b83526101c7600182016114cd565b91808401928352600160a01b6001900394856002840154169260408601938452866003820154168287019081526004820154608088019081528860058401549260a08a01938452600685015460ff169460c08b01951515865260070161022c906114cd565b9560e08b019687526040519b8c9b898d52518c6101009a8b9101526101208d0161025591611596565b9a51601f198d8d03810160408f01529b61026e91611596565b995116908b0152511660808901525160a08801525160c087015251151560e0860152519284830301908401526102a391611596565b0390f35b600080fd5b346102a75760203660031901126102a7576102c56113a3565b6102cd6115bb565b6001600160a01b031680156102f9576bffffffffffffffffffffffff60a01b6007541617600755600080f35b60405162461bcd60e51b815260206004820152602260248201527f4173736574546f6b656e466163746f72793a20496e76616c6964206164647265604482015261737360f01b6064820152608490fd5b346102a75760003660031901126102a7576020600654604051908152f35b346102a75760003660031901126102a7576103806115bb565b6000808080478181156103a4575b3390f11561039857005b6040513d6000823e3d90fd5b506108fc61038e565b346102a75760403660031901126102a7576103ec6004356103cc61138d565b908060005260006020526103e76001604060002001546115f5565b611699565b005b346102a75760003660031901126102a757602060405160008152f35b346102a75760203660031901126102a757600435600052600360205261049460406000206102a361043a826114cd565b91610447600182016114cd565b60018060a01b0391826002820154169260038201541660048201546005830154916104a261047f600760ff60068801541696016114cd565b956040519a8b9a610100808d528c0190611596565b908a820360208c0152611596565b9560408901526060880152608087015260a0860152151560c085015283820360e0850152611596565b346102a75760403660031901126102a7576104e461138d565b600435600052600060205260406000209060018060a01b0316600052602052602060ff604060002054166040519015158152f35b346102a75760003660031901126102a7576105316115bb565b61053961170e565b600160ff1960025416176002557f62e78cea01bee320cd4e420270b5ea74000d11b0c9f74754ebdbfc544b05a2586020604051338152a1005b346102a75760403660031901126102a7576004356024358015158082036102a7573360009081527f335573aa7cafba10a32e2694464d1e7e5294d917876d04d506249fbf84d791af60209081526040909120549092907f442a94f1a1fac79af32856af2a64f63648cfa2ef3b98610a5bb7cbec4cee69859060ff16156106b3575060008481526003808552604090912001546001600160a01b031615610663579061065a7f2927326e3aa9264863d9b2ba6c5881dc9af9d5a7462305d2392546897c6db2899392856000526003845260066040600020019060ff801983541691151516179055565b604051908152a2005b60405162461bcd60e51b815260048101849052602260248201527f4173736574546f6b656e466163746f72793a204173736574206e6f7420666f756044820152611b9960f21b6064820152608490fd5b6044906040519063e2517d3f60e01b82523360048301526024820152fd5b346102a75760003660031901126102a75760206040517f114e74f6ea3bd819998f78687bfcb11b140da08e9b7d222fa9c1f1ba1f2aa1228152f35b346102a7576020806003193601126102a7576001600160a01b0361072e6113a3565b1660005260048152604060002090604051908181845491828152019360005281600020916000905b828210610779576102a38561076d8189038261141a565b60405191829182611352565b835486529485019460019384019390910190610756565b346102a75760203660031901126102a7576107a96115bb565b600435600655005b346102a75760003660031901126102a75760025460405160089190911c6001600160a01b03168152602090f35b60803660031901126102a75760043567ffffffffffffffff81116102a75761080a90369060040161143c565b602490813567ffffffffffffffff81116102a75761082c90369060040161143c565b9160449081356064803567ffffffffffffffff81116102a75761085390369060040161143c565b9060026001541461102357600260015561086b61170e565b6006543410610fd557855115610f9557865115610f48578215610eeb5760405160208101906108dc6054828b60206108a98d88815193849201611573565b82016108be8251809360208085019101611573565b013360601b602082015242603482015203603481018452018261141a565b5190206000818152600360205260409020600201549095906001600160a01b0316610e9957505060405191610910836113e7565b8583528660208401526000604084015233606084015260808301524260a0830152600160c083015260e0820152826000526003602052604060002090805180519067ffffffffffffffff8211610dbd57819061096c8554611493565b601f8111610e49575b50602090601f8311600114610ddd57600092610dd2575b50508160011b916000199060031b1c19161782555b602081015180519067ffffffffffffffff8211610dbd576109c56001850154611493565b601f8111610d76575b50602090601f8311600114610d035760e093929160009183610cf8575b50508160011b916000199060031b1c19161760018401555b6002830160018060a01b03604083015116906bffffffffffffffffffffffff60a01b9182825416179055600384019060018060a01b03606084015116908254161790556080810151600484015560a08101516005840155610a7960c08201511515600685019060ff801983541691151516179055565b015180519067ffffffffffffffff8211610ce357610a9a6007840154611493565b601f8111610c9c575b50602090601f8311600114610c2c576007929160009183610c21575b50508160011b916000199060031b1c1916179101555b3360005260046020526040600020908154680100000000000000009283821015610c0c5790610b09916001820181556113b9565b81549060031b9085821b91600019901b191617905560055491821015610bf8576001820180600555821015610be45750819060056000527f036b6384b5eca791c62761152d0c79bb0604c104a5fb6f4eb0703f3154bb3db00155600080808060018060a01b036007541681903415610bda575b3491f115610398577f13bf4a3d04fc8da3635bc863cd644308f0b4950b2f8df7fa7dee82562c16ab71610bc2600093610bd1604051928392604084526040840190611596565b82810360208401523397611596565b0390a460018055005b6108fc9150610b7c565b634e487b7160e01b60009081526032600452fd5b634e487b7160e01b60009081526041600452fd5b82634e487b7160e01b60005260416004526000fd5b015190508880610abf565b906007840160005260206000209160005b601f1985168110610c845750918391600193600795601f19811610610c6b575b505050811b01910155610ad5565b015160001960f88460031b161c19169055888080610c5d565b91926020600181928685015181550194019201610c3d565b600784016000526020600020601f840160051c810160208510610cdc575b601f830160051c82018110610cd0575050610aa3565b60008155600101610cba565b5080610cba565b83634e487b7160e01b60005260416004526000fd5b0151905089806109eb565b906001850160005260206000209160005b601f1985168110610d5e575091839160019360e09695601f19811610610d45575b505050811b016001840155610a03565b015160001960f88460031b161c19169055898080610d35565b91926020600181928685015181550194019201610d14565b600185016000526020600020601f840160051c810160208510610db6575b601f830160051c82018110610daa5750506109ce565b60008155600101610d94565b5080610d94565b84634e487b7160e01b60005260416004526000fd5b01519050888061098c565b9250846000526020600020906000935b601f1984168510610e2e576001945083601f19811610610e15575b505050811b0182556109a1565b015160001960f88460031b161c19169055888080610e08565b81810151835560209485019460019093019290910190610ded565b909150846000526020600020601f840160051c810160208510610e92575b90849392915b601f830160051c82018110610e83575050610975565b60008155859450600101610e6d565b5080610e67565b662065786973747360c81b6084927f4173736574546f6b656e466163746f72793a20417373657420616c7265616479879360276040519562461bcd60e51b875260206004880152860152840152820152fd5b837179206d75737420626520706f73697469766560701b6084927f4173736574546f6b656e466163746f72793a20496e697469616c20737570706c8860326040519562461bcd60e51b875260206004880152860152840152820152fd5b8361195960f21b6084927f4173736574546f6b656e466163746f72793a2053796d626f6c207265717569728860226040519562461bcd60e51b875260206004880152860152840152820152fd5b60405162461bcd60e51b8152602060048201819052818601527f4173736574546f6b656e466163746f72793a204e616d6520726571756972656481870152fd5b836266656560e81b6084927f4173736574546f6b656e466163746f72793a20496e73756666696369656e74208860236040519562461bcd60e51b875260206004880152860152840152820152fd5b604051633ee5aeb560e01b8152600490fd5b346102a75760003660031901126102a757602060ff600254166040519015158152f35b346102a75760203660031901126102a7576004356005548110156102a75760209060056000527f036b6384b5eca791c62761152d0c79bb0604c104a5fb6f4eb0703f3154bb3db00154604051908152f35b346102a75760403660031901126102a7576110c26113a3565b6001600160a01b03166000908152600460205260409020805460243591908210156102a7576020916110f3916113b9565b90546040519160031b1c8152f35b346102a75760003660031901126102a7576007546040516001600160a01b039091168152602090f35b346102a75760003660031901126102a7576111436115bb565b60025460ff8116156111825760ff19166002557f5db9ee0a495bf2e6ff9c91a7834c1ba4fdd244a5e8aa4e537bd38aeae4b073aa6020604051338152a1005b604051638dfc202b60e01b8152600490fd5b346102a75760403660031901126102a7576111ad61138d565b336001600160a01b038216036111c9576103ec90600435611699565b60405163334bd91960e11b8152600490fd5b346102a75760403660031901126102a7576103ec6004356111fa61138d565b908060005260006020526112156001604060002001546115f5565b61161b565b346102a75760003660031901126102a757604051806005549182815260208091019260056000527f036b6384b5eca791c62761152d0c79bb0604c104a5fb6f4eb0703f3154bb3db0916000905b82821061127e576102a38561076d8189038261141a565b835486529485019460019384019390910190611267565b346102a75760203660031901126102a75760043560005260006020526020600160406000200154604051908152f35b346102a75760003660031901126102a75760206040517f442a94f1a1fac79af32856af2a64f63648cfa2ef3b98610a5bb7cbec4cee69858152f35b346102a75760203660031901126102a7576004359063ffffffff60e01b82168092036102a757602091637965db0b60e01b8114908115611341575b5015158152f35b6301ffc9a760e01b1490508361133a565b6020908160408183019282815285518094520193019160005b828110611379575050505090565b83518552938101939281019260010161136b565b602435906001600160a01b03821682036102a757565b600435906001600160a01b03821682036102a757565b80548210156113d15760005260206000200190600090565b634e487b7160e01b600052603260045260246000fd5b610100810190811067ffffffffffffffff82111761140457604052565b634e487b7160e01b600052604160045260246000fd5b90601f8019910116810190811067ffffffffffffffff82111761140457604052565b81601f820112156102a75780359067ffffffffffffffff82116114045760405192611471601f8401601f19166020018561141a565b828452602083830101116102a757816000926020809301838601378301015290565b90600182811c921680156114c3575b60208310146114ad57565b634e487b7160e01b600052602260045260246000fd5b91607f16916114a2565b90604051918260008254926114e184611493565b908184526001948581169081600014611550575060011461150d575b505061150b9250038361141a565b565b9093915060005260209081600020936000915b81831061153857505061150b935082010138806114fd565b85548884018501529485019487945091830191611520565b91505061150b94506020925060ff191682840152151560051b82010138806114fd565b60005b8381106115865750506000910152565b8181015183820152602001611576565b906020916115af81518092818552858086019101611573565b601f01601f1916010190565b3360009081527fad3228b676f7d3cd4284a5443f17f1962b36e491b30a40b2405849e597ba5fb5602052604081205460ff16156106b35750565b80600052600060205260406000203360005260205260ff60406000205416156106b35750565b9060009180835282602052604083209160018060a01b03169182845260205260ff6040842054161560001461169457808352826020526040832082845260205260408320600160ff198254161790557f2f8788117e7eff1d82e926ec794901d17c78024a50270940304540a733656f0d339380a4600190565b505090565b9060009180835282602052604083209160018060a01b03169182845260205260ff6040842054166000146116945780835282602052604083208284526020526040832060ff1981541690557ff6391f5c32d9c69d2a47ea670b442974b53935d1edc7fd64eb21e047a839171b339380a4600190565b60ff6002541661171a57565b60405163d93c066560e01b8152600490fdfea2646970667358221220f3ceb2169ba5990e6db7a715477d83aa8071a16d86a344e586d8200c193efae464736f6c634300081400332f8788117e7eff1d82e926ec794901d17c78024a50270940304540a733656f0d",
  "linkReferences": {},
  "deployedLinkReferences": {}
}